:020000040800F2
:10000000E84900205D0200085B1200083B1100086F
:10001000591200088D0300083D1800080000000078
:100020000000000000000000000000009D0100082A
:10003000D903000800000000F9010008DD130008E2
:1000400077020008770200087702000877020008AC
:10005000770200087702000877020008770200089C
:10006000770200087702000877020008770200088C
:10007000770200087702000877020008770200087C
:10008000770200087702000877020008770200086C
:10009000770200087702000877020008770200085C
:1000A00077020008A9140008770200087702000808
:1000B000770200087702000877020008770200083C
:1000C000770200087702000877020008770200082C
:1000D000770200083118000877020008770200084C
:1000E000770200087702000877020008770200080C
:1000F00077020008770200087702000877020008FC
:1001000077020008770200087702000877020008EB
:1001100077020008770200087702000877020008DB
:1001200077020008770200087702000877020008CB
:1001300077020008770200087702000877020008BB
:1001400077020008770200087702000877020008AB
:10015000770200087702000877020008770200089B
:10016000770200087702000877020008770200088B
:1001700077020008770200087702000800000000FC
:100180007702000877020008DFF80CD000F0ECF8E6
:1001900000480047D5180008E84900202C4B196892
:1001A0000868B0E8F04F80F30988BFF36F8F4FF015
:1001B000000080F3118870470000000008480068C4
:1001C000006880F308884FF0000080F3148862B65E
:1001D00061B6BFF34F8FBFF36F8F00DF00BF00BF6B
:1001E00008ED00E0DFF80C00016841F470010160E7
:1001F000704700BF88ED00E0EFF30980BFF36F8F19
:10020000134B1A681EF0100F08BF20ED108A20E96A
:10021000F04F106009B44FF0500080F31188BFF325
:100220004F8FBFF36F8F02F099FB4FF0000080F308
:10023000118809BC19680868B0E8F04F1EF0100F6B
:1002400008BFB0EC108A80F30988BFF36F8F704746
:1002500030000020EFF3058070470000064880471B
:1002600006480047FEE7FEE7FEE7FEE7FEE7FEE79B
:10027000FEE7FEE7FEE7FEE78D14000889010008AF
:100280002DE9F05F0546002092469B4688460646CB
:10029000814640241BE0284641464746224600F05E
:1002A00053F853465A46C01A914110D31146184686
:1002B000224600F03AF82D1A67EB01084F46224615
:1002C0000120002100F031F817EB00094E41201EFB
:1002D000A4F10104DFDC484631462A464346BDE826
:1002E000F09F40EA01039B0703D009E008C9121FF1
:1002F00008C0042AFAD203E011F8013B00F8013BE0
:10030000521EF9D27047D2B201E000F8012B491E0B
:10031000FBD270470022F6E710B513460A460446A2
:100320001946FFF7F0FF204610BD202A04DB203AD3
:1003300000FA02F1002070479140C2F1200320FA38
:1003400003F3194390407047202A04DB203A21FA36
:1003500002F00021704721FA02F3D040C2F12002DE
:100360009140084319467047064C074D06E0E06887
:1003700040F0010394E8070098471034AC42F6D3EC
:10038000FFF706FF3C3A00085C3A0008FEE7000071
:10039000094810B50178491CC9B20170052905D179
:1003A000002101708021406802F034FBBDE810405C
:1003B00002A001F045BA0000000000200A0DBDF8BF
:1003C000C8EBC8EDBCFEB6A8CAB1C6F7BBD8B5F736
:1003D000BAAFCAFD0A0D00007047704790F835109B
:1003E000022903D08021416501207047052180F852
:1003F00035100068016821F001010160002070479C
:100400002DE9F84F00224FF0010803254FF00F0EA1
:100410000B6808FA02F42340A3426ED14E68012E05
:1004200005D0022E03D0112E01D0122E12D18668D3
:100430004FEA420C05FA0CF7BE43CF6807FA0CF7F7
:10044000374387604668A6430C79C4F30014944090
:1004500034434460C668570005FA07FC8C6826EAF6
:100460000C06BC403443C4604C68022C01D0122CF2
:1004700013D1D40800EB8404A346D4F82090540789
:100480004FEAD46A0EFA0AF629EA06090E6906FA54
:100490000AF646EA0906CBF8206006680C7926EAD7
:1004A0000C0604F00304BC40344304604C68E400D0
:1004B00065D5364C266846F480462660246822F0CE
:1004C000030604F480440094314C3444A446D4F828
:1004D00008489607370F0EFA07F6B4432D4EB04280
:1004E00001D1002624E02C4EB04201D101261FE0AC
:1004F0002A4EB04202D102261AE040E0284EB04215
:1005000001D1032614E0274EB04201D104260FE0AA
:10051000254EB04201D105260AE0244EB04201D159
:10052000062605E0224EB04201D1072600E008264B
:10053000BE402643CCF808681E4E34684F689C4382
:10054000FF0300D51C4334601A4C241D26684F68F5
:100550009E43BF0300D51E432660164E08363468FE
:100560004F689C43FF0200D51C433460114E0C368B
:1005700034684F689C43BF0200D51C433460521C52
:10058000102AFFF445AFBDE8F88F00004438024060
:100590000030014000000240000402400008024018
:1005A000000C0240001002400014024000180240FB
:1005B000001C0240003C0140014880687047000078
:1005C0002000002002488168027811448160704751
:1005D000200000200B4810B5016841F40071016053
:1005E000016841F480610160016841F4807101603B
:1005F000032000F08DF8002000F006F800F03EF82F
:10060000002010BD003C024010B5014688B0002219
:10061000192000F05DF8192000F04CF81348002470
:10062000016841F001010160006805A900F00100C6
:100630000690684600F018F900F046F90C490D4A9A
:10064000B0FBF1F10C48491E026040F2E732C0E90C
:100650000324C0E9011400F027FB10B1012008B009
:1006600010BD054800F03CFBF9E7000044380240AB
:1006700040420F0000000140900700200C4882B06B
:10068000016841F480410160006800F480400090FE
:100690000748001F016841F0805101600068002296
:1006A00000F0805000900F21901E02B000F010B8B2
:1006B00044380240002809DB00F01F02012191406C
:1006C0004009800000F1E020C0F8001170470000F0
:1006D000F0B40E4B1B680C46C3F30223C3F10705AD
:1006E000042D00D90425191D072901D2002300E09B
:1006F000DB1E012606FA05F1491E214099409E4065
:10070000761E16403143F0BC01F0A2B80CED00E0BB
:10071000064900F0070208684FF6FF03184040EA58
:100720000220034A10430860704700000CED00E00F
:100730000000FA052DE9F0470E46050065D0DFF808
:100740001481D8F80000F7B200F00F00B04207D2D1
:1007500088F80070D8F8000000F00F00B04254D1C3
:1007600028683D4C810712D5400703D5206840F426
:10077000E05020602878000703D5206840F46040EE
:1007800020602068A96820F0F000084320602878E5
:10079000C0072DD0304968680839012812D00228D6
:1007A00013D0032811D00968890700292DDA2168A0
:1007B00021F0030101432160FFF7FEFE814641F273
:1007C000883A0EE009688903EFE709688901ECE7D8
:1007D000FFF7F2FEA0EB0901514502D90320BDE865
:1007E000F0872068696800F00C00B0EB810FEFD152
:1007F000D8F80010404601F00F01B14207D9077048
:10080000006800F00F00B04201D00120E7E728782F
:10081000400705D52068E96820F4E05008432060CF
:100820002878000706D52068296920F4604040EA4E
:10083000C100206000F058F82168084AC1F3031194
:10084000515CC8400649086006480068FFF7DCFEB6
:100850000020C4E7003C024008380240003A00088B
:100860002C000020240000200F2202600C4A136894
:1008700003F003034360136803F0F003836013681D
:1008800003F4E053C36012684FF4E05303EAD2026A
:1008900002610448006800F00F0008607047000023
:1008A00008380240003C02400448054900680968D5
:1008B000044AC1F38221515CC84070472C000020DB
:1008C00008380240103A00080448054900680968E1
:1008D000044AC1F34231515CC84070472C000020EB
:1008E00008380240103A0008154810B5006810F0AA
:1008F0000C02144813D04110042A0FD0082A0ED13C
:100900000F4C241F2268236802F03F025B0207D5C8
:100910002068C0F38810A0FB010106E0084610BD66
:100920002168C1F38811A1FB00010023FFF7A8FC97
:100930002168C1F30141491C4900B0FBF1F010BD31
:10094000083802400024F4002DE9F84F04006ED06E
:100950002078DFF83C93C007A9F104054AD009F1DB
:1009600004000168C1F38101012908D00068C0F3C7
:10097000810002280AD1D9F80000400206D5286873
:10098000800337D560680028E1D033E06068B0F5B7
:10099000803F10D0B0F5A02F286810D020F4803010
:1009A0002860286820F4802028606068A8B1FFF7DC
:1009B00003FE06460DE0286840F48030F4E740F47A
:1009C00080202860F7E700BFFFF7F6FD801B642852
:1009D00073D828688003F7D50CE0FFF7EDFD0646D5
:1009E00005E000BFFFF7E8FD801B6428F0D8286809
:1009F0008003F7D42078DFF89C8280074FF0000A4C
:100A00003ED5A348001D016811F00C0F08D0006806
:100A1000C0F3810002280BD1D9F80000400207D4AE
:100A20002868800716D5E068012800D112E02BE184
:100A3000E068B8B10120C8F80000FFF7BDFD064628
:100A400005E000BFFFF7B8FD801B0228C0D828686A
:100A50008007F7D52868216920F0F80040EAC10036
:100A600028600DE0C8F800A0FFF7A6FD064604E0E8
:100A7000FFF7A2FD801B02281FD828688007F7D443
:100A80002078000722D5824E83486169703671B1A3
:100A900001210160FFF790FD074604E0FFF78CFDA0
:100AA000C01B022809D830688007F7D50EE0C0F8CF
:100AB00000A0FFF781FD074605E082E0FFF77CFD1F
:100AC000C01B02287DD830688007F7D42078400703
:100AD00068D5DFF8BCB100270BF13C0BDBF8000058
:100AE000C0000BD4DBF8001041F08051CBF80010AF
:100AF000DBF80000012700F080500090674E30685E
:100B0000C00510D4306840F480703060FFF754FDA9
:100B1000009005E0FFF750FD0099401A022850D8D8
:100B20003068C005F6D55A4EA0686C3601280FD043
:100B30000528306810D020F001003060306820F0C7
:100B400004003060A068B8B1FFF736FD00900FE0F8
:100B5000306840F00100F4E740F004003060F7E74F
:100B6000FFF72AFD0099411A41F28830814266D888
:100B700030688007F4D50EE0FFF71EFD009007E017
:100B8000FFF71AFD0099411A41F28830814256D888
:100B900030688007F4D42FB1DBF8001021F08051C9
:100BA000CBF80010A069C8B33949091D0968C1F321
:100BB000810102294AD00228504607D0C8F86000B7
:100BC00000E03CE0FFF7F8FC04463BE04746C8F88D
:100BD0006000FFF7F1FC064605E000BFFFF7ECFC04
:100BE000801B02282BD828688001F7D4D4E907019C
:100BF0000843A16A2A4A490802EB0141626A41EAB4
:100C00008211084394F82C1040EA0161C9F80010E1
:100C100001203866FFF7D0FC044606E036E000BF4E
:100C2000FFF7CAFC001B022809D828688001F7D505
:100C30002CE000BFFFF7C0FC001B022802D90320F4
:100C4000BDE8F88F28688001F4D41FE00128F7D0B0
:100C5000D9F80000E26900F48001914214D1226ABF
:100C600000F03F0191420FD147F6C071626A014026
:100C7000914209D1A26A00F44031914204D1E16A63
:100C800000F07060884201D00120D9E70020D7E74A
:100C90000438024000004742800E47420070004086
:100CA0000000FFFF7047704710B5040003D094F8B0
:100CB0003D0010B107E0012010BD002084F83C0089
:100CC000204600F00CF8022084F83D00211D206829
:100CD00000F0F0FB012084F83D00002010BD7047BB
:100CE0000168CA6842F00102CA600068816801F0C8
:100CF0000701062903D0016841F0010101600020CD
:100D00007047704770B50446006801694FF00005F0
:100D1000C943890715D4C168C943890711D4E91E9D
:100D2000016101202077206880698007204602D079
:100D3000FFF7E7FF04E000F098F8204600F096F88F
:100D4000257720680169C943490717D4C168C94399
:100D5000490713D46FF00401016102202077206855
:100D6000806910F4407F204602D0FFF7CAFF04E0FC
:100D700000F07BF8204600F079F8257720680169BB
:100D8000C943090716D4C168C943090712D46FF0D3
:100D900008010161042020772068C069800720468F
:100DA00002D0FFF7AEFF04E000F05FF8204600F04D
:100DB0005DF8257720680169C943C90617D4C16861
:100DC000C943C90613D46FF01001016108202077D0
:100DD0002068C06910F4407F204602D0FFF791FFE1
:100DE00004E000F042F8204600F040F82577206843
:100DF0000169C943C90708D1C168C943C90704D1FA
:100E0000891E0161204600F033F820680169C9435A
:100E1000090609D4C168C943090605D46FF08001E9
:100E200001612046FFF73EFF20680169C94349067A
:100E300009D4C168C943490605D46FF04001016176
:100E4000204600F01FF820680169C94389060BD4C9
:100E5000C168C943890607D46FF0200101612046AB
:100E6000BDE87040FFF71FBF70BD704770470000BE
:100E700000680349884201D1FFF7A4BB7047000016
:100E8000000001407047704770B502680446106862
:100E9000D168536910F00F0F52D003F0010501F42F
:100EA00090762E435FD0C20705D0CA0503D5E26B0A
:100EB00042F00102E263420705D5DA0703D0E26B94
:100EC00042F00202E263820705D5DA0703D0E26B43
:100ED00042F00402E263020707D501F020022A4330
:100EE00003D0E26B42F00802E263E26B002A33D0E7
:100EF000800604D5880602D5204600F055FB206800
:100F00004069E16BC0F38010090700D428B3204684
:100F100000F03CFB2068416949061AD5416921F07F
:100F200040014161606BA0B11B490165606BFFF737
:100F300055FA002810D0606B016DBDE8704008477D
:100F4000830610D58B060ED52046BDE8704000F014
:100F50002BBB2046FFF797FF70BD2046FFF793FF9E
:100F60000020E06370BD030606D50B0604D52046BD
:100F7000BDE8704000F0F8BB4006F3D54806F1D557
:100F8000D168204621F04001D160202184F8391039
:100F900000F0D2F870BD00007D15000870B50400A7
:100FA00004D094F83900002510B106E0012070BD8E
:100FB00084F83850204600F023F8242084F83900C3
:100FC0002068C16821F40051C160204600F038FB60
:100FD0002068016921F4904101612068416921F094
:100FE0002A0141612068C16841F40051C160E56394
:100FF000202084F8390084F83A00002070BD0000F9
:1010000010B586B0044614216846FFF783F91849E5
:101010002068884229D117480021026842F0100256
:101020000260006800F01000059012481438026851
:1010300042F001020260006800F0010005904FF4E8
:10104000C06000900220CDE9010103200390072039
:10105000049069460848FFF7D3F9002205212520AE
:10106000FFF736FB2520FFF725FB06B010BD00007B
:1010700000100140443802400000024070472DE952
:10108000F843044690F839001F4616460D462028BE
:1010900050D1B5B1AEB194F8380001284AD0012042
:1010A00084F838004FF00008C4F83C80212084F810
:1010B0003900FFF781FAA6848146E68484F83880F7
:1010C00026E00120BDE8F883E08C401EE084A068A3
:1010D0004B46B0F5805F4FF000024FF08001204694
:1010E000009703D000F071FBE8B90DE000F06DFB54
:1010F000C8B928882168C0F308004860206908B191
:101100006D1C05E0AD1C03E0216815F8010B48607B
:10111000E08C0028D8D14B46002240212046009781
:1011200000F053FB08B10320CCE7202084F83900FD
:101130000020C7E70220C5E77047FEE730B59BB047
:101140000025159515A8169500F0E3FB1F4C01210D
:10115000A061179517A8189500F03EFC1C49E061A6
:101160000022D1E90001CDE91901012119A800F0FF
:101170007DFC174960611C2208316846FFF7B1F811
:101180000021684600F047FC1149A0601C22243170
:1011900007A8FFF7A6F8002107A800F03CFC0C49BF
:1011A000E0601C2240310EA8FFF79BF800210EA83A
:1011B00000F031FC206101F01FFC6060002802D0CB
:1011C00004A000F03DFB1BB030BD0000000000207B
:1011D000A43900084576656E745F48616E646C657D
:1011E00020CAC2BCFEB4B4BDA8B3C9B9A6210D0AB9
:1011F00000000000094808B5016841F08001016065
:10120000016801F080010091016841F00101016075
:10121000006800F00100009008BD00003038024076
:101220000C4810B50A4901604FF4E13141600021DA
:1012300081600C22C160C0E904128161C161FFF7C5
:10124000ADFE002803D0BDE81040FFF7C6B810BDC2
:101250000010014050070020FEE770470C4C4FF093
:10126000FF3541F288360BA000F0EAFA2946A06962
:1012700000F080FB0DA000F0E3FA304600F03DFBEB
:1012800010A000F0DDFAA06900F04CFBEBE70000D5
:1012900000000020C8CECEF131B5C8B4FDBBA5B367
:1012A000E2D0C5BAC5C1BF0A00000000C8CECEF169
:1012B00031BDD3CAD5B5BDBBA5B3E2D0C5BAC5C192
:1012C000BF0A0000C8CECEF131CACDB7C5BBA5B3A9
:1012D000E2D0C5BAC5C1BF0A0000000008B50A4C7B
:1012E0004FF0FF35012300951A468021606801F018
:1012F000D7FB0006F6D505A000F0A2FA80216068B1
:1013000001F05AFBEEE70000000000200A0DC7E5DF
:10131000BFD5C8CECEF1CAC2BCFEB1EAD6BED7E9AF
:101320000A0D0000104C4FF47A754FF0FF360FA0F5
:1013300000F086FA2946606900F0B8FB15A000F0BD
:101340007FFA3146A06900F015FB18A000F078FA8A
:101350001CA000F075FAA06900F0E4FA284600F03D
:10136000CCFA01F049FBE2E7000000200A0DBFAA19
:10137000C6F4C8EDBCFEB6A8CAB1C6F72C3173BD21
:10138000F8C8EBD2BBB4CEBBD8B5F7BAAFCAFD0A2A
:101390000D000000C8CECEF133B5C8B4FDBBA5B377
:1013A000E2D0C5BAC5C1BF0A00000000C8CECEF168
:1013B00033BDD3CAD5B5BDBBA5B3E2D0C5BAC5C18F
:1013C000BF0A0000C8CECEF133CACDB7C5BBA5B3A6
:1013D000E2D0C5BAC5C1BF0A0000000010B5502058
:1013E00080F31188BFF34F8FBFF36F8F02F0B2F815
:1013F00018B104494FF080500860002080F3118834
:1014000010BD000004ED00E030B593B03021684617
:10141000FEF780FF14210CA8FEF77CFF1948002579
:10142000016841F080510160006800F08050119027
:101430001548016841F4804101600068022400F40D
:101440008040119001200090000401908001CDE9BE
:101450000640082008904FF4A870CDE90904042044
:101460000B906846FFF770FA0F20CDE90C0480203E
:101470000E904001CDE90F0502210CA8FFF75AF9A3
:1014800013B030BD4038024000700040054801688C
:1014900041F47001016003494FF000608039086039
:1014A0007047000088ED00E00148FFF72BBC00000A
:1014B00090070020F0B50268254C264D264E274F98
:1014C000274B4FF0804CA04209D0604507D0A8427E
:1014D00005D0B04203D0B84201D0984204D122F0E6
:1014E000700E4A6842EA0E02A0421BD0604519D035
:1014F000A84217D0B04215D0B84213D0984211D0AC
:10150000184DA8420ED0184DA8420BD0174DA84236
:1015100008D0174DA84205D0164DA84202D0164D4E
:10152000A84203D122F44075CA682A434D6922F0CB
:1015300080022A4302608A68C2620A688262A0420C
:1015400001D0984201D10969016301214161F0BDD7
:10155000000001400004004000080040000C004072
:1015600000040140004001400044014000480140A7
:1015700000180040001C00400020004010B5806BA7
:101580000021C185C184FFF77EFC10BD0168CA68D7
:1015900022F49072CA6001684A6922F001024A612D
:1015A000202180F83A10704710B590F83A1022299F
:1015B00001D0022010BD8168B1F5805F11D00169B2
:1015C000002901681FD0496801F07F03816A4A1C25
:1015D00082620B70C18D491E0904090CC18518D0A7
:1015E0002BE00269816A002A0268526805D0D2B2F3
:1015F0000A80816A491C8162ECE7C2F308020A8012
:10160000816A891CF7E74A68816A4B1C83620A7009
:10161000E0E70168CA6822F02002CA600168CA686F
:1016200022F48072CA6001684A6922F001024A61AC
:10163000202180F83A10FFF721FD002010BD0000A6
:101640002DE9F041044600680169E26821F4405147
:10165000114301612169A068E2690843616911438E
:1016600008432168CA6849F20C639A430243CA607E
:1016700020684169A26921F4407111434161E06928
:10168000192764253226B0F5004F354A35492068C0
:101690004FF0000806D0884201D0904236D1FFF7C3
:1016A00013F935E0884201D0904202D1FFF70CF9DE
:1016B00001E0FFF7F9F861684A18A0FB070148EB61
:1016C0000803FEF7DDFD0146B0FBF5F00201B1FBBA
:1016D000F5F06FF01803584301EB800006EBC000F3
:1016E000B0FBF5F000F0F80002EB4002B1FBF5F0C2
:1016F000584301EB800006EBC000B0FBF5F000F0B2
:101700000700216810448860BDE8F081FFF7CCF83D
:1017100061688B0F8A00A0FB0701FEF7B1FD01464F
:10172000B0FBF5F06FF01802504301EB800006EBC0
:101730000010B0FBF5F000F0F002B1FBF5F002EBA9
:101740000012B1FBF5F06FF01803584301EB800075
:1017500006EB0010B0FBF5F000F00F00D1E7000041
:10176000001401400010014090F83910212901D0E7
:10177000022070478168B1F5805F016A0BD04A1C76
:101780000262026809785160C18C491E0904090C83
:10179000C1840ED017E009880268C1F308015160C6
:1017A00001690029016A02D0491C0162ECE7891C29
:1017B000FBE70168CA6822F08002CA600068C1685D
:1017C00041F04001C160002070472DE9F04198468A
:1017D00017460E460446069D1DE0681C1BD02DB121
:1017E000FEF7EAFEA0EB0800A84214D92068C16801
:1017F00021F4D071C1602068416921F0010141618B
:10180000202084F8390084F83A00002084F8380059
:101810000320BDE8F0812068006836EA000004D0AB
:101820000020B842D9D00020F3E70120F9E70000FA
:101830000148FFF729BB000050070020FEE7000029
:10184000014A024900F023B8B1180008A4000020A2
:101850000907090E002804DB00F1E02080F80014DD
:10186000704700F00F0000F1E02080F8141D704771
:1018700002E008C8121F08C1002AFAD17047704759
:10188000002001E001C1121F002AFBD170472DE9A1
:10189000F04116460F460446002503E03946B0479E
:1018A000641C6D1C20780028F8D12846BDE8F08122
:1018B00013B54FF6FF73012269460248FFF7DFFBBD
:1018C00000981CBD50070020EFF30580002800D0D1
:1018D00001207047FEF77EFEFFF796FDFFF78AFCBA
:1018E000FFF79EFCFFF72AFC00F00EF8FEE701462A
:1018F0000020842900D0C81C704710B500B9012011
:1019000000F0C4FE002010BD10B500F0DBFF002089
:1019100010BD41684FF0010009B101F0CAB901F0F2
:10192000BDB9000038B5002405460094FFF7CCFF90
:1019300090B16946284601F073FB012801D0FF20D1
:1019400038BD009888B10A494FF080500860BFF355
:101950004F8FBFF36F8F08E000231A4619462846C1
:1019600001F050FA012800D0FF24204638BD0000C5
:1019700004ED00E038B505004FF0000000900FD0F6
:101980000024481C0ED001B10C46FFF79DFFB8B1F2
:101990006A460021284601F02DFC012816D104E0FA
:1019A000802038BD4FF0FF34EFE7009880B109493F
:1019B0004FF080500860BFF34F8FBFF36F8F07E089
:1019C0002146284601F064FC012801D0FF2038BDE3
:1019D000002038BD04ED00E038B543684BB1012963
:1019E00009D10320002200901146012001F092F954
:1019F00038BD012901D0002038BD0322002101207B
:101A000001F064F9040004D000231A46194601F0DD
:101A1000F9F9204638BD7FB50D4604464169B0F955
:101A2000080081B1A16971B1FFF761FFD4E9051226
:101A30008DE80700D4E900102B46226901F04BFD28
:101A4000039004B070BDFFF752FF03A9CDE9000178
:101A5000208A2B4682B2D4E9001001F00FFD012844
:101A600001D00020EDE70398EBE700001CB511C89A
:101A70006CB1CDE90004012907D0002013460246CD
:101A8000012109A001F016FF1CBD0120F6E700901E
:101A9000012907D0002013460246012102A001F0CF
:101AA000EFFE1CBD0120F6E7000000002DE9FC411F
:101AB000002507462E4601950C0000D10124FFF7B2
:101AC00003FF009690B101AB22460921384601F090
:101AD00039FF012812D1019888B10A494FF080508E
:101AE0000860BFF34F8FBFF36F8F08E000232246DB
:101AF0000421384601F026FF012800D0FF252846A2
:101B0000BDE8FC8104ED00E02DE9F041184C0F46E2
:101B1000054666692068001D00F07CFC38B9206825
:101B200090F82C1001208840A1698143A161681CB4
:101B300007D137B12168BDE8F0410E48091D00F01A
:101B4000C5BC20683544B5424560216805D2A0680F
:101B5000BDE8F041091D00F0A1BC6068091D00F05E
:101B60009DFC206B854200D22563BDE8F08100001A
:101B700030000020EC0800202DE9F041054600F07F
:101B8000B1FC2E4C2069401C206120682C4F10B104
:101B9000E06940B32DE025602069012829D10026A5
:101BA00006EB860007EB800000F06AFC761C072E2F
:101BB000F6D323488C3000F063FC2148A03000F0BD
:101BC0005FFC1F48B43000F05BFC1D48C83000F0DB
:101BD00057FC1B48DC3000F053FC19488C30606027
:101BE0001430A06005E02068E96AC06A884200D825
:101BF0002560E06A401CE062E96A0120A269884031
:101C00001043A06101EB810007EB8000291D00F06B
:101C10005DFC00F087FCE06900280CD02068E96AD0
:101C2000C06A884207D207494FF080500860BFF36E
:101C30004F8FBFF36F8FBDE8F081000030000020B0
:101C40001008002004ED00E038B500F04BFC104C0B
:101C5000A068C8B90F4800F013FC0E48143000F01B
:101C60000FFC0C482060143060600A4B00202833C1
:101C7000009003F148020C210A2001F04BF8A0600B
:101C800010B105A100F0CCFCBDE8384000F04ABC22
:101C90006C00002000090020546D7251000000000B
:101CA00030B4026C0B46002A0BD0C1681144C160ED
:101CB0008468A14201D30168C16030BC1846FEF7B8
:101CC00010BB30BC70472DE9F041856B17460446C8
:101CD0000026026C82B1C7B1E068FEF702FBE16842
:101CE000206C091AE1602268914202D2A168081AA8
:101CF000E060022F16D017E02068A8B9A06801F0B4
:101D00008DFC06460020A0600EE06068FEF7E9FA50
:101D1000216C606808446060A168884204D3206830
:101D2000606001E005B16D1E6D1CA5633046BDE825
:101D3000F08110B5044690F8510058B101280CD03C
:101D400002280FD0502080F31188BFF34F8FBFF3CC
:101D50006F8FFEE7206B00F0F9FB2046BDE81040D6
:101D600000F0F4BB10BD000010484FF47051420762
:101D700006D0C01D0D4920F00700411AC1F5705171
:101D80000B4A00230144C2E900030839103A21F04C
:101D9000070111604B600B600B1AC0E900139360E0
:101DA0004FF000405360D06070470000E809002009
:101DB00090000020144E154CA6F1C8074FF0805833
:101DC000DFF84C9012E000BF00F08CFBF068C568B3
:101DD000281D00F01FFB2069401E2061E068401EA6
:101DE000E06000F09FFB2846FFF7A3FFE0680028B3
:101DF000EAD138680128F9D9C9F80080BFF34F8FBC
:101E0000BFF36F8FF2E70000D808002030000020F9
:101E100004ED00E0002807D00021816001600B463E
:101E20000A46C16000F0EEBF70470346009829B132
:101E30000260C0E90F31012100F0A0BF0060F8E7A7
:101E40002DE9F0479A46DDE9098481466FF00303E6
:101E5000206B03EB82021044089E20F007077807EE
:101E600007D0502080F31188BFF34F8FBFF36F8FDF
:101E7000FEE7002561B1002023180A5C83F83420B6
:101E80000A5C12B1401C1028F6D384F8435001E0DC
:101E900084F83450072E00D30626E662C4E91165A3
:101EA000201D00F0F8FA04F1180000F0F4FA2461A3
:101EB000C6F107006462A061E56484F850505246A0
:101EC0004946384600F090FA2060B8F1000F01D082
:101ED000C8F80040BDE8F0872DE9F0471E46DDE96F
:101EE000089417460D00804615D0002C11D0FFF73E
:101EF000ABFE04F11801C4F8008081E86002201DE7
:101F000000F0C9FA002F04D014F8240F40F00400A8
:101F10002070BDE8F087502080F31188BFF34F8F09
:101F2000BFF36F8FFEE7000030B5114900E01146A6
:101F30000A688242FBD34B685C18844203D1406834
:101F400018444860084643681C18944209D1084C5C
:101F5000103C2468A24209D052681A4442600A68C0
:101F600012680260814200D0086030BD0460F9E769
:101F70009000002070B5002441600B4D006191423B
:101F800006D8D11A8269914206D2011D686807E01D
:101F90009A4203D2994201D3012403E0011D28682B
:101FA00000F07CFA204670BD6C00002010B504469D
:101FB00000F098FAA06B28B15FF0000400F0B2FACC
:101FC000204610BD0124F9E730B587B0394D67E0F0
:101FD0000498002864DB069C606910B1201D00F0A5
:101FE00019FA03A800F0D8F8024604980A2857D234
:101FF000DFE800F00505052D334A05052D3394F87B
:10200000240040F0010084F824000599A069059B94
:1020100001442046FFF7AEFF68B3216A2046884797
:1020200094F8240040073BD5002000900598A16952
:10203000002342181946204601F084FCD8B95020EC
:1020400080F31188BFF34F8FBFF36F8FFEE714F853
:10205000240F20F00100207022E094F8240040F0CA
:10206000010084F824000598A06128B18118134666
:102070002046FFF77FFF13E0502080F31188BFF365
:102080004F8FBFF36F8FFEE794F82400810703D4CE
:10209000204600F05BFA03E020F0010084F8240001
:1020A000002204A9A86801F009F8002890D107B01F
:1020B00030BD00006C0000202DE9FC410F460546B4
:1020C00000F044FC01A800F067F80446019818B13C
:1020D00001F074FBBDE8FC81254EAFB1706800686B
:1020E000D0B30027291B3A46B06800F0ADFA01F0E2
:1020F00065FB0028EED11F494FF080500860BFF308
:102100004F8FBFF36F8FE5E7A542EBD801F056FB89
:1021100030682746C068C468201D00F07BF994F839
:102120002400410719D5A0692B4641193A4620469B
:10213000FFF720FFA8B100200346014600902A4681
:10214000204601F0FFFB60B9502080F31188BFF3F7
:102150004F8FBFF36F8FFEE707E020F0010084F898
:102160002400216A20468847B4E70127BAE7000027
:102170006C00002004ED00E006484168096829B1C0
:102180004168C968C9684968016370474FF0FF3109
:10219000FAE700003000002070B5054601F0D4F9E0
:1021A000064E04463069844203D200F009F801204B
:1021B00000E0002028602046346170BD6C000020E3
:1021C000F8B5194D20E0C068C4680668201D00F00D
:1021D00021F9216A2046884794F82400400713D546
:1021E000A0693044B04206D924616060211D28688E
:1021F00000F054F908E00020034601460090324602
:10220000204601F09FFB38B1286801680029DAD127
:102210006968C5E90010F8BD502080F31188BFF34C
:102220004F8FBFF36F8FFEE76C00002008484068B7
:10223000401C4FF0500080F3118804D0BFF34F8F43
:10224000BFF36F8FFEE7BFF34F8FBFF36F8FFEE7D4
:10225000980000200346002012B1994302D0704735
:102260000B42FCD001207047074C2068016841B147
:10227000C0680021D0F80000FFF71EFFFFF7A4FEA2
:10228000F3E701210020F7E76C0000202DE9F04181
:10229000044600F027F994F9455004F1240609E0BA
:1022A000606A48B1304601F04FFA08B100F01CFAFC
:1022B0006D1E6DB2002DF3DC4FF0FF3684F84560E3
:1022C00000F030F900F00EF994F9445004F11007D1
:1022D00009E0206948B1384601F036FA08B100F04B
:1022E00003FA6D1E6DB2002DF3DC84F84460BDE886
:1022F000F04100F017B900002DE9F0410546002734
:1023000000F024FB314E306808B9FFF72DFDF0686E
:1023100005424BD1C5B3083568070ED005F007005C
:10232000C0F108000544680707D0502080F31188E9
:10233000BFF34F8FBFF36F8FFEE72DB370688542F9
:1023400034D82248103001460C6801E020460C4683
:102350006168A94202D221680029F7D131688C4214
:1023600024D007682168016060680837411B102984
:102370000FD96019420708D0502080F31188BFF3AD
:102380004F8FBFF36F8FFEE710E041606560FFF78E
:10239000CBFD61687068401A7060B268904200D2EC
:1023A000B060F06801430020C4E9000101F006FAC2
:1023B000780707D0502080F31188BFF34F8FBFF309
:1023C0006F8FFEE73846BDE8F081000080000020F6
:1023D0000449086818B10868826C521C8264086855
:1023E000704700003000002010B5031F4FF08074CC
:1023F0001C601B1F21F001011960191F044B0B60A9
:1024000014390A60091F6FF0020244380A6010BDD7
:102410002D220008D0E9013201699A60D0E9012338
:102420005A604A68824201D182684A600022026191
:102430000868401E08600868704700000449086882
:102440000A688069D26A0968C2F107028A61704726
:1024500030000020034B036003F15400086080202B
:1024600010607047A8000020044B036003F1540083
:1024700008604FF48070106070470000FC0200207C
:1024800000F108014FF0FF32C0E90112C1600161A3
:1024900000210160704700210161704730B50B6871
:1024A0005A1C02D000F1080202E0026904E0224650
:1024B000546825689D42FAD953684B6099608A60D8
:1024C000516008610168491C016030BD42684A6082
:1024D00093688B6093685960916008610168491C3A
:1024E00001607047502080F31188BFF34F8FBFF316
:1024F0006F8F0A494868401C486001280CD1084881
:10250000006810F0FF0F07D0502080F31188BFF350
:102510004F8FBFF36F8FFEE77047000098000020D9
:1025200004ED00E00849486828B1401E486001D128
:1025300080F311887047502080F31188BFF34F8FCC
:10254000BFF36F8FFEE700009800002070B50028F1
:1025500027D0144DA0F108046168E868014207D152
:10256000502080F31188BFF34F8FBFF36F8FFEE7CA
:1025700022683AB1502080F31188BFF34F8FBFF328
:102580006F8FFEE78143616000F0E0F96068696881
:10259000084468602046FFF7C7FCBDE8704001F0C2
:1025A0000DB970BD800000204FF0E02000210161D6
:1025B000816105494FF47A720968B1FBF2F1491E55
:1025C00041610721016170472C00002010B5FDF723
:1025D00041FE114910280ED300F1E02090F8F003DD
:1025E0000A78904207D2502080F31188BFF34F8FB2
:1025F000BFF36F8FFEE709480068896800F4E06068
:10260000884207D9502080F31188BFF34F8FBFF362
:102610006F8FFEE710BD0000980000200CED00E079
:1026200010B5084B002200BF53F832401CB1521CB9
:10263000082AF9D310BD43F8321003EBC2014860F9
:1026400010BD0000D007002070B515460E460446A8
:10265000FFF748FF94F944100020491C01D184F889
:10266000440094F94510491C01D184F84500FFF756
:1026700059FFA06B28B92A46314604F1240000F026
:1026800051F82046BDE87040FFF700BE10B50200CB
:1026900014D00F48806B38B1502080F31188BFF3FD
:1026A0004F8FBFF36F8FFEE700F050F90021104607
:1026B000FFF72AFA01F082F8002807D105494FF008
:1026C00080500860BFF34F8FBFF36F8F10BD0000C5
:1026D0003000002004ED00E002498A6A0260496986
:1026E0004160704730000020014901204862704776
:1026F0003000002010B50C4650B109490968183166
:10270000FFF7CCFE2046BDE810400121FFF7FCB9E1
:10271000502080F31188BFF34F8FBFF36F8FFEE718
:102720003000002070B514460D4668B10A490968AA
:102730001831FFF7CBFE0CB14FF0FF35214628468C
:10274000BDE87040FFF7E0B9502080F31188BFF377
:102750004F8FBFF36F8FFEE73000002010B5144697
:10276000030011D01048826BB2B1026841F0004101
:102770009161016818461831FFF7A8FE2046BDE8B0
:1027800010400121FFF7C0B9502080F31188BFF33A
:102790004F8FBFF36F8FFEE7502080F31188BFF398
:1027A0004F8FBFF36F8FFEE73000002070B504003D
:1027B0004BD0A26CA2B1606C884200D30146E06AA3
:1027C000884242D0012A40D1204D2A6894420FD13C
:1027D000502080F31188BFF34F8FBFF36F8FFEE758
:1027E000502080F31188BFF34F8FBFF36F8FFEE748
:1027F000E162A269002A02DBC1F10701A161144E66
:1028000000EB8000616906EB800081421DD1201D34
:10281000FFF700FE012150B9E06A00EB800256F894
:10282000222022B9AA6901FA00F08243AA61E06A73
:10283000AA6981401143A96100EB800006EB80008A
:10284000211DBDE87040FFF741BE70BD3000002083
:102850001008002070B5194EB26BFAB141F000417A
:102860000160C46814B3FFF7D5FD201DFFF7D2FD4A
:10287000E16A0125B26905FA01F01043B06101EB8C
:1028800081000F4901EB8000211DFFF71FFEE06A68
:102890003168C96A884200D9756270BD502080F3E2
:1028A0001188BFF34F8FBFF36F8FFEE7502080F387
:1028B0001188BFF34F8FBFF36F8FFEE7300000200A
:1028C0001008002030B587B00024039405AA04A99D
:1028D00003A80494FFF7BEFDDDE903010094CDE9F0
:1028E0000110002315A11748059A00F0F4FD164DBC
:1028F000002868631FD000F0F5FF012809D0401CB4
:1029000019D1502080F31188BFF34F8FBFF36F8F21
:10291000FEE7502080F31188BFF34F8FBFF36F8F16
:102920004FF0FF3028630120E8616C6107B0BDE81B
:10293000304000F039B907B030BD000049444C4583
:1029400000000000B51D0008300000200248816B27
:10295000491C816370470000300000201448816BDF
:1029600011B1012141627047002141628169B1FAD0
:1029700081F1C1F11F0101EB81020E4951F82230B2
:102980006BB101EB820101F108034A6852684A60A9
:102990009A4201D152684A60D16801607047502064
:1029A00080F31188BFF34F8FBFF36F8FFEE70000F6
:1029B000300000201008002070B50E46040009D039
:1029C000300E0FD0502080F31188BFF34F8FBFF32C
:1029D0006F8FFEE7502080F31188BFF34F8FBFF356
:1029E0006F8FFEE7FFF77EFD256825EA0600206071
:1029F000FFF798FD284670BD70B51C20FFF77CFCE2
:102A0000040005D00025201D2560FFF739FD25763F
:102A1000204670BD2DE9F0410027884604000AD009
:102A20005FEA18600FD0502080F31188BFF34F8FFA
:102A3000BFF36F8FFEE7502080F31188BFF34F8FF5
:102A4000BFF36F8FFEE7261D04F10C05FFF77EFF35
:102A50002168F06841EA0801216017E0D0E900161A
:102A600001F07F425301236821F07F4102D40B42E1
:102A700003D10AE031EA030307D1D20100D50F43A5
:102A8000216841F00071FFF7E5FE3046A842E5D12C
:102A90002068B843206000F091FE2068BDE8F08116
:102AA0002DE9F0479A46DDF8209090460D46040047
:102AB0004FF0000709D0280E0FD0502080F3118866
:102AC000BFF34F8FBFF36F8FFEE7502080F3118865
:102AD000BFF34F8FBFF36F8FFEE71DB100F026FDF0
:102AE00040B112E0502080F31188BFF34F8FBFF345
:102AF0006F8FFEE7B9F1000F07D0502080F31188E7
:102B0000BFF34F8FBFF36F8FFEE7FFF71FFF2668FE
:102B1000524629463046FFF79DFB30B1B8F1000F11
:102B20001AD02068A843206016E0B9F1000F13D036
:102B3000B8F1000F01D04FF08077BAF1000F01D04B
:102B400047F0806745EA07014A46201DFFF706FE69
:102B500000F034FE18B10AE000F030FE1FE0114929
:102B60004FF080500860BFF34F8FBFF36F8FFFF7B8
:102B700065FC0646800110D4FFF7B4FC2668524677
:102B800029463046FFF766FB28B1B8F1000F02D0A6
:102B90002068A8432060FFF7C5FC26F07F4630463A
:102BA000BDE8F08704ED00E01CB537480168374AFE
:102BB000914207D1502080F31188BFF34F8FBFF3AC
:102BC0006F8FFEE700683149491E884207D15020C7
:102BD00080F31188BFF34F8FBFF36F8FFEE72C494F
:102BE00008780190FF20087008788DF800009DF8A3
:102BF00000009DF8002000F0F000904207D0502027
:102C000080F31188BFF34F8FBFF36F8FFEE79DF8FE
:102C10000000204B00F0500018700720986005E07D
:102C20009DF8002052008DF80020401E9DF80020E5
:102C30001206F5D49860032807D0502080F311883D
:102C4000BFF34F8FBFF36F8FFEE74FF44070986074
:102C5000019808700C482030016841F4700101604F
:102C6000016841F070410160FFF79EFC0020586050
:102C7000FDF7B8FA0848016841F040410160FDF7EE
:102C80009DFA00201CBD000000ED00E071C20F4164
:102C900000E400E09800002034EF00E010B50246A8
:102CA0000021012000F012F80446FFF7B3F8204697
:102CB00010BD38B50B46002200901146012000F0EF
:102CC00029F80446FFF7A6F8204638BDF8B51746A0
:102CD0000E46050014D0DEB105FB06F04830FFF7C4
:102CE0000BFB04000AD0002084F8460004F14802DF
:102CF0003B46314628460094FFF797F82046F8BD3A
:102D0000502080F31188BFF34F8FBFF36F8FFEE722
:102D10000020E3E738B5049D18B153B1CAB181B1C1
:102D200020E0502080F31188BFF34F8FBFF36F8FE7
:102D3000FEE7502080F31188BFF34F8FBFF36F8FF2
:102D4000FEE7502080F31188BFF34F8FBFF36F8FE2
:102D5000FEE739B1502080F31188BFF34F8FBFF3E6
:102D60006F8FFEE748241C46012384F846302B462B
:102D70000094FFF75AF8204638BD000070B50D46A4
:102D8000040025D0FFF7AEFBD4E90F20216802FB39
:102D90000011A1600021A163216861600A46D4E9A5
:102DA0000F01401E00FB0121E16021464FF0FF3082
:102DB00001F8440F487004F110008DB1FFF760FB7B
:102DC00004F12400FFF75CFBFFF7ACFB012070BDB2
:102DD000502080F31188BFF34F8FBFF36F8FFEE752
:102DE00021690029F0D000F0AFFC0028ECD00449A4
:102DF0004FF080500860BFF34F8FBFF36F8FE3E752
:102E000004ED00E02DE9FF4782B01D468A464FF0F1
:102E10000008040003D0BAF1000F08D011E05020E0
:102E200080F31188BFF34F8FBFF36F8FFEE7206CE5
:102E300038B1502080F31188BFF34F8FBFF36F8FED
:102E4000FEE7022D0AD1E06B012807D0502080F365
:102E50001188BFF34F8FBFF36F8FFEE700F066FB63
:102E60003F4F4FF000094FF0805648B9049838B1F1
:102E7000502080F31188BFF34F8FBFF36F8FFEE7B1
:102E8000FFF730FBA06BE16B884207D3022D05D022
:102E90000498D0B1B8F1000F1AD01EE02A4651466E
:102EA0002046FEF710FF616A19B104F1240000F01A
:102EB0004BFC20B13E60BFF34F8FBFF36F8FFFF726
:102EC00031FB012006B0BDE8F087FFF72BFB22E0C5
:102ED0006846FFF701FC4FF00108FFF723FBFFF7FF
:102EE00035FDFFF7FFFA94F94400401C01D184F846
:102EF000449094F94500401C01D184F84590FFF7B7
:102F000011FB04A9684600F07FFA30B12046FFF7B4
:102F1000BDF900F053FC0020D4E7FFF7E3FAA06B03
:102F2000E16B884213D1FFF7FDFA04F11000049918
:102F3000FFF7E0FB2046FFF7A9F900F03FFC00286F
:102F40009ED13E60BFF34F8FBFF36F8F98E7FFF7BF
:102F5000E9FA2046FFF79AF900F030FC90E700000C
:102F600004ED00E02DE9F0471F4690468946040035
:102F700003D0B9F1000F08D011E0502080F3118880
:102F8000BFF34F8FBFF36F8FFEE7206C38B1502037
:102F900080F31188BFF34F8FBFF36F8FFEE7022FCF
:102FA0000AD1E06B012807D0502080F31188BFF3CD
:102FB0004F8FBFF36F8FFEE7FFF708FB5020EFF353
:102FC000118680F31188BFF34F8FBFF36F8FA06B13
:102FD000E16B884206D3022F04D0002086F31188CB
:102FE000BDE8F08794F945503A4649462046FEF739
:102FF0006AFE681C04D06D1C84F845500120EDE782
:10300000606A0028FAD004F1240000F09DFB00283B
:10301000F4D0B8F1000FF1D00121C8F80010EDE7AD
:1030200070B50E46040009D0206C78B1502080F3B2
:103030001188BFF34F8FBFF36F8FFEE7502080F3EF
:103040001188BFF34F8FBFF36F8FFEE7206848B939
:10305000A06838B1502080F31188BFF34F8FBFF3C1
:103060006F8FFEE7FFF7B2FA5020EFF3118580F380
:103070001188BFF34F8FBFF36F8FA16BE06B884256
:1030800018D994F94500491CA163411C04D0401C87
:1030900084F8450001200EE0606A0028FAD004F1AF
:1030A000240000F051FB0028F4D0002EF2D00120C3
:1030B0003060EFE7002085F3118870BD2DE9F747F8
:1030C000002683B08A46040003D0BAF1000F08D06E
:1030D00011E0502080F31188BFF34F8FBFF36F8F43
:1030E000FEE7206C38B1502080F31188BFF34F8F7A
:1030F000BFF36F8FFEE700F019FADFF8F4804FF0AE
:1031000000094FF0805748B9059838B1502080F336
:103110001188BFF34F8FBFF36F8FFEE7FFF7E2F920
:10312000A56BC5B151462046FEF7BAFD6D1EA563DD
:10313000206950B104F1100000F006FB28B1C8F876
:103140000070BFF34F8FBFF36F8FFFF7EBF90120D4
:1031500006B0BDE8F087059808B11EB106E0FFF79C
:10316000E1F927E06846FFF7B7FA0126FFF7DAF939
:10317000FFF7ECFBFFF7B6F994F94400401C01D1CE
:1031800084F8449094F94500401C01D184F845909E
:10319000FFF7C8F905A9684600F036F9002820466F
:1031A0000AD0FFF773F800F009FB2046FEF7FEFE99
:1031B0000028B3D00020CBE7FEF7F8FE90B104F171
:1031C00024000599FFF796FA2046FFF75FF800F014
:1031D000F5FA0028A2D1C8F80070BFF34F8FBFF3F3
:1031E0006F8F9BE72046FFF751F800F0E7FA95E76D
:1031F00004ED00E02DE9F04790468946040003D035
:10320000B9F1000F08D011E0502080F31188BFF30E
:103210004F8FBFF36F8FFEE7206C38B1502080F3E3
:103220001188BFF34F8FBFF36F8FFEE7FFF7CEF923
:103230005020EFF3118680F31188BFF34F8FBFF357
:103240006F8FA76BF7B194F9445049462046FEF7BB
:1032500027FD7F1EA763681C04D06D1C84F84450B2
:10326000012010E020690028FAD004F1100000F0DD
:103270006BFA0028F4D0B8F1000FF1D00121C8F8A2
:103280000010EDE7002086F31188BDE8F08700000C
:103290002DE9F343002683B00400354609D0206CA5
:1032A00078B1502080F31188BFF34F8FBFF36F8F39
:1032B000FEE7502080F31188BFF34F8FBFF36F8F6D
:1032C000FEE700F033F9DFF83C814FF000094FF0E2
:1032D000805748B9049838B1502080F31188BFF363
:1032E0004F8FBFF36F8FFEE7FFF7FCF8A06BC8B1FD
:1032F000401EA063206810B9FFF76AF8A06020693B
:1033000050B104F1100000F01FFA28B1C8F80070A5
:10331000BFF34F8FBFF36F8FFFF704F9012005B0A4
:10332000BDE8F083049808B166B10FE03DB15020CC
:1033300080F31188BFF34F8FBFF36F8FFEE7FFF766
:10334000F1F85DE06846FFF7C7F90126FFF7EAF8F4
:10335000FFF7FCFAFFF7C6F894F94400401C01D1CE
:1033600084F8449094F94500401C01D184F84590BC
:10337000FFF7D8F804A9684600F046F80028204670
:1033800012D0FEF783FF00F019FA2046FEF70EFE7A
:103390000028A9D09DB3FFF7A5F8606A50B3206B51
:1033A0000068C0F1070126E0FEF700FEE0B12068EA
:1033B00038B9FFF797F8A06800F07CF90546FFF7E9
:1033C000B1F804F124000499FFF794F92046FEF7C0
:1033D0005DFF00F0F3F9002886D1C8F80070BFF354
:1033E0004F8FBFF36F8F7FE72046FEF74FFF00F050
:1033F000E5F979E70021A068FFF7D8F99FE7FFE733
:1034000000208CE704ED00E02DE9F0410C460500BA
:1034100011D0C4B1FFF766F8174B5A696E6820687F
:10342000911B471C17D02F689B6A9F4219D0964268
:1034300017D8012410E0502080F31188BFF34F8F7C
:10344000BFF36F8FFEE7502080F31188BFF34F8FDB
:10345000BFF36F8FFEE70024FFF764F82046BDE856
:10346000F081884205D9401A20602846FFF734F9D8
:10347000F1E700202060DCE7300000202DE9FF5F4D
:103480008346DDE90E87994616468A469000FEF788
:1034900033FF05001CD05420FEF72EFF040014D08B
:1034A0000020256384F85100CDE90240CDE9008772
:1034B0004B46324651465846FEF7C2FC2046FEF7C0
:1034C0005BFB012004B0BDE8F09F2846FFF73EF803
:1034D0004FF0FF30F6E7F0B585B0DDE90B640A9DEB
:1034E000A6B1DCB1542700972663022684F8516008
:1034F000002604AFCDE90246CDE90057FEF7A0FC57
:103500002046FEF739FB049805B0F0BD502080F34B
:103510001188BFF34F8FBFF36F8FFEE7502080F30A
:103520001188BFF34F8FBFF36F8FFEE70548C16966
:1035300019B1806B18B1002070470120704702203C
:1035400070470000300000200148406970470000CB
:10355000300000202DE9F0412E4C0027A06B40B137
:10356000206A401C2062606A00B101273846BDE82D
:10357000F0816669761C666113D16068006838B1B5
:10358000502080F31188BFF34F8FBFF36F8FFEE79A
:103590006068A1686160A060A06A401CA062FEF73C
:1035A000EBFD206BDFF87080864209D3606800680D
:1035B00080B16068C068C568686886420DD22063C3
:1035C0002068C06A00EB800158F821000128CAD9A0
:1035D0000127C8E74FF0FF30F1E7281DFEF71AFF7B
:1035E000A86A18B105F11800FEF714FFE86A012176
:1035F000A26981401143A16100EB800108EB8100C9
:10360000291DFEF763FFE86A2168C96A8842CDD3A5
:103610000127CBE7300000201008002070B504001F
:103620004FF0000140D0214D2868844207D050203F
:1036300080F31188BFF34F8FBFF36F8FFEE7A06C4D
:1036400038B1401EA064636CE26A9A422CD040B14B
:103650002AE0502080F31188BFF34F8FBFF36F8FA4
:10366000FEE7201DFEF7D6FE114A012150B9E06A9F
:1036700000EB800352F8233023B9AB6901FA00F064
:103680008343AB61606CE062C0F10700A061E06A57
:10369000AB6981401943A96100EB800002EB800017
:1036A000211DFEF713FF0121084670BD30000020E8
:1036B0001008002070B504004FF0000038D0204DF5
:1036C000E16A2A68D26A914233D2A069002804DBF9
:1036D0002868C06AC0F10700A0611A4E01EB8101A1
:1036E000606906EB810188421ED1201DFEF792FE23
:1036F000012150B9E06A00EB800256F8222022B97D
:10370000AA6901FA00F08243AA612868C06AE062EF
:10371000AA6981401143A96100EB800006EB80009B
:10372000211DFEF7D3FE02E02868C06AE062012096
:1037300070BD616C2A68D26A9142F8D370BD0000F6
:1037400030000020100800202DE9F041C068C46856
:10375000ACB104F118000746FEF75CFE154DA86BEE
:103760000126A0B139461448FEF7B0FEE06A296888
:10377000C96A88421CD901206E62BDE8F0815020E0
:1037800080F31188BFF34F8FBFF36F8FFEE7201DCB
:10379000FEF740FEE16AAA6906FA01F01043A8614B
:1037A00001EB81000449B43901EB8000211DDBE706
:1037B0000020E2E730000020C40800202DE9F04797
:1037C0002C4D00242746A86B38B1FEF78BFEA86B62
:1037D000401EA863A86B40B146E0502080F31188DA
:1037E000BFF34F8FBFF36F8FFEE72969224E012091
:1037F000D1B3A6F1B40980463068E8B1F068C46876
:1038000004F11800FEF706FE201DFEF703FEE06A35
:10381000AA6908FA00F11143A96100EB800109EBE4
:103820008100211DFEF752FEE06A2968C96A8842BC
:10383000E2D3C5F82480DFE70CB1FEF79DFC2C6ACB
:1038400044B14646FFF786FE00B16E62641EF9D1B0
:1038500000202862686A38B10849012738070860E3
:10386000BFF34F8FBFF36F8FFEF75CFE3846BDE8A6
:10387000F087000030000020C408002004ED00E0C4
:103880002DE9FC4781461E461746884628200A9D9A
:10389000FEF732FD04000AD0002084F82400CDE9B0
:1038A000005433463A4641464846FEF715FB20464B
:1038B000BDE8FC877CB52826DDE90654009644B1B6
:1038C000022684F82460CDE90054FEF705FB20466B
:1038D0007CBD502080F31188BFF34F8FBFF36F8FF3
:1038E000FEE7000010B586B0FEF7AEF9114CA068F7
:1038F000B8B100200390049005AA04A903A8FEF71C
:10390000B3FDDDE9032105208DE8070000230AA1AE
:103910000B48059AFFF7DFFDE06010B106B001200B
:1039200010BD502080F31188BFF34F8FBFF36F8F0E
:10393000FEE700006C000020546D72205376630097
:1039400069220008FEB51E4613460200089D4FF08E
:10395000000014D0124CA768002F0FD0CDE900133F
:103960000292062915DAFFF7E1FD02284FF0000365
:103970000DD000226946A068FFF744FAFEBD502032
:1039800080F31188BFF34F8FBFF36F8FFEE72A4696
:10399000F0E70023324669463846FFF7E3FAFEBDFA
:1039A0006C0000209103000800000000303A00087D
:1039B0005D1200080000000000000000000200008E
:1039C0000000000000000000183A0008DD120008A6
:1039D00001000000000000000002000000000000E4
:1039E00000000000243A000825130008020000002F
:1039F00000000000000200000000000000000000C5
:103A0000000000000000000001020304060708098E
:103A100000000000010203046D795461736B3032C1
:103A2000000000006D795461736B303300000000BA
:103A300064656661756C745461736B005C3A000870
:103A400000000020A800000070180008043B0008D7
:103A5000A800002040490000801800080000000075
:103A60000000000000000000000000000000000056
:103A70000000000000000000000000000100000045
:103A800010000000000000000024F400000000000E
:103A90000000000000000000000000000000000026
:103AA0000000000000000000000000000000000016
:103AB0000000000000000000000000000000000006
:103AC00000000000000000000000000000000000F6
:103AD00000000000000000000000000000000000E6
:103AE00000000000000000000000000000000000D6
:103AF0000000000000000000AAAAAAAA000000001E
:043B000000000000C1
:040000050800018965
:00000001FF
