:020000040800F2
:10000000B00600209D01000853160008CB1100081F
:1000100051160008C50200088918000800000000F9
:10002000000000000000000000000000571600085B
:10003000C702000800000000551600085916000805
:10004000B7010008B7010008B7010008B7010008B0
:10005000B7010008B7010008B7010008B7010008A0
:10006000B7010008B7010008B7010008B701000890
:10007000B7010008B7010008B7010008B701000880
:10008000B7010008B7010008B7010008B701000870
:10009000B7010008B7010008B7010008B701000860
:1000A000B7010008B7010008B7010008B701000850
:1000B000B7010008B7010008B7010008B701000840
:1000C000B7010008B7010008B7010008B701000830
:1000D000B7010008B7010008B7010008B701000820
:1000E000B7010008B7010008B7010008B701000810
:1000F000B7010008B7010008B7010008B701000800
:10010000B7010008B7010008B7010008B7010008EF
:10011000B7010008B7010008B7010008B7010008DF
:10012000B7010008B7010008B7010008B7010008CF
:10013000B7010008B7010008B7010008B7010008BF
:10014000B7010008B7010008B7010008B7010008AF
:10015000B7010008B7010008B7010008B70100089F
:10016000B7010008B7010008B7010008B70100088F
:10017000B7010008B7010008B7010008000000003F
:10018000B7010008B7010008DFF80CD000F088F8CC
:1001900000480047691D0008B00600200648804757
:1001A00006480047FEE7FEE7FEE7FEE7FEE7FEE75C
:1001B000FEE7FEE7FEE7FEE7E1160008890100081A
:1001C0002DE9F05F0546002092469B46884606468C
:1001D000814640241BE0284641464746224600F01F
:1001E0004EF853465A46C01A914110D3114618464C
:1001F000224600F035F82D1A67EB01084F462246DB
:100200000120002100F02CF817EB00094E41201EC0
:10021000A4F10104DFDC484631462A464346BDE8E6
:10022000F09FD2B201E000F8012B491EFBD27047CB
:100230000022F6E710B513460A4604461946FFF7B2
:10024000F0FF204610BD30B504460020034600E014
:100250005B1C934203D2E05CCD5C401BF8D030BD08
:10026000202A04DB203A00FA02F100207047914076
:10027000C2F1200320FA03F3194390407047202A6B
:1002800004DB203A21FA02F00021704721FA02F340
:10029000D040C2F120029140084319467047000047
:1002A000064C074D06E0E06840F0010394E80700C3
:1002B00098471034AC42F6D3FFF76AFF781E000867
:1002C000981E0008FEE770477047000070B50446AE
:1002D00000F0EAF80546601C02D0044800780444A7
:1002E00000F0E2F8401BA042FAD370BD04000020E9
:1002F0002DE9F84F00224FF0010803254FF00F0EB3
:100300000B6808FA02F42340A3426ED14E68012E16
:1003100005D0022E03D0112E01D0122E12D18668E4
:100320004FEA420C05FA0CF7BE43CF6807FA0CF708
:10033000374387604668A6430C79C4F300149440A1
:1003400034434460C668570005FA07FC8C6826EA07
:100350000C06BC403443C4604C68022C01D0122C03
:1003600013D1D40800EB8404A346D4F8209054079A
:100370004FEAD46A0EFA0AF629EA06090E6906FA65
:100380000AF646EA0906CBF8206006680C7926EAE8
:100390000C0604F00304BC40344304604C68E400E1
:1003A00065D5364C266846F480462660246822F0DF
:1003B000030604F480440094314C3444A446D4F839
:1003C00008489607370F0EFA07F6B4432D4EB04291
:1003D00001D1002624E02C4EB04201D101261FE0BD
:1003E0002A4EB04202D102261AE040E0284EB04226
:1003F00001D1032614E0274EB04201D104260FE0BC
:10040000254EB04201D105260AE0244EB04201D16A
:10041000062605E0224EB04201D1072600E008265C
:10042000BE402643CCF808681E4E34684F689C4393
:10043000FF0300D51C4334601A4C241D26684F6806
:100440009E43BF0300D51E432660164E083634680F
:100450004F689C43FF0200D51C433460114E0C369C
:1004600034684F689C43BF0200D51C433460521C63
:10047000102AFFF445AFBDE8F88F00004438024071
:100480000030014000000240000402400008024029
:10049000000C02400010024000140240001802400C
:1004A000001C0240003C0140014880687047000089
:1004B0000400002070B5040025D094F83D0000250C
:1004C00020B984F83C50204600F04CFA242084F8EF
:1004D0003D002068016821F0010101602068016889
:1004E00041F4004101602068016821F4004101608D
:1004F00000F094FB4D4A6168914201D84C4900E0FC
:100500004C49884201D2012070BD4B492368B0FBA1
:10051000F1F15E6826F03F060E435E606368934229
:1005200006D94FF4967359434FF47A73B1FBF3F144
:100530002368491C1E6A26F03F0631431962616830
:10054000914210D84900401EB0FBF1F2521CC2F398
:100550000B02042A01D2042022E0B0FBF1F0401C7F
:10056000C0F30B001CE0A268F2B301EBC10303EB84
:100570000116431EB3FBF6F35B1C43F480431B05DB
:1005800049D092B301EBC10202EB0111401EB0FB56
:10059000F1F0401CC0F30B0040F4804040F40040F8
:1005A0002168CA694CF6FF739A431043C861D4E9C5
:1005B000071001432068026822F0C0021143016065
:1005C000D4E9030101432068826848F2FF339A436B
:1005D00011438160D4E9050108432168CA6822F00B
:1005E000FF021043C86001E00EE016E020680168D9
:1005F00041F0010101602564202084F83D0025635D
:1006000084F83E50002070BD01EB4106431EB3FB51
:10061000F6F35B1CB3E70120C2E701EB4101401E8A
:10062000B0FBF1F0401CC0F30B00B7E7A08601005F
:1006300080841E0000093D0040420F002DE9FF4F5D
:1006400083B09A46DDE9119793460446DDF8408071
:10065000FFF72AFF054694F83D00202870D11923A2
:10066000012271492046009500F0C0FE0028F5D116
:1006700094F83C00012863D0012084F83C002068F5
:100680000168C90703D1016841F0010101602068D8
:10069000016821F400610160222084F83D004020BF
:1006A00084F83E0000262664C4F82480A4F82A902A
:1006B000608D20855D48E062CDE9007553465A465D
:1006C0002046049900F09AFD00287CD1208DD0B1FD
:1006D000012821D00228206824D041698069009037
:1006E000208D032869D801282BD0514902283B4688
:1006F0004FF00002009559D08846204600F076FE63
:10070000002860D13CE0206841698169009101685E
:1007100041F40071016077E02068016821F4806194
:100720000160F0E7016821F48061016020680168E0
:1007300041F400610160206841698069009063E0D4
:100740006FE02A463946204600F0CFFE98BB20686D
:100750000069616A08704EE02068016841F4007128
:10076000016020680069616A0870606A401C60620C
:10077000218D491E2185618D491E6185216838E0E2
:100780002068016821F48061016020680069616A65
:100790000870606A401C6062208D401E2085608D5C
:1007A000401E60853B46002241460095204600F0F1
:1007B0001DFE00B9D0E706E0FFE72A46394620468D
:1007C00000F093FE18B1012007B0BDE8F08F20685B
:1007D0000069616A0870606A401C6062218D491E70
:1007E0002185618D491E618521684A69D24352077E
:1007F0000AD409690170606A401C6062208D401E45
:100800002085608D401E6085208D00287FF468AFB4
:10081000202084F83D0084F83E6084F83C6000208D
:10082000D2E70220D0E70000020010000000FFFF26
:10083000040001002DE9FF4F83B09A46DDE91197CE
:1008400093460446DDF84080FFF72EFE054694F8F7
:100850003D0020287FD119230122404920460095E0
:1008600000F0C4FD002876D194F83C00012872D035
:10087000012084F83C0020680168C90703D10168A1
:1008800041F0010101602068016821F4006101600C
:10089000212084F83D00402084F83E000026266494
:1008A000C4F82480A4F82A90608D20852C48E0624A
:1008B000CDE9007553465A462046049900F01CFDC8
:1008C00070B930E02A463946204600F041FE58B162
:1008D000206C042804D12068016841F40071016093
:1008E000012007B0BDE8F08F606A216800780861D8
:1008F000606A401C6062218D491E89B22185628D2B
:10090000521E628522685369DB435B070BD469B1D1
:1009100000781061606A401C6062208D401E208556
:10092000608D401E6085208D0028CBD12A46394637
:10093000204600F035FD0028CAD154F83D0B01686F
:1009400041F400710160202004F81E09E677667703
:100950000020C6E7FFE70220C3E700000200100006
:100960000000FFFF10B586B0044614216846FFF76B
:100970005FFC14492068884221D11348016841F086
:10098000020101600068694600F0020005904FF422
:1009900040700090122001900120029003200390EB
:1009A000042004900948FFF7A3FC074810300168B1
:1009B00041F400110160006800F40010059006B0D9
:1009C00010BD0000005400403038024000040240D6
:1009D0000248816802781144816070470400002059
:1009E0000B4810B5016841F400710160016841F4E1
:1009F00080610160016841F480710160032000F0B2
:100A000061F8002000F006F800F024F8002010BD86
:100A1000003C024070B50D4D04464FF47A712878C1
:100A2000B1FBF0F00A490968B1FBF0F000F0F4FA0C
:100A300048B9102C07D200222146501E00F022F89F
:100A400000206C6070BD012070BD0000040000201B
:100A5000100000200A4808B5016841F48041016097
:100A6000006800F4804000900548001F016841F0D4
:100A700080510160006800F08050009008BD0000C7
:100A800044380240F0B40E4B1B680C46C3F30223FB
:100A9000C3F10705042D00D90425191D072901D22A
:100AA000002300E0DB1E012606FA05F1491E214065
:100AB00099409E40761E16403143F0BC00F0F6BED1
:100AC0000CED00E0064900F0070208684FF6FF034E
:100AD000184040EA0220034A1043086070470000B3
:100AE0000CED00E00000FA052DE9F0470E46050088
:100AF00065D0DFF81481D8F80000F7B200F00F00DD
:100B0000B04207D288F80070D8F8000000F00F005B
:100B1000B04254D128683D4C810712D5400703D517
:100B2000206840F4E05020602878000703D5206852
:100B300040F4604020602068A96820F0F00008437D
:100B400020602878C0072DD030496868083901280E
:100B500012D0022813D0032811D009688907002970
:100B60002DDA216821F0030101432160FFF79CFC8D
:100B7000814641F2883A0EE009688903EFE7096887
:100B80008901ECE7FFF790FCA0EB0901514502D980
:100B90000320BDE8F0872068696800F00C00B0EB26
:100BA000810FEFD1D8F80010404601F00F01B1429B
:100BB00007D90770006800F00F00B04201D0012093
:100BC000E7E72878400705D52068E96820F4E05079
:100BD000084320602878000706D52068296920F49A
:100BE000604040EAC100206000F038F82168084AFF
:100BF000C1F30311515CC84006490860064800680B
:100C0000FFF708FF0020C4E7003C0240083802401C
:100C1000601E00081000002008000020044805495C
:100C200000680968044AC1F38221515CC8407047DA
:100C30001000002008380240701E000804480549D2
:100C400000680968044AC1F34231515CC8407047EA
:100C50001000002008380240701E0008154810B52A
:100C6000006810F00C02144813D04110042A0FD071
:100C7000082A0ED10F4C241F2268236802F03F027D
:100C80005B0207D52068C0F38810A0FB010106E0D5
:100C9000084610BD2168C1F38811A1FB00010023A3
:100CA000FFF78EFA2168C1F30141491C4900B0FBEE
:100CB000F1F010BD083802400024F4002DE9F84F8F
:100CC00004006ED02078DFF83C93C007A9F104053A
:100CD0004AD009F104000168C1F38101012908D05B
:100CE0000068C0F3810002280AD1D9F80000400250
:100CF00006D52868800337D560680028E1D033E046
:100D00006068B0F5803F10D0B0F5A02F286810D0F3
:100D100020F480302860286820F4802028606068F3
:100D2000A8B1FFF7C1FB06460DE0286840F480300B
:100D3000F4E740F480202860F7E700BFFFF7B4FB3A
:100D4000801B642873D828688003F7D50CE0FFF770
:100D5000ABFB064605E000BFFFF7A6FB801B64283F
:100D6000F0D828688003F7D42078DFF89C828007C9
:100D70004FF0000A3ED5A348001D016811F00C0F8A
:100D800008D00068C0F3810002280BD1D9F8000018
:100D9000400207D42868800716D5E068012800D1F2
:100DA00012E02BE1E068B8B10120C8F80000FFF7BD
:100DB0007BFB064605E000BFFFF776FB801B0228A1
:100DC000C0D828688007F7D52868216920F0F80086
:100DD00040EAC10028600DE0C8F800A0FFF764FBFE
:100DE000064604E0FFF760FB801B02281FD8286836
:100DF0008007F7D42078000722D5824E83486169A6
:100E0000703671B101210160FFF74EFB074604E027
:100E1000FFF74AFBC01B022809D830688007F7D5C6
:100E20000EE0C0F800A0FFF73FFB074605E082E0B8
:100E3000FFF73AFBC01B02287DD830688007F7D443
:100E40002078400768D5DFF8BCB100270BF13C0BD8
:100E5000DBF80000C0000BD4DBF8001041F080513B
:100E6000CBF80010DBF80000012700F08050009064
:100E7000674E3068C00510D4306840F48070306030
:100E8000FFF712FB009005E0FFF70EFB0099401AF8
:100E9000022850D83068C005F6D55A4EA0686C3686
:100EA00001280FD00528306810D020F001003060F4
:100EB000306820F004003060A068B8B1FFF7F4FAA1
:100EC00000900FE0306840F00100F4E740F00400CB
:100ED0003060F7E7FFF7E8FA0099411A41F28830ED
:100EE000814266D830688007F4D50EE0FFF7DCFA5F
:100EF000009007E0FFF7D8FA0099411A41F28830D4
:100F0000814256D830688007F4D42FB1DBF8001046
:100F100021F08051CBF80010A069C8B33949091DF0
:100F20000968C1F3810102294AD00228504607D03E
:100F3000C8F8600000E03CE0FFF7B6FA04463BE08A
:100F40004746C8F86000FFF7AFFA064605E000BF65
:100F5000FFF7AAFA801B02282BD828688001F7D453
:100F6000D4E907010843A16A2A4A490802EB014172
:100F7000626A41EA8211084394F82C1040EA016148
:100F8000C9F8001001203866FFF78EFA044606E023
:100F900036E000BFFFF788FA001B022809D828684E
:100FA0008001F7D52CE000BFFFF77EFA001B022876
:100FB00002D90320BDE8F88F28688001F4D41FE02F
:100FC0000128F7D0D9F80000E26900F480019142CD
:100FD00014D1226A00F03F0191420FD147F6C0714F
:100FE000626A0140914209D1A26A00F44031914203
:100FF00004D1E16A00F07060884201D00120D9E795
:101000000020D7E70438024000004742800E4742E4
:10101000007000400000FFFF10B5401EB0F1807F5F
:1010200001D3012010BD4FF0E02460610F21601753
:1010300000F03CFC0020A06107202061002010BDD2
:1010400070B5040004D094F83900002510B106E012
:10105000012070BD84F83850204600F023F8242089
:1010600084F839002068C16821F40051C16020462D
:1010700000F044FB2068016921F49041016120687F
:10108000416921F02A0141612068C16841F40051A1
:10109000C160E563202084F8390084F83A0000201C
:1010A00070BD000010B586B0044614216846FFF7F5
:1010B000BFF814492068884221D1134800210268F2
:1010C00042F010020260006800F0100005900E4827
:1010D0001438026842F001020260006800F001006A
:1010E00005904FF4C06000900220CDE9010103207B
:1010F00003900720049069460448FFF7F9F806B00A
:1011000010BD0000001001404438024000000240C1
:101110002DE9F843044690F839001F4616460D465F
:10112000202850D1B5B1AEB194F8380001284AD08A
:10113000012084F838004FF00008C4F83C802120DA
:1011400084F83900FFF7B0F9A6848146E68484F874
:10115000388026E00120BDE8F883E08C401EE08462
:10116000A0684B46B0F5805F4FF000024FF0800161
:101170002046009703D000F055FBE8B90DE000F0E1
:1011800051FBC8B928882168C0F30800486020696D
:1011900008B16D1C05E0AD1C03E0216815F8010BDA
:1011A0004860E08C0028D8D14B46002240212046E0
:1011B000009700F037FB08B10320CCE7202084F82B
:1011C00039000020C7E70220C5E7FEE701684A6949
:1011D000D24352050FD46FF480624A61002140F877
:1011E000301F202242738173026942F004020261BF
:1011F0000173012070470020704700002DE9F84F6F
:101200000446006889460B9D01689846174641F4DC
:10121000806101602068016841F48071016000957F
:101220004FF0011B0022594620460A9B00F0DEF8D1
:101230004FF4007A40B120680068C00501D5C4F8B9
:1012400040A00320BDE8F88F216809F0FE00086186
:101250002B46284920460A9A00F0FCF8F0BB20688B
:101260004169806900902A4620460A9900F070F989
:1012700040B1206C04283AD12068016841F4007123
:10128000016034E0FEB2B8F1010F09D02168380ADC
:1012900008612A4620460A9900F05AF90028E8D148
:1012A000206806612A4620460A9900F051F9002874
:1012B000DFD12068016841F480710160009500224F
:1012C000594620460A9B00F091F80028B3D12168C6
:1012D00009F0FF0040F00100086100E007E02B4644
:1012E000044920460A9A00F0B5F80028AAD0012047
:1012F000A8E70000020001002DE9F8430446006859
:101300000D46DDE9089701689846164641F480715C
:1013100001604B4600224FF001112046009700F07B
:1013200065F848B120680068C00502D54FF4007028
:1013300020640320BDE8F883216805F0FE00086101
:101340003B464A461549204600F084F888B9206893
:101350004169806900903A464946204600F0F8F815
:1013600048B1206C042804D12068016841F4007160
:1013700001600120DEE7F5B2B8F1010F09D0216864
:10138000300A08613A464946204600F0E1F8002854
:10139000E7D1206805610020CCE7000002000100D1
:1013A00070B516460D4604460DE02046FFF70EFFC9
:1013B00008B1012070BD681C05D0FFF775F8801BCF
:1013C000A84207D835B120684069C0434007ECD433
:1013D000002070BD002044F8300F20216173A073FD
:1013E000216941F0200121612073E2E72DE9F047F6
:1013F0001E4690460D460446C1F30747DDF820908F
:1014000008E0701C06D0FFF74FF8A0EB0900B042CF
:101410000FD876B12068012F18D0806925EA000026
:101420000004000C14D000214145EAD00020BDE8A2
:10143000F087002044F8300F20216173A0732169E8
:1014400041F02001216120730120F0E74069E5E7C8
:101450000121E9E72DE9F0479A4691460E460446F8
:1014600000254FF02008C1F3074725E020684069B8
:10147000C043400514D42068016841F40071016044
:1014800021686FF480604861256384F83D8084F8AA
:101490003E50206C40F00400206484F83C501FE073
:1014A000B9F1FF3F08D0FEF7FFFFA0EB0A01494565
:1014B0000CD8B9F1000F09D02068012F13D0806932
:1014C00026EA00000004000C0BD0CFE744F8305FA0
:1014D00084F80D80A573206940F0200020612573F9
:1014E0000120BDE8F0874069EAE72DE9F0410025D9
:1014F00090460E460446202717E04069C043C006C8
:101500000CD454F8301B6FF01000486144F81059A7
:101510006777A577206A2062257717E0FEF7C4FF7A
:10152000A0EB0800B04208D83EB120684169C94329
:101530004906E2D40020BDE8F08144F8305F6773CB
:10154000A573206940F02000206125730120F2E797
:1015500070B516460D4604460DE02046FFF736FEF0
:1015600008B1012070BD681C05D0FEF79DFF801BEF
:10157000A84207D835B120684069C0430006ECD4C2
:10158000002070BD002044F8300F20216173A0734B
:10159000216941F0200121612073E2E70D4808B57F
:1015A000016841F080010160016801F08001009153
:1015B000016841F001010160016801F00101009141
:1015C000016841F002010160006800F00200009033
:1015D00008BD0000303802400D4810B50B490160CD
:1015E0000C49416000214FF480428160C0E9031240
:1015F00041618161C1610162FEF75CFF002803D097
:10160000BDE81040FEF760BE10BD00000054004071
:1016100018020020A08601000C4810B50A4901609C
:101620004FF4E1314160002181600C22C160C0E9CA
:1016300004128161C161FFF703FD002803D0BDE8FA
:101640001040FEF741BE10BD001001406C020020AA
:10165000FEE7704770477047FFF7BAB930B593B0EF
:1016600030216846FEF7E4FD14210CA8FEF7E0FDEA
:1016700019480025016841F080510160006800F0C0
:10168000805011901548016841F480410160006864
:10169000022400F480401190012000900004019089
:1016A0008001CDE90640082008904FF4A870CDE9EC
:1016B000090404200B906846FFF700FB0F20CDE9DA
:1016C0000C0480200E904001CDE90F0502210CA8EA
:1016D000FFF70AFA13B030BD4038024000700040F6
:1016E0000548016841F47001016003494FF0006052
:1016F000803908607047000088ED00E02DE9F04176
:10170000044600680169E26821F440511143016117
:101710002169A068E26908436169114308432168AF
:10172000CA6849F20C639A430243CA60206841695F
:10173000A26921F4407111434161E06919276425D0
:101740003226B0F5004F354A354920684FF0000881
:1017500006D0884201D0904236D1FFF76FFA35E0CB
:10176000884201D0904202D1FFF768FA01E0FFF70A
:1017700055FA61684A18A0FB070148EB0803FEF719
:101780001FFD0146B0FBF5F00201B1FBF5F06FF073
:101790001803584301EB800006EBC000B0FBF5F0E6
:1017A00000F0F80002EB4002B1FBF5F0584301EB0A
:1017B000800006EBC000B0FBF5F000F007002168E8
:1017C00010448860BDE8F081FFF728FA61688B0F4C
:1017D0008A00A0FB0701FEF7F3FC0146B0FBF5F021
:1017E0006FF01802504301EB800006EB0010B0FBD5
:1017F000F5F000F0F002B1FBF5F002EB0012B1FBE6
:10180000F5F06FF01803584301EB800006EB001071
:10181000B0FBF5F000F00F00D1E70000001401402C
:10182000001001402DE9F041984617460E46044647
:10183000069D1DE0681C1BD02DB1FEF735FEA0EB08
:101840000800A84214D92068C16821F4D071C16091
:101850002068416921F001014161202084F83900AC
:1018600084F83A00002084F838000320BDE8F081B5
:101870002068006836EA000004D00020B842D9D0C1
:101880000020F3E70120F9E7FEE700000FB4054B65
:1018900010B503A9044A029800F028F810BC5DF8BE
:1018A00014FB0000511D0008140000200907090E58
:1018B000002804DB00F1E02080F80014704700F0FD
:1018C0000F0000F1E02080F8141D704702E008C806
:1018D000121F08C1002AFAD170477047002001E0AA
:1018E00001C1121F002AFBD1704700002DE9FF4FF4
:1018F0008DB00F460546002606E025280BD0DDE911
:101900000F1290476D1C761C28780028F5D111B075
:101910003046BDE8F08F0024A246A1460122EC49E2
:1019200000E0044315F8013F203B02FA03F00842AF
:10193000F7D128782A2810D06FF02F022878A0F14C
:101940003001092914D80AEB8A0102EB410144F065
:10195000020400EB010A6D1CF0E701CF5FEA000A08
:1019600003D544F40054CAF1000A44F002046D1C8B
:1019700028782E2817D115F8010F44F004042A28DE
:101980000ED06FF02F022878A0F1300109290AD873
:1019900009EB890102EB410100EB01096D1CF2E743
:1019A00057F8049B6D1C28786C280FD006DC4C2857
:1019B00017D068280DD06A2814D104E0742810D0FC
:1019C0007A280FD10DE044F400140AE044F48014A6
:1019D00001E044F440146978814202D104F5801496
:1019E0006D1C6D1C2A786E2A1FD00CDC632A31D046
:1019F00004DC002A8BD0582A11D1A3E0642A68D0D5
:101A0000692A0CD165E0732A2ED004DC6F2A73D0CA
:101A1000702A04D19BE0752A6FD0782A6ED01046C8
:101A2000DDE90F129047761C50E1C4F30250022802
:101A300006D0032809D0042801CF09D0066045E16B
:101A400001CFF117C0E9006140E101CF06803DE11F
:101A500006703BE117F8040B8DF8000000208DF8AC
:101A60000100EB46012003E057F804BB4FF0FF30C4
:101A700061074FF0000102D40DE008F10101884632
:101A800049450FDA8045F8DB1BF808100029F4D12E
:101A900008E008F1010188468142FADB1BF80810D2
:101AA0000029F6D1DDE90F23AAEB08008146214683
:101AB00000F036F9304400EB080604E0DDE90F12CF
:101AC0001BF8010B9047B8F10108F7D221464846B0
:101AD000F7E00A21C4F302534FF0000B0891022BE8
:101AE00004D001CFC117032B09D00AE0FF1D27F056
:101AF0000707F7E8020108E032E01FE020E000B24B
:101B0000C117042B01D140B2C117031E71F10003AC
:101B100007DA4FF0000CD0EB0C006CEB01012D2329
:101B200002E0230504D52B238DF82430012303E0A4
:101B3000E30701D02023F7E7984658E00A2110E098
:101B400010210EE010204FF0000B08900CE0102147
:101B50004FF0000B44F004044FF00809089103E033
:101B600008214FF0000B0891C4F30253022B04D05C
:101B700001CF0021032B06D006E0FF1D27F0070749
:101B8000F7E8020103E080B2042B00D1C0B24FF0AD
:101B9000000823072BD5702A07D0DDF820C08CF071
:101BA000100C5CEA0B0C05D00EE040238DF82430BD
:101BB000012308E050EA010306D030238DF82430D9
:101BC0008DF8252002239846DDF820C08CF0080C03
:101BD0005CEA0B0C0BD150EA010301D1630706D577
:101BE00030238DF824304FF00108A9F10109582A5B
:101BF00004D038A20B9208AA0A920BE03AA2F9E7A5
:101C00005B46089AFEF7DCFA0B9B9B5C0A9A521E15
:101C10000A92137050EA0102F2D10A98ADEB00006B
:101C200000F1200B600702D524F4803401E04FF06E
:101C30000109D94502DDA9EB0B0000E0002000EB13
:101C40000B0141440890AAEB010AE00306D4DDE948
:101C50000F232146504600F063F806444FF0000978
:101C600008E009A911F80900DDE90F12904709F110
:101C70000109761CC145F4DBE0030CD5DDE90F2337
:101C80002146504600F04CF8064404E0DDE90F120E
:101C900030209047761C0899481E08900029F5DCF2
:101CA00008E00A980A990078491C0A91DDE90F12A8
:101CB0009047761CBBF10001ABF1010BF1DC214632
:101CC0005046DDE90F2300F019F806446D1C1BE6B1
:101CD0000928010030313233343536373839616202
:101CE00063646566000000003031323334353637C6
:101CF0003839414243444546000000002DE9F04197
:101D0000044600251E461746880404D405E03946DB
:101D10002020B0476D1C641EF9D52846BDE8F0812F
:101D20002DE9F041044600251E469046C80301D522
:101D3000302700E02027880404D505E041463846D6
:101D4000B0476D1C641EF9D52846BDE8F08100003F
:101D500013B54FF6FF73012269460248FFF7D8F921
:101D600000981CBD6C0200200EB5FEF739FEFFF78F
:101D700075FCFFF713FCFFF72FFCFFF74DFC254C1C
:101D80000025254E258020883054401C80B22080BC
:101D9000FF28F8D92580FF274FF00108228801236A
:101DA000B118CDE900180297A0211C48FEF742FDAA
:101DB0000520FEF78BFA2088401C80B22080FF2887
:101DC000ECD917A0FFF762FD4FF480781D4ECDE9E6
:101DD000006801230022A12110480297FEF72EFC83
:101DE00025802088315C18A0FFF750FD2088401C1A
:101DF00080B22080FF28F4D9424607491148FEF7F7
:101E000022FA20B113A000BFFFF740FDFEE713A0A8
:101E1000FAE700000000002018000020180200204F
:101E20000D0A20454550524F4D2032344330322068
:101E300057726974652054657374204F4B200D0AE6
:101E40000000000018010020307825303258202092
:101E5000000000004552524F520000004F4B00005E
:101E6000000000000000000001020304060708094A
:101E70000000000001020304981E0008000000207A
:101E800018000000CC180008B01E00081800002040
:101E900098060000DC1800080000000001000000A7
:101EA00010000000000000000024F400000000000A
:040000050800018965
:00000001FF
