:020000040800F2
:10000000801700209D0100086B140008C913000828
:100010006914000849030008411A000800000000A4
:10002000000000000000000000000000251600088D
:100030007103000800000000B9150008A5160008AB
:10004000B7010008B7010008B7010008B7010008B0
:10005000B7010008B7010008B7010008B7010008A0
:10006000B7010008B7010008B7010008B701000890
:10007000B7010008B7010008B7010008B701000880
:10008000B7010008B7010008B7010008B701000870
:10009000B7010008B7010008B7010008B701000860
:1000A000B7010008B7010008B7010008B701000850
:1000B000B7010008B7010008B7010008B701000840
:1000C000B7010008B7010008B7010008B701000830
:1000D000B7010008B7010008191A0008B7010008A5
:1000E000B7010008B7010008B7010008B701000810
:1000F000B7010008B7010008B7010008B701000800
:10010000B7010008B7010008B7010008B7010008EF
:10011000B7010008B7010008B7010008B7010008DF
:10012000B7010008B7010008B7010008B7010008CF
:10013000B7010008B7010008B7010008B7010008BF
:10014000B7010008B7010008B7010008B7010008AF
:10015000B7010008B7010008B7010008B70100089F
:10016000B7010008B7010008B7010008B70100088F
:10017000B7010008B7010008B7010008000000003F
:10018000B7010008B7010008DFF80CD000F0CAF88A
:1001900000480047251D00088017002006488047BA
:1001A00006480047FEE7FEE7FEE7FEE7FEE7FEE75C
:1001B000FEE7FEE7FEE7FEE72D17000889010008CD
:1001C0002DE9F05F0546002092469B46884606468C
:1001D000814640241BE0284641464746224600F01F
:1001E00090F853465A46C01A914110D3114618460A
:1001F000224600F077F82D1A67EB01084F46224699
:100200000120002100F06EF817EB00094E41201E7E
:10021000A4F10104DFDC484631462A464346BDE8E6
:10022000F09FD2B201E000F8012B491EFBD27047CB
:100230000022F6E710B513460A4604461946FFF7B2
:10024000F0FF204610BD421E12F8013F002BFBD1EB
:1002500011F8013B02F8013B002BF9D1704730B592
:1002600005462A460B4612F8010B13F8014B08B15C
:10027000A042F8D01CB1002802D06D1CF1E728463E
:1002800030BD421C10F8011B0029FBD1801A7047B9
:1002900010B5044600E0401C0378002BFBD100E0C1
:1002A000401C521E04D311F8013B0370002BF7D100
:1002B00000210170204610BD30B50B4601460020DC
:1002C0002022012409E021FA02F59D4205D303FA18
:1002D00002F5491B04FA02F52844151EA2F1010299
:1002E000F1DC30BD202A04DB203A00FA02F10020C4
:1002F00070479140C2F1200320FA03F31943904064
:100300007047202A04DB203A21FA02F000217047CE
:1003100021FA02F3D040C2F120029140084319466D
:1003200070470000064C074D06E0E06840F001030E
:1003300094E8070098471034AC42F6D3FFF728FF43
:10034000741E0008941E0008FEE7000010B54FF46C
:100350007A7402E0204600F031FA01F087F80028B4
:10036000F8D102490120C87010BD00000000002033
:10037000704710B50446007B012802D1206801F0C7
:10038000A9FC002020606060A060207310BD2DE9F2
:10039000F0410446002500680F462E4610B10220A9
:1003A000207315E001202073084601F01DFD206038
:1003B000002808D0C4E9016702E0206846556D1C9A
:1003C000A068A842F9D8BDE8F081206846556D1CA8
:1003D000A068A842F9D866608842F4D22660F2E7A5
:1003E0002DE9F0471C4690468A468146FFF749FFB3
:1003F000C5B25046FFF745FFC6B238212046FFF789
:10040000C6FF206800285AD01021017060680027BC
:10041000401C60602168A8190D3048706068032294
:10042000401C60602068877021680320C870606885
:1004300024A1801C60602068001DFFF729FF606810
:100440002A46C01C606021680120C8716068401C99
:1004500060602168402008726068401C606021680C
:100460004FEA18204872216881F80A80606849467E
:10047000801C60602068C772206805736068801CFB
:10048000606020680D30FFF703FF60683246284443
:100490006060216805F10D000F350F542168401C84
:1004A0000E5460685146801C606020682844FFF745
:1004B000EFFE6068304460600020BDE8F0870120F6
:1004C000FBE700004544500010B504460221FFF749
:1004D0005EFF216889B16068C023421C62600B54D2
:1004E000D4E90030411C002261601A54227904488A
:1004F000216801F097FA002010BD012010BD000016
:10050000004400402DE9FF5F1E4691460D460E9CBB
:100510000098FFF7B6FEC7B2022E02D005F118010F
:1005200005E0B9F100003DD0FFF7ABFE01462046E3
:10053000FFF72DFF216899B360688022431C636038
:100540000A5400984FF055084FF0AA0A4FF0000BDC
:1005500038B3022E2CD0E819083001B2A08882B23C
:10056000206801F06FFA616823680844411CC022CA
:1005700061601A54D4E90030421C626003F800B094
:10058000D4E90020411C61601754D4E900010844FB
:100590003A460099FFF77CFE6068236838441FE004
:1005A00004E00BE0012004B0BDE8F09F0220FAE770
:1005B0004846FFF766FE28440C30CEE7022E24D0D2
:1005C000A81D01B2A08882B2206801F03BFA6168E0
:1005D000402208442368411C61601A54D4E9003069
:1005E000421C626003F80080D4E90030421C626063
:1005F00003F800A0D4E90020411C61601654C5F343
:100600000728EFB2022E06D031E04846FFF739FE48
:1006100028440A30D5E74846FFF733FED4E90062A4
:1006200002F1010CC4F804C006F802B0D4E90032AB
:10063000C1B20020561C666099540AE0D4E90062F9
:1006400019F8003002F1010CC4F804C0401CB35486
:10065000C0B28842F2D3D4E90030411C2A0E616056
:100660001A54D4E900302A0C411C61601A54D4E9B0
:100670000020411C616002F80080D4E90020411C88
:100680006160175400208EE770B54FF47A742246EB
:1006900015A116A000F0C8FF65002A4612A115A0FA
:1006A00000F0C2FF2A4612A116A000F0BDFF2246AC
:1006B0000DA117A000F0B8FF2A460BA117A000F06B
:1006C000B3FF2A4608A120A000F0AEFF224606A1F3
:1006D00027A000F0A9FF224629A12AA000F0A4FF2C
:1006E000BDE8704001F08AB94F4B000041540D0A3B
:1006F0000000000041542B43574D4F44453D310D00
:100700000A00000041542B5253540D0A000000000F
:1007100041542B43494653520D0A000041542B4388
:10072000574A41503D224855415745492D3341488C
:10073000465644222C22313335353036393539305E
:1007400039220D0A0000000041542B4349505354F4
:100750004152543D22544350222C223138332E3200
:1007600033302E34302E3339222C3837360D0A00F0
:1007700041542B4349504D4F44453D310D0A000033
:100780003E00000041542B43495053454E440D0A4E
:1007900000000000704790F83510022903D0802136
:1007A000416501207047052180F835100068016817
:1007B00021F00101016000207047000070B504467F
:1007C00000F0EAF80546601C02D0044800780444B2
:1007D00000F0E2F8401BA042FAD370BD10000020E8
:1007E0002DE9F84F00224FF0010803254FF00F0EBE
:1007F0000B6808FA02F42340A3426ED14E68012E22
:1008000005D0022E03D0112E01D0122E12D18668EF
:100810004FEA420C05FA0CF7BE43CF6807FA0CF713
:10082000374387604668A6430C79C4F300149440AC
:1008300034434460C668570005FA07FC8C6826EA12
:100840000C06BC403443C4604C68022C01D0122C0E
:1008500013D1D40800EB8404A346D4F820905407A5
:100860004FEAD46A0EFA0AF629EA06090E6906FA70
:100870000AF646EA0906CBF8206006680C7926EAF3
:100880000C0604F00304BC40344304604C68E400EC
:1008900065D5364C266846F480462660246822F0EA
:1008A000030604F480440094314C3444A446D4F844
:1008B00008489607370F0EFA07F6B4432D4EB0429C
:1008C00001D1002624E02C4EB04201D101261FE0C8
:1008D0002A4EB04202D102261AE040E0284EB04231
:1008E00001D1032614E0274EB04201D104260FE0C7
:1008F000254EB04201D105260AE0244EB04201D176
:10090000062605E0224EB04201D1072600E0082667
:10091000BE402643CCF808681E4E34684F689C439E
:10092000FF0300D51C4334601A4C241D26684F6811
:100930009E43BF0300D51E432660164E083634681A
:100940004F689C43FF0200D51C433460114E0C36A7
:1009500034684F689C43BF0200D51C433460521C6E
:10096000102AFFF445AFBDE8F88F0000443802407C
:100970000030014000000240000402400008024034
:10098000000C024000100240001402400018024017
:10099000001C0240003C0140014880687047000094
:1009A000100000200248816802781144816070477D
:1009B000100000200B4810B5016841F4007101607F
:1009C000016841F480610160016841F48071016057
:1009D000032000F071F8002000F006F800F024F881
:1009E000002010BD003C024070B50D4D04464FF490
:1009F0007A712878B1FBF0F00A490968B1FBF0F090
:100A000000F004FB48B9102C07D200222146501EEA
:100A100000F032F800206C6070BD012070BD000055
:100A2000100000201C0000200B4882B0016841F437
:100A300080410160006800F4804000900648001F7B
:100A4000016841F080510160006800F08050009022
:100A5000052002B000F030B844380240002809DB1D
:100A600000F01F02012191404009800000F1E020C8
:100A7000C0F8001170470000F0B40E4B1B680C4624
:100A8000C3F30223C3F10705042D00D90425191D62
:100A9000072901D2002300E0DB1E012606FA05F13A
:100AA000491E214099409E40761E16403143F0BCBD
:100AB00001F002B80CED00E0064900F007020868FA
:100AC0004FF6FF03184040EA0220034A1043086033
:100AD000704700000CED00E00000FA052DE9F0473A
:100AE0000E46050065D0DFF81481D8F80000F7B293
:100AF00000F00F00B04207D288F80070D8F800006C
:100B000000F00F00B04254D128683D4C810712D547
:100B1000400703D5206840F4E050206028780007A3
:100B200003D5206840F4604020602068A96820F068
:100B3000F000084320602878C0072DD0304968684D
:100B40000839012812D0022813D0032811D00968CF
:100B5000890700292DDA216821F003010143216072
:100B6000FFF71AFF814641F2883A0EE009688903CF
:100B7000EFE709688901ECE7FFF70EFFA0EB090139
:100B8000514502D90320BDE8F0872068696800F06C
:100B90000C00B0EB810FEFD1D8F80010404601F007
:100BA0000F01B14207D90770006800F00F00B04292
:100BB00001D00120E7E72878400705D52068E968DB
:100BC00020F4E050084320602878000706D520680C
:100BD000296920F4604040EAC100206000F038F844
:100BE0002168084AC1F30311515CC84006490860F6
:100BF00006480068FFF7F8FE0020C4E7003C02400A
:100C0000083802405C1E00081C0000201400002070
:100C10000448054900680968044AC1F38221515C0F
:100C2000C84070471C000020083802406C1E0008B5
:100C30000448054900680968044AC1F34231515C1F
:100C4000C84070471C000020083802406C1E000895
:100C5000154810B5006810F00C02144813D041106C
:100C6000042A0FD0082A0ED10F4C241F22682368B3
:100C700002F03F025B0207D52068C0F38810A0FB9A
:100C8000010106E0084610BD2168C1F38811A1FBEF
:100C900000010023FFF794FA2168C1F30141491CC8
:100CA0004900B0FBF1F010BD083802400024F40008
:100CB0002DE9F84F04006ED02078DFF83C93C00790
:100CC000A9F104054AD009F104000168C1F38101CA
:100CD000012908D00068C0F3810002280AD1D9F8A0
:100CE0000000400206D52868800337D560680028D8
:100CF000E1D033E06068B0F5803F10D0B0F5A02FB0
:100D0000286810D020F480302860286820F48020E3
:100D100028606068A8B1FFF73FFE06460DE028682E
:100D200040F48030F4E740F480202860F7E700BF0B
:100D3000FFF732FE801B642873D828688003F7D53C
:100D40000CE0FFF729FE064605E000BFFFF724FE92
:100D5000801B6428F0D828688003F7D42078DFF857
:100D60009C8280074FF0000A3ED5A348001D016811
:100D700011F00C0F08D00068C0F3810002280BD1DD
:100D8000D9F80000400207D42868800716D5E0682B
:100D9000012800D112E02BE1E068B8B10120C8F8C9
:100DA0000000FFF7F9FD064605E000BFFFF7F4FD80
:100DB000801B0228C0D828688007F7D528682169D9
:100DC00020F0F80040EAC10028600DE0C8F800A05B
:100DD000FFF7E2FD064604E0FFF7DEFD801B022878
:100DE0001FD828688007F7D42078000722D5824EC4
:100DF00083486169703671B101210160FFF7CCFD54
:100E0000074604E0FFF7C8FDC01B022809D8306878
:100E10008007F7D50EE0C0F800A0FFF7BDFD07463C
:100E200005E082E0FFF7B8FDC01B02287DD83068DE
:100E30008007F7D42078400768D5DFF8BCB10027D9
:100E40000BF13C0BDBF80000C0000BD4DBF800100A
:100E500041F08051CBF80010DBF80000012700F0D2
:100E600080500090674E3068C00510D4306840F460
:100E700080703060FFF790FD009005E0FFF78CFD7B
:100E80000099401A022850D83068C005F6D55A4E4D
:100E9000A0686C3601280FD00528306810D020F0EB
:100EA00001003060306820F004003060A068B8B104
:100EB000FFF772FD00900FE0306840F00100F4E7AA
:100EC00040F004003060F7E7FFF766FD0099411A33
:100ED00041F28830814266D830688007F4D50EE050
:100EE000FFF75AFD009007E0FFF756FD0099411A01
:100EF00041F28830814256D830688007F4D42FB14F
:100F0000DBF8001021F08051CBF80010A069C8B3C5
:100F10003949091D0968C1F3810102294AD0022813
:100F2000504607D0C8F8600000E03CE0FFF734FD11
:100F300004463BE04746C8F86000FFF72DFD064633
:100F400005E000BFFFF728FD801B02282BD828688A
:100F50008001F7D4D4E907010843A16A2A4A490865
:100F600002EB0141626A41EA8211084394F82C10B5
:100F700040EA0161C9F8001001203866FFF70CFD56
:100F8000044606E036E000BFFFF706FD001B02281E
:100F900009D828688001F7D52CE000BFFFF7FCFCDA
:100FA000001B022802D90320BDE8F88F28688001C1
:100FB000F4D41FE00128F7D0D9F80000E26900F46A
:100FC0008001914214D1226A00F03F0191420FD179
:100FD00047F6C071626A0140914209D1A26A00F4E9
:100FE0004031914204D1E16A00F07060884201D042
:100FF0000120D9E70020D7E704380240000047422B
:10100000800E4742007000400000FFFF10B5401EF8
:10101000B0F1807F01D3012010BD4FF0E02460616A
:101020000F21601700F048FD0020A061072020611B
:10103000002010BD704710F8391F407808437047F2
:1010400070B5026804461068D168536910F00F0F3C
:1010500052D003F0010501F490762E435FD0C20711
:1010600005D0CA0503D5E26B42F00102E2634207F4
:1010700005D5DA0703D0E26B42F00202E263820791
:1010800005D5DA0703D0E26B42F00402E2630207FF
:1010900007D501F020022A4303D0E26B42F0080298
:1010A000E263E26B002A33D0800604D5880602D5BD
:1010B000204600F05FFB20684069E16BC0F38010C0
:1010C000090700D428B3204600F046FB2068416998
:1010D00049061AD5416921F040014161606BA0B118
:1010E0001B490165606BFFF756FB002810D0606B51
:1010F000016DBDE870400847830610D58B060ED5FC
:101100002046BDE8704000F035BB2046FFF792FF57
:1011100070BD2046FFF78EFF0020E06370BD030620
:1011200006D50B0604D52046BDE8704000F002BC91
:101130004006F3D54806F1D5D168204621F040019C
:10114000D160202184F8391000F03DF970BD000015
:101150004917000870B5040004D094F83900002540
:1011600010B106E0012070BD84F83850204600F030
:1011700023F8242084F839002068C16821F4005144
:10118000C160204600F042FB2068016921F49041D3
:1011900001612068416921F02A0141612068C1682C
:1011A00041F40051C160E563202084F8390084F8DF
:1011B0003A00002070BD0000F0B587B0044614214D
:1011C0006846FFF735F8274F236800222649022496
:1011D000032507262548BB421CD1234B14331F6827
:1011E00047F010071F601B6803F0100305930B689E
:1011F00043F001030B60096802AB01F001010591A6
:101200006902CDE9001483E864006946FFF7E8FA53
:1012100007B0F0BD164FBB42FAD1134B10331F6815
:1012200047F400371F601B6803F4003305930B6815
:1012300043F001030B60096802AB01F00101059165
:101240000C21CDE9001483E864006946FFF7C8FA71
:10125000012211462620FFF70FFC2620FFF7FEFB98
:10126000D6E7000000100140303802400000024084
:101270000044004090F83A30202B22D1F9B1F2B16D
:1012800090F83830012B1CD081628285C285002104
:10129000C163222280F83A2080F838100168CA68B9
:1012A00042F48072CA6001684A6942F001024A61F0
:1012B0000068C16841F02001C16000207047012032
:1012C00070470220704700000D4910B5884216D1C2
:1012D0000C480D4B817802785A54491C8170C178B2
:1012E000012905D14068A3F1DC010A5400F066F938
:1012F000BDE81040012203490148FFF7BBBF10BD04
:101300003C03002000000020080100202DE9F843E4
:10131000044690F839001F4616460D46202850D145
:10132000B5B1AEB194F8380001284AD0012084F854
:1013300038004FF00008C4F83C80212084F83900C0
:10134000FFF72AFBA6848146E68484F8388026E0ED
:101350000120BDE8F883E08C401EE084A0684B4685
:10136000B0F5805F4FF000024FF0800120460097FB
:1013700003D000F010FBE8B90DE000F00CFBC8B999
:1013800028882168C0F308004860206908B16D1CF6
:1013900005E0AD1C03E0216815F8010B4860E08C06
:1013A0000028D8D14B46002240212046009700F06B
:1013B000F2FA08B10320CCE7202084F8390000209D
:1013C000C7E70220C5E77047FEE70000094808B5F7
:1013D000016841F080010160016801F08001009125
:1013E000016841F001010160006800F00100009017
:1013F00008BD0000303802400C4810B50A490160B1
:101400004FF4E1314160002181600C22C160C0E9EC
:1014100004128161C161FFF79DFE002803D0BDE881
:101420001040FFF7B7B910BD00100140FC020020CA
:101430000C4810B50A4901604FF4E13141600021C8
:1014400081600C22C160C0E904128161C161FFF7B3
:1014500081FE002803D0BDE81040FFF79BB910BD06
:10146000004400403C030020FEE770471FB5002009
:1014700000900190029003906B464FF480720BA194
:1014800012A0FEF7ADFF10B1012004B010BD01980D
:101490000099C2B2104800F0C5FA4FF4FA70FFF795
:1014A0008DF96846FEF765FF0020EEE7306E766442
:1014B0006C756A535959644B38316573726768307B
:1014C000775250537338303D0000000036313136CA
:1014D0003738323632000000004400407FB5002427
:1014E000054611A00094019402940394008828807A
:1014F00013460A460094019402940CA16846039492
:1015000000F0C6FA69462846FEF79DFE09A1284666
:10151000FEF799FE00940194029428460394FEF786
:10152000B0FE04B0C0B270BD7B0000002225732263
:101530003A2564007D00000070B50646A8B0002082
:101540000D4623902490259004462690802101A8E2
:10155000FEF76EFE2A46314601A8FFF7BFFF0500E1
:101560001FD023A800900323002229460EA0FEF7D7
:10157000C9FF002815D101A8AC4209DA015DDDE9F7
:101580002323D1542499491C641C24B22491F3E7E9
:1015900024982399C2B2074800F044FA23A8FEF722
:1015A000E8FE28B070BD00003631313637383236AB
:1015B0003200000000440040704700002DE9F04177
:1015C000164C00266068962804D1C821144866602D
:1015D000FEF72EFE627812484AB1616800F1C80534
:1015E000435CE1686B54491C521EE160627065689F
:1015F000032D0FDD411911F8022C5AB911F8011C05
:1016000041B9475D37B106481421C830FEF710FED6
:101610006770E6606D1C6560BDE8F0810000002029
:101620002C000020704700002DE9F843144D154CA4
:1016300017468846064600BF00F0E0F93046FEF740
:1016400020FEC2B23146284600F0ECF93846FFF7DA
:10165000B5F833467B220C490CA0009400F008FA40
:1016600041460848FEF7FBFD18B1BDE8F84300F01D
:10167000C5B900F0C3F96420FFF7A0F8DCE700006B
:101680000044004008010020541E00082573202556
:101690006420636D643A25732C7273703A25730A63
:1016A00000000000FFF77EB930B593B030216846E6
:1016B000FEF7BEFD14210CA8FEF7BAFD194800255F
:1016C000016841F080510160006800F08050119085
:1016D0001548016841F4804101600068022400F46B
:1016E0008040119001200090000401908001CDE91C
:1016F0000640082008904FF4A870CDE909040420A2
:101700000B906846FFF7D4FA0F20CDE90C04802037
:101710000E904001CDE90F0502210CA8FFF7DEF97C
:1017200013B030BD403802400070004005480168E9
:1017300041F47001016003494FF000608039086096
:101740007047000088ED00E010B5806B0021C18576
:10175000C184FFF76FFC10BD0168CA6822F4907263
:10176000CA6001684A6922F001024A61202180F8BA
:101770003A10704710B590F83A10222901D0022093
:1017800010BD8168B1F5805F11D001690029016841
:101790001FD0496801F07F03816A4A1C82620B7086
:1017A000C18D491E0904090CC18518D02BE00269BE
:1017B000816A002A0268526805D0D2B20A80816A22
:1017C000491C8162ECE7C2F308020A80816A891C25
:1017D000F7E74A68816A4B1C83620A70E0E7016898
:1017E000CA6822F02002CA600168CA6822F48072C6
:1017F000CA6001684A6922F001024A61202180F82A
:101800003A10FFF761FD002010BD00002DE9F04106
:10181000044600680169E26821F440511143016106
:101820002169A068E269084361691143084321689E
:10183000CA6849F20C639A430243CA60206841694E
:10184000A26921F4407111434161E06919276425BF
:101850003226B0F5004F354A354920684FF0000870
:1018600006D0884201D0904236D1FFF7E1F935E049
:10187000884201D0904202D1FFF7DAF901E0FFF788
:10188000C7F961684A18A0FB070148EB0803FEF797
:1018900097FC0146B0FBF5F00201B1FBF5F06FF0EB
:1018A0001803584301EB800006EBC000B0FBF5F0D5
:1018B00000F0F80002EB4002B1FBF5F0584301EBF9
:1018C000800006EBC000B0FBF5F000F007002168D7
:1018D00010448860BDE8F081FFF79AF961688B0FCA
:1018E0008A00A0FB0701FEF76BFC0146B0FBF5F098
:1018F0006FF01802504301EB800006EB0010B0FBC4
:10190000F5F000F0F002B1FBF5F002EB0012B1FBD4
:10191000F5F06FF01803584301EB800006EB001060
:10192000B0FBF5F000F00F00D1E70000001401401B
:101930000010014090F83910212901D00220704791
:101940008168B1F5805F016A0BD04A1C02620268AF
:1019500009785160C18C491E0904090CC1840ED05C
:1019600017E009880268C1F3080151600169002984
:10197000016A02D0491C0162ECE7891CFBE701689F
:10198000CA6822F08002CA600068C16841F0400164
:10199000C160002070472DE9F041984617460E4679
:1019A0000446069D1DE0681C1BD02DB1FEF7F4FF18
:1019B000A0EB0800A84214D92068C16821F4D071B6
:1019C000C1602068416921F001014161202084F853
:1019D000390084F83A00002084F838000320BDE87C
:1019E000F0812068006836EA000004D00020B84288
:1019F000D9D00020F3E70120F9E7000010B54FF43B
:101A0000FA710348FEF714FC02490020887010BDEB
:101A100008010020000000200148FFF711BB000072
:101A20003C03002010B5FF230448FFF76FFC034878
:101A3000FFF701FB2128FAD010BD00003C03002075
:101A4000FEE7000010B5002401F07F03C90900295A
:101A500002D000BF43F08003835402F1010292B22E
:101A600004F1010401D0052CEEDB521E90B210BD32
:101A70000FB4054B10B503A9044A029800F03CF8D6
:101A800010BC5DF814FB0000BD1C00082000002005
:101A90000FB4084B10B504A902AA039800F02CF863
:101AA000044602A9002000F003F9204610BC5DF8AE
:101AB00014FB0000B11C00080907090E002804DB14
:101AC00000F1E02080F80014704700F00F0000F1F2
:101AD000E02080F8141D704702E008C8121F08C1FA
:101AE000002AFAD170477047002001E001C1121F9F
:101AF000002AFBD1704700002DE9FF4F8BB09A46BA
:101B00000F460546002606E025280BD052460D99C3
:101B100090476D1C761C28780028F5D10FB0304610
:101B2000BDE8F08F0024A0460122604900E0044394
:101B300015F8013F203B02FA03F00842F7D128785C
:101B40002E2817D115F8010F44F004042A280ED0CE
:101B50006FF02F022878A0F1300109290AD808EB8C
:101B6000880102EB410100EB01086D1CF2E757F818
:101B7000048B6D1C287869283ED006DC0028CDD067
:101B800063280BD0642804D136E0732810D0752860
:101B90004BD052460D999047761C85E017F8040B00
:101BA0008DF8000000208DF80100E946012003E0D7
:101BB00057F8049B4FF0FF3061074FF0000401D449
:101BC0000AE0641C44450DDA8442FADB19F804107B
:101BD0000029F6D106E0641C8442FCDB19F80410ED
:101BE0000029F8D1264404E019F8010B52460D995A
:101BF0009047641EF8D257E001CF4FF00A0B00283F
:101C000002DA40422D2102E0210504D52B218DF876
:101C10002410012103E0E10705D02021F7E70DF1B1
:101C2000200908910CE00021F9E701CF4FF00A0BE1
:101C3000F9E75946FEF740FB01F1300209F8012DA2
:101C40000028F6D1ADEB090000F1200B600701D4AC
:101C50004FF00108D84502DDA8EB0B0000E00020A2
:101C60008046002406E009A85246005D0D99904781
:101C7000641C761C08988442F5DB04E03020524650
:101C80000D999047761CB8F10001A8F10108F5DC28
:101C900005E019F8010B52460D999047761CBBF1EF
:101CA0000001ABF1010BF4DC6D1C34E709280100E5
:101CB0000A68531C0B6010707047000013B54FF694
:101CC000FF73012269460248FFF720FB00981CBD04
:101CD000FC02002010B5002821D0114B0022001F6B
:101CE000196803E0814203D80A4649680029F9D1FE
:101CF00052B11368841A9C4204D1006818441060E1
:101D0000104602E0506000E0186039B102680B1A1A
:101D1000934203D10B681A4402604968416010BDC8
:101D2000240000201FB5002500950195029503951C
:101D3000FEF740FEFFF7B8FCFFF748FBFFF75CFB40
:101D4000FFF776FB01221F491F48FFF793FAFFF7C1
:101D500055FEFEF799FC4FF47A70FEF72FFDFEF763
:101D6000F5FA184C4CF25036A068B04203D36846DE
:101D7000FEF7AAFBA56015A11648FEF770FA50B150
:101D8000012115A0FFF7D8FB1420FEF717FD142141
:101D90001048FEF74DFA12A10E48FEF760FA50B156
:101DA00000210DA0FFF7C8FB1420FEF707FD14214A
:101DB0000848FEF73DFAA068401CA0600A20FEF724
:101DC000FDFCD1E7000000203C0300204F50454EB1
:101DD00000000000F400002074657374000000002F
:101DE000434C4F5345000000F0B50B30154D20F02B
:101DF00007010024144A0FE003688B420BD38B4287
:101E000005D95E1A43184768C3E9006700E04368D4
:101E1000136002C004E0021D10680028ECD12046C7
:101E2000002802D1286808B10020F0BD064A074802
:101E30001060074A121A22F00702C0E900240120AC
:101E40002860D7E728000020240000208403002019
:101E50008013002053656E64436D64000000000031
:101E6000000000000102030406070809000000004A
:101E700001020304941E0008000000202C00000052
:101E8000D81A0008C01E00082C00002054170000BB
:101E9000E81A000800000000000000000000000038
:101EA0000000000001000000100000000000000021
:101EB0000024F4000000000000000000000000000A
:040000050800018965
:00000001FF
