:020000040800F2
:10000000400600209D010008931A000827150008EB
:10001000911A0008D5020008C52000080000000061
:10002000000000000000000000000000D91A0008D5
:10003000D702000800000000951A0008B51B000850
:10004000B7010008B7010008B7010008B7010008B0
:10005000B7010008B7010008B7010008B7010008A0
:10006000B7010008B7010008B7010008B701000890
:10007000B7010008B7010008B7010008B701000880
:10008000B7010008B7010008B7010008B701000870
:10009000B7010008B7010008B7010008B701000860
:1000A000B7010008B7010008B7010008B701000850
:1000B000B7010008B7010008B7010008B701000840
:1000C000B7010008B7010008B7010008B701000830
:1000D000B7010008B7010008B7010008B701000820
:1000E000B7010008B7010008B7010008B701000810
:1000F000B7010008B7010008B7010008B701000800
:10010000B7010008B7010008B7010008B7010008EF
:10011000B7010008B7010008591C0008B701000822
:10012000B7010008B7010008B7010008B7010008CF
:10013000B7010008B7010008B7010008B7010008BF
:10014000B7010008B7010008B7010008B7010008AF
:10015000B7010008B7010008B7010008B70100089F
:10016000B7010008B7010008B7010008B70100088F
:10017000B7010008B7010008B7010008000000003F
:10018000B7010008B7010008DFF80CD000F090F8C4
:1001900000480047E5220008400600200648804746
:1001A00006480047FEE7FEE7FEE7FEE7FEE7FEE75C
:1001B000FEE7FEE7FEE7FEE73D1C000889010008B8
:1001C0002DE9F05F0546002092469B46884606468C
:1001D000814640241BE0284641464746224600F01F
:1001E00057F853465A46C01A914110D31146184643
:1001F000224600F03EF82D1A67EB01084F462246D2
:100200000120002100F035F817EB00094E41201EB7
:10021000A4F10104DFDC484631462A464346BDE8E6
:10022000F09FD2B201E000F8012B491EFBD27047CB
:100230000022F6E710B513460A4604461946FFF7B2
:10024000F0FF204610BD30B50B46014600202022AD
:10025000012409E021FA02F59D4205D303FA02F5D3
:10026000491B04FA02F52844151EA2F10102F1DC33
:1002700030BD202A04DB203A00FA02F1002070474A
:100280009140C2F1200320FA03F3194390407047D4
:10029000202A04DB203A21FA02F00021704721FADB
:1002A00002F3D040C2F12002914008431946704742
:1002B000064C074D06E0E06840F0010394E80700B3
:1002C00098471034AC42F6D3FFF762FF8C23000846
:1002D000AC230008FEE77047704700002DE9F84F97
:1002E00000224FF0010803254FF00F0E0B6808FAAB
:1002F00002F42340A3426ED14E68012E05D0022E97
:1003000003D0112E01D0122E12D186684FEA420C72
:1003100005FA0CF7BE43CF6807FA0CF7374387603E
:100320004668A6430C79C4F30014944034434460F7
:10033000C668570005FA07FC8C6826EA0C06BC4024
:100340003443C4604C68022C01D0122C13D1D40861
:1003500000EB8404A346D4F8209054074FEAD46AF3
:100360000EFA0AF629EA06090E6906FA0AF646EABC
:100370000906CBF8206006680C7926EA0C0604F022
:100380000304BC40344304604C68E40065D5364C3B
:10039000266846F480462660246822F0030604F4AA
:1003A00080440094314C3444A446D4F8084896075D
:1003B000370F0EFA07F6B4432D4EB04201D1002696
:1003C00024E02C4EB04201D101261FE02A4EB0425B
:1003D00002D102261AE040E0284EB04201D10326A5
:1003E00014E0274EB04201D104260FE0254EB04262
:1003F00001D105260AE0244EB04201D1062605E0CF
:10040000224EB04201D1072600E00826BE40264316
:10041000CCF808681E4E34684F689C43FF0300D533
:100420001C4334601A4C241D26684F689E43BF034A
:1004300000D51E432660164E083634684F689C432C
:10044000FF0200D51C433460114E0C3634684F68EF
:100450009C43BF0200D51C433460521C102AFFF499
:1004600045AFBDE8F88F000044380240003001403D
:10047000000002400004024000080240000C02405C
:10048000001002400014024000180240001C02400C
:10049000003C01400AB1816170470904FBE700009C
:1004A0000148806870470000000000200248816811
:1004B0000278114481607047000000200B4810B59D
:1004C000016841F400710160016841F480610160DC
:1004D000016841F480710160032000F06FF8002092
:1004E00000F006F800F024F8002010BD003C0240A7
:1004F00070B50D4D04464FF47A712878B1FBF0F0D9
:100500000A490968B1FBF0F000F002FB48B9102C71
:1005100007D200222146501E00F030F800206C6007
:1005200070BD012070BD0000000000200C00002004
:100530000A4808B5016841F480410160006800F490
:10054000804000900548001F016841F08051016023
:10055000006800F08050009008BD00004438024060
:10056000002809DB00F01F020121914040098000B2
:1005700000F1E020C0F8001170470000F0B40E4B0D
:100580001B680C46C3F30223C3F10705042D00D9F1
:100590000425191D072901D2002300E0DB1E0126D6
:1005A00006FA05F1491E214099409E40761E1640EC
:1005B0003143F0BC01F0BEBD0CED00E0064900F097
:1005C000070208684FF6FF03184040EA0220034A7A
:1005D00010430860704700000CED00E00000FA05D1
:1005E0002DE9F0470E46050065D0DFF81481D8F8F4
:1005F0000000F7B200F00F00B04207D288F8007098
:10060000D8F8000000F00F00B04254D128683D4CEB
:10061000810712D5400703D5206840F4E0502060E0
:100620002878000703D5206840F4604020602068E7
:10063000A96820F0F000084320602878C0072DD07A
:10064000304968680839012812D0022813D00328DD
:1006500011D00968890700292DDA216821F00301EA
:1006600001432160FFF71CFF814641F2883A0EE00A
:1006700009688903EFE709688901ECE7FFF710FFD4
:10068000A0EB0901514502D90320BDE8F08720689D
:10069000696800F00C00B0EB810FEFD1D8F80010C2
:1006A000404601F00F01B14207D90770006800F021
:1006B0000F00B04201D00120E7E72878400705D5B8
:1006C0002068E96820F4E05008432060287800079B
:1006D00006D52068296920F4604040EAC100206006
:1006E00000F038F82168084AC1F30311515CC84092
:1006F0000649086006480068FFF7FAFE0020C4E7D4
:10070000003C024008380240742300080C0000201E
:10071000040000200448054900680968044AC1F340
:100720008221515CC84070470C000020083802400C
:10073000842300080448054900680968044AC1F395
:100740004231515CC84070470C000020083802401C
:1007500084230008154810B5006810F00C021448F6
:1007600013D04110042A0FD0082A0ED10F4C241F99
:100770002268236802F03F025B0207D52068C0F3BD
:100780008810A0FB010106E0084610BD2168C1F3F6
:100790008811A1FB00010023FFF712FD2168C1F3BE
:1007A0000141491C4900B0FBF1F010BD083802407E
:1007B0000024F4002DE9F84F04006ED02078DFF813
:1007C0003C93C007A9F104054AD009F1040001686F
:1007D000C1F38101012908D00068C0F3810002281B
:1007E0000AD1D9F80000400206D52868800337D521
:1007F00060680028E1D033E06068B0F5803F10D039
:10080000B0F5A02F286810D020F480302860286828
:1008100020F4802028606068A8B1FFF741FE0646FA
:100820000DE0286840F48030F4E740F48020286030
:10083000F7E700BFFFF734FE801B642873D82868F1
:100840008003F7D50CE0FFF72BFE064605E000BF5E
:10085000FFF726FE801B6428F0D828688003F7D4B1
:100860002078DFF89C8280074FF0000A3ED5A3482D
:10087000001D016811F00C0F08D00068C0F3810062
:1008800002280BD1D9F80000400207D4286880075D
:1008900016D5E068012800D112E02BE1E068B8B17C
:1008A0000120C8F80000FFF7FBFD064605E000BF89
:1008B000FFF7F6FD801B0228C0D828688007F7D50F
:1008C0002868216920F0F80040EAC10028600DE0A6
:1008D000C8F800A0FFF7E4FD064604E0FFF7E0FDDE
:1008E000801B02281FD828688007F7D420780007CB
:1008F00022D5824E83486169703671B10121016051
:10090000FFF7CEFD074604E0FFF7CAFDC01B022833
:1009100009D830688007F7D50EE0C0F800A0FFF7CF
:10092000BFFD074605E082E0FFF7BAFDC01B0228C5
:100930007DD830688007F7D42078400768D5DFF885
:10094000BCB100270BF13C0BDBF80000C0000BD45E
:10095000DBF8001041F08051CBF80010DBF800000C
:10096000012700F080500090674E3068C00510D419
:10097000306840F480703060FFF792FD009005E031
:10098000FFF78EFD0099401A022850D83068C00544
:10099000F6D55A4EA0686C3601280FD0052830686D
:1009A00010D020F001003060306820F0040030608A
:1009B000A068B8B1FFF774FD00900FE0306840F018
:1009C0000100F4E740F004003060F7E7FFF768FD4E
:1009D0000099411A41F28830814266D83068800718
:1009E000F4D50EE0FFF75CFD009007E0FFF758FD3F
:1009F0000099411A41F28830814256D83068800708
:100A0000F4D42FB1DBF8001021F08051CBF80010A6
:100A1000A069C8B33949091D0968C1F381010229D8
:100A20004AD00228504607D0C8F8600000E03CE0F9
:100A3000FFF736FD04463BE04746C8F86000FFF785
:100A40002FFD064605E000BFFFF72AFD801B0228A8
:100A50002BD828688001F7D4D4E907010843A16A9C
:100A60002A4A490802EB0141626A41EA82110843BD
:100A700094F82C1040EA0161C9F800100120386692
:100A8000FFF70EFD044606E036E000BFFFF708FD65
:100A9000001B022809D828688001F7D52CE000BF88
:100AA000FFF7FEFC001B022802D90320BDE8F88FE7
:100AB00028688001F4D41FE00128F7D0D9F800009D
:100AC000E26900F48001914214D1226A00F03F01F2
:100AD00091420FD147F6C071626A0140914209D13B
:100AE000A26A00F44031914204D1E16A00F07060E2
:100AF000884201D00120D9E70020D7E7043802401E
:100B000000004742800E4742007000400000FFFF97
:100B100010B5401EB0F1807F01D3012010BD4FF011
:100B2000E02460610F21601701F004FB0020A06148
:100B300007202061002010BD7047704710B590F865
:100B40003C20012A22D0012280F83C20CA688C680F
:100B500022F4407222434C6822F4806222430C68E3
:100B600022F4006222430C6922F4805222434C6931
:100B700022F400522243C969002322F480420A432E
:100B800001684A6480F83C30002010BD022010BD8E
:100B900070B590F83C20012A32D0012480F83C4006
:100BA000022280F83D2003685A689D6822F0700692
:100BB0000A6832435A60134B02689A4214D0B2F169
:100BC000804F11D0104B9A420ED0104B9A420BD04E
:100BD0000F4B9A4208D00F4B9A4205D00E4B9A42C7
:100BE00002D00E4B9A4204D1496825F08003194384
:100BF000916080F83D40002180F83C10084670BDAF
:100C0000022070BD000001400004004000080040C8
:100C1000000C00400004014000400140001800406A
:100C200010B5040003D094F83D0010B107E0012096
:100C300010BD002084F83C00204600F00DF8022092
:100C400084F83D00211D206801F00CF8012084F893
:100C50003D00002010BD000008B500681149884221
:100C600009D11148016841F001010160006800F0FC
:100C70000100009008BD0D498842FBD10A48001FC1
:100C8000016841F0100101600068002200F01000CE
:100C9000009011463620FFF771FCBDE80840362071
:100CA000FFF75EBC000001404438024000100040E5
:100CB0000168CA6842F00102CA600068816801F0F8
:100CC0000701062903D0016841F0010101600020FD
:100CD000704770B5044690F83C00012817D00125F4
:100CE00084F83C50022084F83D002068826822F09D
:100CF000770222F47F4282600868502830D00DDCF1
:100D000020284DD005DC98B310283BD148E00220C4
:100D100070BD302844D0402834D139E0602828D034
:100D2000702806D0B0F5805F2CD0B0F5005F29D1D7
:100D30000AE0CB68D1E90121206801F004F82068BD
:100D4000816841F0770109E0CB68D1E90121206891
:100D500000F0F9FF2068816841F48041816011E072
:100D6000CA684968206801F0C3F85021206807E08C
:100D700016E0CA684968206801F0CBF86021206855
:100D800000F0EBFF84F83D50002084F83C0070BD7B
:100D9000CA684968206801F0ABF840212068EFE795
:100DA000226801461046EBE72DE9F0410D460400AC
:100DB00003D094F83D0018B108E00120BDE8F081AF
:100DC000002084F83C00204600F03AF8022084F825
:100DD0003D002068816844F2070291438160211D33
:100DE000206800F03FFF226890689169166A2B68BE
:100DF000AF69034340F20330814341EA0721A86809
:100E0000EF6908434FF6FC418843E96840EA072050
:100E1000014328692F6A000140EA073008436968E6
:100E20006D6926F0AA0646EA0515294393602268F3
:100E3000906120680162012084F83D000020BDE738
:100E400070B586B0044614216846FFF7F1F94149B0
:100E5000236800243F4A103902253F48B3F1804FF0
:100E600014D03E4EB3423FD1136843F002031360E7
:100E7000126802F0020205920A6842F001020A605A
:100E8000096801F001010591C0215CE0136843F09D
:100E900001031360126802F0010205920A6842F031
:100EA00001020A600A6802F0010205920A6842F033
:100EB00002020A600968012601F002010591202161
:100EC0000091CDE90154CDE903466946FFF706FAE2
:100ED00008200090CDE90154CDE903466946204839
:100EE000FFF7FCF906B070BD1E4EB34217D1106873
:100EF00040F004001060106800F0040005900868DD
:100F000040F0080008600868694600F00800059095
:100F10004FF440500090CDE90154134817E0134EB0
:100F2000B342DFD1136843F008031360126802F084
:100F3000080205920A6842F001020A60096801F09D
:100F40000101059103210091CDE901546946CDE9E4
:100F50000345C5E74038024000000240000400405D
:100F60000004024000080040000C0240000C004059
:100F700010B50446006891B1042904D00122002173
:100F800000F0D4FE206801225FF0040100F0CEFEE4
:100F90002068016841F001010160002010BD0122BC
:100FA0000021F3E7704770B50446006801694FF00F
:100FB0000005C943890715D4C168C943890711D4FD
:100FC000E91E0161012020772068806980072046A2
:100FD00002D0FFF7E7FF04E000F0C2F8204600F07F
:100FE00044F9257720680169C943490717D4C168C6
:100FF000C943490713D46FF004010161022020772F
:101000002068806910F4407F204602D0FFF7CAFFB5
:1010100004E000F0A5F8204600F027F925772068C5
:101020000169C943090716D4C168C943090712D425
:101030006FF008010161042020772068C0698007F3
:10104000204602D0FFF7AEFF04E000F089F820460A
:1010500000F00BF9257720680169C943C90617D448
:10106000C168C943C90613D46FF01001016108209B
:1010700020772068C06910F4407F204602D0FFF737
:1010800091FF04E000F06CF8204600F0EEF82577C0
:1010900020680169C943C90708D1C168C943C907A4
:1010A00004D1891E0161204600F002F9206801691F
:1010B000C943090609D4C168C943090605D46FF0BC
:1010C000800101612046FFF737FD20680169C943AF
:1010D000490609D4C168C943490605D46FF04001E7
:1010E0000161204600F05AF920680169C943890668
:1010F0000BD4C168C943890607D46FF02001016190
:101100002046BDE87040FFF718BD70BD10B586B031
:10111000044614216846FFF78BF80E492068884280
:1011200016D10D480021026842F0100202600068EA
:1011300000F0100005904FF4D44000900220CDE95B
:1011400001010120CDE9031069460448FFF7C6F804
:1011500006B010BD000001403038024000100240CF
:10116000704770B5044690F83C000D4601280DD03C
:10117000012684F83C60022084F83D0042B1042A34
:1011800018D0082A2AD00C2A4DD139E0022070BD8F
:10119000206800F0EBFD2068816941F00801816161
:1011A0002068816921F004018161206881692A69D0
:1011B000114311E0206800F009FE2068816941F4C4
:1011C000006181612068816921F48061816120680A
:1011D00081692A6941EA0221816124E0206800F0E6
:1011E0002BFE2068C16941F00801C1612068C16916
:1011F00021F00401C1612068C1692A69114311E02D
:10120000206800F04DFE2068C16941F40061C161B1
:101210002068C16921F48061C1612068C1692A69BF
:1012200041EA0221C16184F83D60002084F83C005D
:1012300070BD10B5040003D094F83D0010B107E074
:10124000012010BD002084F83C00204600F00CF87E
:10125000022084F83D00211D206800F003FD0120DC
:1012600084F83D00002010BD7047704710B504465B
:101270000068012200F05AFD0B492068884202D024
:101280000A49884203D1416C41F40041416420681D
:10129000816801F00701062903D0016841F00101CE
:1012A0000160002010BD000000000140000401406A
:1012B000F8B5284988424BD1022000F0EDFB264CBE
:1012C0002060032000F0E8FB244D2860042000F09B
:1012D000E3FB234E3060052000F0DEFB214F386039
:1012E000009033682A6820A0216800F013FFDFED2A
:1012F000220AB2EE040AB0EE601A00F0C5F91F48E7
:101300000168206800F010F91D4C20601D4801683C
:10131000286800F035F91C4D28601C4801683068C9
:1013200000F05AF91A4E30601A480168386800F027
:101330007FF9194F38604FF4FA5000F0C5FE3B6852
:1013400032682968206801B0BDE8F04000F0C6BBF3
:10135000F8BD0000BC010020680000206C000020E7
:10136000700000207400002025642C25642C256466
:101370002C25640D0A000000000000005800002029
:10138000480000205C0000204C000020600000208D
:10139000500000206400002054000020704770B509
:1013A000040004D094F83900002510B106E00120B3
:1013B00070BD84F83850204600F022F8242084F8CC
:1013C00039002068C16821F40051C160204600F056
:1013D000B3FD2068016921F49041016120684169F1
:1013E00021F02A0141612068C16841F40051C160C7
:1013F000E563202084F8390084F83A00002070BDAD
:1014000010B586B0044614216846FEF711FF144952
:101410002068884221D113480021026842F010025E
:101420000260006800F0100005900E481438026851
:1014300042F001020260006800F0010005904FF4E4
:10144000C06000900220CDE9010103200390072035
:10145000049069460448FEF741FF06B010BD000045
:101460000010014044380240000002402DE9F843DA
:10147000044690F839001F4616460D46202850D1E4
:10148000B5B1AEB194F8380001284AD0012084F8F3
:1014900038004FF00008C4F83C80212084F839005F
:1014A000FEF7FEFFA6848146E68484F8388026E0B5
:1014B0000120BDE8F883E08C401EE084A0684B4624
:1014C000B0F5805F4FF000024FF08001204600979A
:1014D00003D000F0C5FDE8B90DE000F0C1FDC8B9CA
:1014E00028882168C0F308004860206908B16D1C95
:1014F00005E0AD1C03E0216815F8010B4860E08CA5
:101500000028D8D14B46002240212046009700F009
:10151000A7FD08B10320CCE7202084F83900002083
:10152000C7E70220C5E7FEE7411A144842F2D0039C
:101530000269D0ED000A8A1A00EE102A90ED011A15
:10154000B8EEC00A60EE200A00EE101AB8EEC00A2B
:1015500041EE000A90ED030AB8EEC00A30EE800AB0
:10156000BDEEC00A10EE102AC2609A4202DC5B4255
:101570009A4200DAC3600161C06870471000002021
:10158000411A144842F2D003C269D0ED000A8A1A07
:1015900000EE102A90ED011AB8EEC00A60EE200AA3
:1015A00000EE101AB8EEC00A41EE000A90ED060AED
:1015B000B8EEC00A30EE800ABDEEC00A10EE102A66
:1015C00082619A4202DC5B429A4200DA8361C16125
:1015D0008069704710000020411A144842F2D0037D
:1015E000826AD0ED000A8A1A00EE102A90ED011AE4
:1015F000B8EEC00A60EE200A00EE101AB8EEC00A7B
:1016000041EE000A90ED090AB8EEC00A30EE800AF9
:10161000BDEEC00A10EE102A42629A4202DC5B4222
:101620009A4200DA43628162406A704710000020EB
:10163000411A144842F2D003426BD0ED000A8A1AD4
:1016400000EE102A90ED011AB8EEC00A60EE200AF2
:1016500000EE101AB8EEC00A41EE000A90ED0C0A36
:10166000B8EEC00A30EE800ABDEEC00A10EE102AB5
:1016700002639A4202DC5B429A4200DA03634163EE
:10168000006B70471000002030EEC02A30EE200AB8
:10169000DFED0F1A0F48F0EE422AF0EE400A41EE5D
:1016A000612A41EE210A01EE212A01EE610AFDEED6
:1016B000E22AFDEEE00AC0ED122AC0ED130AFDEEAB
:1016C000C20ABDEEC00AC0ED140A80ED150A7047CB
:1016D0001058393E1000002030B587B014216846FC
:1016E000FEF7A6FD1E480024016841F0800101605C
:1016F000016801F080010591016841F0010101607C
:10170000016801F001010591016841F010010160DB
:10171000016801F010010591016841F008010160C4
:10172000016801F008010591016841F002010160C2
:1017300000680C4D00F0020005900022FF212846B1
:10174000FEF7A8FEFF200090012001900220CDE9C5
:10175000020469462846FEF7C1FD07B030BD00000F
:1017600030380240000C024010B596B000240F94AF
:1017700010941194129413941C2168461494FEF74B
:1017800057FD202107A8FEF753FD34483249C0E930
:10179000001442F2CF01C0E9024180210461C0E996
:1017A0000541FFF73DFA08B1FEF796FD4FF4805072
:1017B0000F900FA92948FFF78CFA08B1FEF78CFDAE
:1017C0002648FFF736FD08B1FEF786FD139413A9EE
:1017D00022481494FFF7DCF908B1FEF77DFD602084
:1017E000CDE9000402940394049405940022694610
:1017F0001A480694FFF7B5FC08B1FEF76DFD042208
:1018000069461648FFF7ADFC08B1FEF765FD0822F2
:1018100069461248FFF7A5FC08B1FEF75DFD0C22F2
:1018200069460E48FFF79DFC08B1FEF755FD079489
:10183000089409944FF400500A94CDE90B4007A98D
:1018400006480E94FFF77AF908B1FEF745FD034804
:10185000FFF75CFC16B010BD000001407C000020CA
:1018600010B58CB024216846FEF7E2FC002416482F
:1018700009944FF080410A94C0E900144FF6FF71BB
:10188000C0E90241046184610320CDE90004012024
:10189000CDE902040A210491CDE90540CDE90741D3
:1018A00069460948FFF780FA08B1FEF715FD09946B
:1018B00009A905480A94FFF76BF9002801D0FEF743
:1018C0000BFD0CB010BD0000BC00002010B58CB0AA
:1018D00024216846FEF7ACFC0024164809941449FC
:1018E0000A94C0E900144FF6FF71C0E90241046197
:1018F00084610320CDE900040120CDE902040A211E
:101900000491CDE90540CDE9074169460948FFF753
:101910004BFA08B1FEF7E0FC099409A905480A94BE
:10192000FFF736F9002801D0FEF7D6FC0CB010BD49
:1019300000040040FC00002010B58CB02421684653
:10194000FEF776FC00241648099414490A94C0E96D
:1019500000144FF6FF71C0E9024104618461032065
:10196000CDE900040120CDE902040A210491CDE96A
:101970000540CDE9074169460948FFF715FA08B166
:10198000FEF7AAFC099409A905480A94FFF700F993
:10199000002801D0FEF7A0FC0CB010BD00080040EC
:1019A0003C01002010B58CB024216846FEF740FCB5
:1019B00000241648099414490A94C0E900144FF60B
:1019C000FF71C0E90241046184610320CDE9000494
:1019D0000120CDE902040A210491CDE90540CDE9B9
:1019E000074169460948FFF7DFF908B1FEF774FCC3
:1019F000099409A905480A94FFF7CAF8002801D0FC
:101A0000FEF76AFC0CB010BD000C00407C01002009
:101A10001CB500240F4800940D4901940160532126
:101A2000C0E9011442F20F71C16080218161FFF7AA
:101A3000F7F808B1FEF750FC009469460548019498
:101A4000FFF7A6F8002801D0FEF746FC1CBD0000F9
:101A500000100040BC0100200C4810B50A4901608C
:101A60004FF4E1314160002181600C22C160C0E986
:101A700004128161C161FFF792FC002803D0BDE828
:101A80001040FEF729BC10BD00100140FC010020F1
:101A9000FEE77047704700000021022807D00328A6
:101AA00007D0042807D0052807D000207047064833
:101AB00004E0064802E0064800E006480268506A72
:101AC000516200B270470000BC000020FC00002002
:101AD0003C0100207C0100207047000070B5334DB0
:101AE000334C002809DD2E687063206820F0010067
:101AF0002060206840F002000AE000F037FC2E6809
:101B00007063206840F001002060206820F002002F
:101B10002060002909DD28688163206840F0040006
:101B20002060206820F008000BE0084600F01EFC52
:101B300029688863206820F004002060206840F055
:101B400008002060002A0ADD2868C263206840F08F
:101B500010002060206820F0200020600CE0206849
:101B600020F010002060206840F020002060104627
:101B700000F0FCFB2968C863002B09DD28680364BA
:101B8000206820F040002060206840F080000BE0DA
:101B9000184600F0EBFB29680864206840F040001C
:101BA0002060206820F08000206070BD7C00002054
:101BB000140C0240FEF77ABC30B593B03021684671
:101BC000FEF736FB14210CA8FEF732FB194800255E
:101BD000016841F080510160006800F08050119070
:101BE0001548016841F4804101600068022400F456
:101BF0008040119001200090000401908001CDE907
:101C00000640082008904FF4A870CDE9090404208C
:101C10000B906846FEF7CEFD0F20CDE90C04802026
:101C20000E904001CDE90F0502210CA8FEF7D8FC6B
:101C300013B030BD403802400070004005480168D4
:101C400041F47001016003494FF000608039086081
:101C50007047000088ED00E00148FFF7A4B90000DC
:101C6000BC010020F0B50268254C264D264E274FBA
:101C7000274B4FF0804CA04209D0604507D0A842C6
:101C800005D0B04203D0B84201D0984204D122F02E
:101C9000700E4A6842EA0E02A0421BD0604519D07D
:101CA000A84217D0B04215D0B84213D0984211D0F4
:101CB000184DA8420ED0184DA8420BD0174DA8427F
:101CC00008D0174DA84205D0164DA84202D0164D97
:101CD000A84203D122F44075CA682A434D6922F014
:101CE00080022A4302608A68C2620A688262A04255
:101CF00001D0984201D10969016301214161F0BD20
:101D0000000001400004004000080040000C0040BA
:101D100000040140004001400044014000480140EF
:101D200000180040001C00400020004010B501F0E9
:101D30001F030121046A99408C430462016A9A409E
:101D40001143016210BD10B5846842EA032224F4F5
:101D50007F440A432243826010BD826822F07002F1
:101D60000A4342F00701816070470000F0B5026A43
:101D700022F001020262036A42688469124E24F072
:101D800073050C682C4323F002058B682B430D4D23
:101D9000A84201D0B04205D123F00807CB683B43ED
:101DA00023F00403A84201D0B04205D14D6922F4CA
:101DB000407215438A692A434260846149684163DD
:101DC0000362F0BD0000014000040140F0B5026A6A
:101DD00022F010020262026A436884690D6824F4EA
:101DE000E64444EA05248D6822F0200242EA051206
:101DF0000F4D104EA84201D0B04206D1CF6822F05C
:101E0000800242EA071222F04002A84201D0B0420A
:101E100007D14D6923F4406343EA85038D6943EAA2
:101E2000850343608461496881630262F0BD0000FC
:101E30000000014000040140F0B5026A22F4807203
:101E40000262026A4368C46922F4007224F07305D6
:101E50000C68124E2C438D6842EA05220E4DA842B2
:101E600001D0B04206D1CF6822F4006242EA0722D4
:101E700022F48062A84201D0B04207D14D6923F418
:101E8000405343EA05138D6943EA05134360C46177
:101E90004968C1630262F0BD0000014000040140D6
:101EA00030B5026A22F480520262046A4268C36951
:101EB0000D6823F4E64343EA05238D6824F40054B7
:101EC00044EA0534084DA84202D0084DA84204D186
:101ED0004D6922F4804242EA85124260C36149683A
:101EE0000164046230BD00000000014000040140B4
:101EF00010B5036A046A24F001040462846924F0C2
:101F0000F00444EA021423F00A020A4384610262E4
:101F100010BD10B5036A23F0100303628369046ADD
:101F200023F4704343EA023224F0A00343EA011190
:101F30008261016210BD00002DE9F0410446006895
:101F40000169E26821F44051114301612169A068EF
:101F5000E26908436169114308432168CA6849F28C
:101F60000C639A430243CA6020684169A26921F464
:101F7000407111434161E069192764253226B0F5AB
:101F8000004F354A354920684FF0000806D0884296
:101F900001D0904236D1FEF7CDFB35E0884201D02A
:101FA000904202D1FEF7C6FB01E0FEF7B3FB616889
:101FB0004A18A0FB070148EB0803FEF701F90146A8
:101FC000B0FBF5F00201B1FBF5F06FF018035843D8
:101FD00001EB800006EBC000B0FBF5F000F0F8006C
:101FE00002EB4002B1FBF5F0584301EB800006EB39
:101FF000C000B0FBF5F000F00700216810448860D5
:10200000BDE8F081FEF786FB61688B0F8A00A0FBBC
:102010000701FEF7D5F80146B0FBF5F06FF01802A6
:10202000504301EB800006EB0010B0FBF5F000F030
:10203000F002B1FBF5F002EB0012B1FBF5F06FF02E
:102040001803584301EB800006EB0010B0FBF5F0DD
:1020500000F00F00D1E70000001401400010014023
:102060002DE9F041984617460E460446069D1DE0B0
:10207000681C1BD02DB1FEF713FAA0EB0800A84294
:1020800014D92068C16821F4D071C1602068416909
:1020900021F001014161202084F8390084F83A00E0
:1020A000002084F838000320BDE8F0812068006833
:1020B00036EA000004D00020B842D9D00020F3E76F
:1020C0000120F9E7FEE70000114942428B6B934281
:1020D00000DA8A638B6B834200DD8863CB6B9342AB
:1020E00000DACA63CB6B834200DDC8630B6C93429A
:1020F00000DA0A640B6C834200DD08644B6C934287
:1021000001DB1A4600E04A64824200DD4864704701
:10211000100000200FB4054B10B503A9044A029823
:1021200000F028F810BC5DF814FB0000C92200087C
:10213000780000200907090E002804DB00F1E020E8
:1021400080F80014704700F00F0000F1E02080F8E4
:10215000141D704702E008C8121F08C1002AFAD1F6
:1021600070477047002001E001C1121F002AFBD117
:10217000704700002DE9FF4F89B09B4604460025BB
:1021800006E025280BD05A460B999047641C6D1C1D
:1021900020780028F5D10DB02846BDE8F08F002743
:1021A000B8460122474900E0074314F8013F203BAD
:1021B00002FA03F00842F7D120782E2819D114F83A
:1021C000010F47F004072A280ED06FF02F02207865
:1021D000A0F1300109290CD808EB880102EB41017C
:1021E00000EB0108641CF2E70A98641C50F8048BA9
:1021F0000A9020780028CED0642808D0692806D01C
:1022000075281ED05A460B9990476D1C58E00A99C4
:102210004FF00A0901C90A91002802DA40422D2133
:1022200002E0390504D52B218DF82010012103E0AF
:10223000F90704D02021F7E78A4608AE0DE0002117
:10224000FAE70A994FF00A0901C90A91F7E74946E6
:10225000FDF7F9FF303106F8011D0028F7D1ADEB8D
:10226000060000F12009780701D44FF00108C845A5
:1022700002DDA8EB090000E000208046002706E010
:1022800008A85A46C05D0B9990476D1C7F1C5745A6
:10229000F6DB04E030205A460B9990476D1CB8F1EC
:1022A0000001A8F10108F5DC05E016F8010B5A461B
:1022B0000B9990476D1CB9F10001A9F10109F4DCFB
:1022C000641C65E70928010038B504468DF8000054
:1022D0000223012269460248FFF7C8F8204638BDAC
:1022E000FC010020FEF7EAF8FFF766FCFFF7F4F9BF
:1022F000FFF7B6FAFFF7EAFAFFF71EFBFFF752FB0C
:10230000FFF732FAFFF784FBFFF7A6FB3C211148E9
:10231000FEF72EFE3C211048FEF72AFE3C210F4816
:10232000FEF726FE3C210E48FEF722FE00210D4856
:10233000FEF79CFF04210B48FEF798FF082109488F
:10234000FEF794FF0C210748FEF790FF0648FEF7C2
:10235000AFFCFEE7BC000020FC0000203C01002098
:102360007C0100207C000020BC010020002800DA55
:10237000404270470000000000000000010203041A
:10238000060708090000000001020304AC2300084E
:10239000000000207C0000005421000828240008D0
:1023A0007C000020C405000064210008010000003A
:1023B00010000000000000000024F400000020C114
:1023C000000020C10000000000000000000000002C
:1023D00000000000000000000000000000000000FD
:1023E00000000000000000000000000000000000ED
:1023F00000000000000000000000000000000000DD
:1024000000000000000000000000000000000000CC
:1024100000000000000000000000000000000000BC
:082420000000000000000000B4
:040000050800018965
:00000001FF
