:020000040800F2
:10000000B00400209D010008FF0F0008D10E000879
:10001000FD0F0008CD0200081D14000800000000BC
:10002000000000000000000000000000391200087D
:10003000CF02000800000000F51000083B12000885
:10004000B7010008B7010008B7010008B7010008B0
:10005000B7010008B7010008B7010008B7010008A0
:10006000B7010008B7010008B7010008B701000890
:10007000B7010008B7010008B7010008B701000880
:10008000B7010008B7010008B7010008B701000870
:10009000B7010008B7010008B7010008B701000860
:1000A000B7010008B7010008B7010008B701000850
:1000B000B7010008B7010008B7010008B701000840
:1000C000B7010008B7010008B7010008B701000830
:1000D000B7010008B7010008B7010008B701000820
:1000E000B7010008B7010008B7010008B701000810
:1000F000B7010008B7010008B7010008B701000800
:10010000B7010008B7010008B7010008B7010008EF
:10011000B7010008B7010008B7010008B7010008DF
:10012000B7010008B7010008B7010008B7010008CF
:10013000B7010008B7010008B7010008B7010008BF
:10014000B7010008B7010008B7010008B7010008AF
:10015000B7010008B7010008B7010008B70100089F
:10016000B7010008B7010008B7010008B70100088F
:10017000B7010008B7010008B7010008000000003F
:10018000B7010008B7010008DFF80CD000F08CF8C8
:1001900000480047A5140008B00400200648804726
:1001A00006480047FEE7FEE7FEE7FEE7FEE7FEE75C
:1001B000FEE7FEE7FEE7FEE7D91200088901000826
:1001C0002DE9F05F0546002092469B46884606468C
:1001D000814640241BE0284641464746224600F01F
:1001E00053F853465A46C01A914110D31146184647
:1001F000224600F03AF82D1A67EB01084F462246D6
:100200000120002100F031F817EB00094E41201EBB
:10021000A4F10104DFDC484631462A464346BDE8E6
:10022000F09F40EA01039B0703D009E008C9121FB1
:1002300008C0042AFAD203E011F8013B00F8013BA0
:10024000521EF9D27047D2B201E000F8012B491ECC
:10025000FBD270470022F6E710B513460A46044663
:100260001946FFF7F0FF204610BD202A04DB203A94
:1002700000FA02F1002070479140C2F1200320FAF9
:1002800003F3194390407047202A04DB203A21FAF7
:1002900002F00021704721FA02F3D040C2F120029F
:1002A0009140084319467047064C074D06E0E06848
:1002B00040F0010394E8070098471034AC42F6D3AD
:1002C000FFF766FF5015000870150008FEE770473D
:1002D00072B6FEE770B5044600F0F0F80546601C03
:1002E00002D004480078044400F0E8F8401BA04223
:1002F000FAD370BD000000202DE9F84F00224FF026
:10030000010803254FF00F0E0B6808FA02F4234092
:10031000A3426ED14E68012E05D0022E03D0112EBD
:1003200001D0122E12D186684FEA420C05FA0CF762
:10033000BE43CF6807FA0CF7374387604668A64389
:100340000C79C4F30014944034434460C6685700E9
:1003500005FA07FC8C6826EA0C06BC403443C460EE
:100360004C68022C01D0122C13D1D40800EB840469
:10037000A346D4F8209054074FEAD46A0EFA0AF63E
:1003800029EA06090E6906FA0AF646EA0906CBF8D2
:10039000206006680C7926EA0C0604F00304BC40D1
:1003A000344304604C68E40065D5364C266846F456
:1003B00080462660246822F0030604F480440094FA
:1003C000314C3444A446D4F808489607370F0EFA47
:1003D00007F6B4432D4EB04201D1002624E02C4E46
:1003E000B04201D101261FE02A4EB04202D10226BE
:1003F0001AE040E0284EB04201D1032614E0274E17
:10040000B04201D104260FE0254EB04201D10526AD
:100410000AE0244EB04201D1062605E0224EB04249
:1004200001D1072600E00826BE402643CCF8086824
:100430001E4E34684F689C43FF0300D51C43346054
:100440001A4C241D26684F689E43BF0300D51E43E7
:100450002660164E083634684F689C43FF0200D56C
:100460001C433460114E0C3634684F689C43BF0205
:1004700000D51C433460521C102AFFF445AFBDE880
:10048000F88F000044380240003001400000024074
:100490000004024000080240000C0240001002402C
:1004A0000014024000180240001C0240003C0140C1
:1004B0000AB1816170470904FBE7000001488068C8
:1004C0007047000000000020024881680278114453
:1004D00081607047000000200B4810B5016841F4AE
:1004E00000710160016841F480610160016841F4BC
:1004F00080710160032000F061F8002000F006F830
:1005000000F024F8002010BD003C024070B50D4DF5
:1005100004464FF47A712878B1FBF0F00A49096873
:10052000B1FBF0F000F059FC48B9102C07D20022C2
:100530002146501E00F022F800206C6070BD0120A2
:1005400070BD0000000000200C0000200A4808B523
:10055000016841F480410160006800F4804000902F
:100560000548001F016841F080510160006800F0FB
:100570008050009008BD000044380240F0B40E4B9B
:100580001B680C46C3F30223C3F10705042D00D9F1
:100590000425191D072901D2002300E0DB1E0126D6
:1005A00006FA05F1491E214099409E40761E1640EC
:1005B0003143F0BC00F03CBF0CED00E0064900F018
:1005C000070208684FF6FF03184040EA0220034A7A
:1005D00010430860704700000CED00E00000FA05D1
:1005E0002DE9F0470E46050065D0DFF81481D8F8F4
:1005F0000000F7B200F00F00B04207D288F8007098
:10060000D8F8000000F00F00B04254D128683D4CEB
:10061000810712D5400703D5206840F4E0502060E0
:100620002878000703D5206840F4604020602068E7
:10063000A96820F0F000084320602878C0072DD07A
:10064000304968680839012812D0022813D00328DD
:1006500011D00968890700292DDA216821F00301EA
:1006600001432160FFF72AFF814641F2883A0EE0FC
:1006700009688903EFE709688901ECE7FFF71EFFC6
:10068000A0EB0901514502D90320BDE8F08720689D
:10069000696800F00C00B0EB810FEFD1D8F80010C2
:1006A000404601F00F01B14207D90770006800F021
:1006B0000F00B04201D00120E7E72878400705D5B8
:1006C0002068E96820F4E05008432060287800079B
:1006D00006D52068296920F4604040EAC100206006
:1006E00000F038F82168084AC1F30311515CC84092
:1006F0000649086006480068FFF708FF0020C4E7C5
:10070000003C024008380240351500080C0000206B
:10071000040000200448054900680968044AC1F340
:100720008221515CC84070470C000020083802400C
:10073000451500080448054900680968044AC1F3E2
:100740004231515CC84070470C000020083802401C
:1007500045150008154810B5006810F00C02144843
:1007600013D04110042A0FD0082A0ED10F4C241F99
:100770002268236802F03F025B0207D52068C0F3BD
:100780008810A0FB010106E0084610BD2168C1F3F6
:100790008811A1FB00010023FFF712FD2168C1F3BE
:1007A0000141491C4900B0FBF1F010BD083802407E
:1007B0000024F4002DE9F84F04006ED02078DFF813
:1007C0003C93C007A9F104054AD009F1040001686F
:1007D000C1F38101012908D00068C0F3810002281B
:1007E0000AD1D9F80000400206D52868800337D521
:1007F00060680028E1D033E06068B0F5803F10D039
:10080000B0F5A02F286810D020F480302860286828
:1008100020F4802028606068A8B1FFF74FFE0646EC
:100820000DE0286840F48030F4E740F48020286030
:10083000F7E700BFFFF742FE801B642873D82868E3
:100840008003F7D50CE0FFF739FE064605E000BF50
:10085000FFF734FE801B6428F0D828688003F7D4A3
:100860002078DFF89C8280074FF0000A3ED5A3482D
:10087000001D016811F00C0F08D00068C0F3810062
:1008800002280BD1D9F80000400207D4286880075D
:1008900016D5E068012800D112E02BE1E068B8B17C
:1008A0000120C8F80000FFF709FE064605E000BF7A
:1008B000FFF704FE801B0228C0D828688007F7D500
:1008C0002868216920F0F80040EAC10028600DE0A6
:1008D000C8F800A0FFF7F2FD064604E0FFF7EEFDC2
:1008E000801B02281FD828688007F7D420780007CB
:1008F00022D5824E83486169703671B10121016051
:10090000FFF7DCFD074604E0FFF7D8FDC01B022817
:1009100009D830688007F7D50EE0C0F800A0FFF7CF
:10092000CDFD074605E082E0FFF7C8FDC01B0228A9
:100930007DD830688007F7D42078400768D5DFF885
:10094000BCB100270BF13C0BDBF80000C0000BD45E
:10095000DBF8001041F08051CBF80010DBF800000C
:10096000012700F080500090674E3068C00510D419
:10097000306840F480703060FFF7A0FD009005E023
:10098000FFF79CFD0099401A022850D83068C00536
:10099000F6D55A4EA0686C3601280FD0052830686D
:1009A00010D020F001003060306820F0040030608A
:1009B000A068B8B1FFF782FD00900FE0306840F00A
:1009C0000100F4E740F004003060F7E7FFF776FD40
:1009D0000099411A41F28830814266D83068800718
:1009E000F4D50EE0FFF76AFD009007E0FFF766FD23
:1009F0000099411A41F28830814256D83068800708
:100A0000F4D42FB1DBF8001021F08051CBF80010A6
:100A1000A069C8B33949091D0968C1F381010229D8
:100A20004AD00228504607D0C8F8600000E03CE0F9
:100A3000FFF744FD04463BE04746C8F86000FFF777
:100A40003DFD064605E000BFFFF738FD801B02288C
:100A50002BD828688001F7D4D4E907010843A16A9C
:100A60002A4A490802EB0141626A41EA82110843BD
:100A700094F82C1040EA0161C9F800100120386692
:100A8000FFF71CFD044606E036E000BFFFF716FD49
:100A9000001B022809D828688001F7D52CE000BF88
:100AA000FFF70CFD001B022802D90320BDE8F88FD8
:100AB00028688001F4D41FE00128F7D0D9F800009D
:100AC000E26900F48001914214D1226A00F03F01F2
:100AD00091420FD147F6C071626A0140914209D13B
:100AE000A26A00F44031914204D1E16A00F07060E2
:100AF000884201D00120D9E70020D7E7043802401E
:100B000000004742800E4742007000400000FFFF97
:100B100070B5040005D00025A56294F8510010B10D
:100B200006E0012070BD84F85050204600F030F8F7
:100B3000022084F851002068016821F04001016022
:100B4000D4E901010843D4E9031211430843616960
:100B50000843218B01F400710843E1690843216ACD
:100B60000843A16A084321680860A069042101EADA
:100B70001040616A0843216848602068C16921F417
:100B80000061C1616565012084F85100002070BDDD
:100B900010B586B0044614216846FFF75BFB134985
:100BA0002068884220D112480021026842F4805215
:100BB0000260006800F4805005900D481438026807
:100BC00042F002020260006800F002000590382046
:100BD00000900220CDE9010103200390052004903C
:100BE00069460448FFF788FB06B010BD003001409D
:100BF00044380240000402402DE9F84F044690F8C2
:100C0000500000270A9E1D4692468B464FF0010970
:100C100001280ED0012084F85000FFF74FFC8046D9
:100C200094F85100616801280CD0B1F5827F07D19A
:100C300002E00220BDE8F88FA16809B9042801D0BC
:100C40000227C2E0BBF1000F27D0BAF1000F24D079
:100C50001DB394F85100042802D0052084F85100F7
:100C600000206065C4F838A0E587A587C4F830B0D7
:100C7000E586A5862064606420680168490603D47F
:100C8000016841F040010160E068B0F5006F606804
:100C900005D0E8B3012D46D07FE0012795E008B1EB
:100CA000012D39D1206B21680088C860206B801C21
:100CB0002063E08E401EE0862EE020688168890770
:100CC0000FD5E18E69B1B9F1010F0AD1216B098805
:100CD000C160206B801C2063E08E401EE0864FF0D8
:100CE000000920688168C9070CD0E18F51B1C06844
:100CF000A16B0880A06B801CA063E08F401EE08782
:100D00004FF00109FFF7DAFBA0EB0800B04200E06A
:100D100009E001D3701C50D1E08E0028CDD1E08FC6
:100D20000028CAD13FE0206B216800780873206B4F
:100D3000401C2063E08E401EE0862EE02068816823
:100D400089070FD5E18E69B1B9F1010F0AD1216B85
:100D500009780173206B401C2063E08E401EE08602
:100D60004FF0000920688168C9070CD0E18F51B1AC
:100D7000C068A16B0870A06B401CA063E08F401E90
:100D8000E0874FF00109FFF799FBA0EB0800B042A4
:100D900002D3701C01D010E07EB1E08E0028CDD1CE
:100DA000E08F0028CAD142463146204600F0CEF9F5
:100DB00028B101272020606507E0032705E0A0682F
:100DC00018B92068C16880680090012084F851003B
:100DD000002084F8500038462CE710B5401EB0F1D2
:100DE000807F01D3012010BD4FF0E02460610F210E
:100DF000601700F01DFB0020A0610720206100208B
:100E000010BD70B5040004D094F83900002510B16D
:100E100006E0012070BD84F83850204600F022F82A
:100E2000242084F839002068C16821F40051C16091
:100E3000204600F05FFA2068016921F490410161C9
:100E40002068416921F02A0141612068C16841F4AC
:100E50000051C160E563202084F8390084F83A002D
:100E6000002070BD10B586B0044614216846FFF717
:100E7000F1F914492068884221D113480021026801
:100E800042F010020260006800F0100005900E4869
:100E90001438026842F001020260006800F00100AC
:100EA00005904FF4C06000900220CDE901010320BD
:100EB00003900720049069460448FFF71DFA06B026
:100EC00010BD000000100140443802400000024004
:100ED000FEE700002DE9F04186B014216846FFF7D7
:100EE000B9F923480024016841F0800101600168DC
:100EF00001F080010591016841F002010160016883
:100F000001F002010591016841F0400101600168B2
:100F100001F040010591016841F0010101600068A4
:100F2000144F00F001004FF480450590002229463F
:100F30003846FFF7BDFADFF840804FF4E076002234
:100F400031464046FFF7B4FA00950125CDE901543A
:100F5000694638460394FFF7CFF90096CDE901546E
:100F6000694640460394FFF7C7F906B0BDE8F08133
:100F7000303802400004024000180240104810B50A
:100F80000E4901604FF48271416000218160C160AF
:100F90004FF400720161C0E905121022C0E9072177
:100FA000416281620A21C162FFF7B2FD002803D0CD
:100FB000BDE81040FFF78CB910BD000000300140C3
:100FC000140000200C4810B50A4901604FF4E131CB
:100FD0004160002181600C22C160C0E9041281617E
:100FE000C161FFF70EFF002803D0BDE81040FFF7F6
:100FF0006FB910BD001001406C000020FEE7FEE755
:101000001CB510A1D1E90001CDE90001102000F0CC
:1010100083F805226946302000F04CF80522694625
:10102000102000F027F8002069460A5CA52A03D1A9
:10103000401CC0B20528F8D3052801D001201CBDF2
:1010400000201CBDA5A5A5A5A500000007480168B6
:1010500041F4804101600648016841F4800101606B
:10106000016841F0800101607047000018040240EF
:10107000181802402DE9F0410D4D884616462968A2
:1010800041F40001296000F037F80746002406E02B
:10109000FF2000F031F808F80400641CE4B2B44208
:1010A000F6D3286840F0800028603846BDE8F0811B
:1010B000181802402DE9F0410D4C0E4617462168E4
:1010C00041F40001216000F017F88046002505E09A
:1010D00016F8010B00F010F86D1CEDB2BD42F7D30D
:1010E000206840F0800020604046BDE8F0810000AC
:1010F000181802407047000001B582B04FF47A70B2
:101100000090012301AA02A90248FFF775FD9DF88E
:1011100004000EBD140000200B4910B50A681368C6
:1011200023F0400313600A6813684FF6C774234026
:1011300013600A681368034313600868016841F08C
:101140004001016010BD00001400002038B50446C5
:101150001248134B0068B0FBF3F04FF47A73584316
:1011600000906068B0F5827F0DD10B46009200229E
:101170008021204600F016F870B1606D40F020002C
:101180006065032038BD009830B1401E0090206893
:101190008068C0430006F6D5002038BD0C00002052
:1011A00000366E012DE9F0411D4617460E460446F5
:1011B000DDF8188008E0681C06D0FFF77FF9A0EB87
:1011C0000800A8420BD255B12068806836EA0000BA
:1011D00030D00020B842EED10020BDE8F081206878
:1011E000416821F0E00141606068B0F5827F0BD179
:1011F000A068B0F5004F02D0B0F5806F04D1206830
:10120000016821F040010160A06AB0F5005F09D1DA
:101210002068016821F4005101602068016841F4F0
:1012200000510160012084F85100002084F8500032
:101230000320D2E70120CDE77047FFF745B9000052
:1012400030B593B030216846FFF704F814210CA89C
:10125000FFF700F81E480025016841F08051016049
:10126000006800F0805011901A48016841F48041F4
:1012700001600068022400F4804011900120009079
:10128000000401908001CDE90640082008904FF449
:10129000A870CDE9090404200B906846FFF78AFA8C
:1012A00008B172B6FEE70CA90F2081E831004FF4B7
:1012B000A0500F904FF48050109005210CA8FFF71C
:1012C0008FF9002801D072B6FEE713B030BD0000E0
:1012D00040380240007000400548016841F4700148
:1012E000016003494FF000608039086070470000DA
:1012F00088ED00E02DE9F041044600680169E268EC
:1013000021F44051114301612169A068E269084359
:101310006169114308432168CA6849F20C639A4322
:101320000243CA6020684169A26921F440711143F7
:101330004161E069192764253226B0F5004F354A2E
:10134000354920684FF0000806D0884201D090420D
:1013500036D1FFF7EFF935E0884201D0904202D153
:10136000FFF7E8F901E0FFF7D5F961684A18A0FB3B
:10137000070148EB0803FEF723FF0146B0FBF5F039
:101380000201B1FBF5F06FF01803584301EB800048
:1013900006EBC000B0FBF5F000F0F80002EB4002F5
:1013A000B1FBF5F0584301EB800006EBC000B0FB49
:1013B000F5F000F00700216810448860BDE8F08176
:1013C000FFF7A8F961688B0F8A00A0FB0701FEF701
:1013D000F7FE0146B0FBF5F06FF01802504301EB49
:1013E000800006EB0010B0FBF5F000F0F002B1FB5E
:1013F000F5F002EB0012B1FBF5F06FF01803584363
:1014000001EB800006EB0010B0FBF5F000F00F00E0
:10141000D1E700000014014000100140FEE7000089
:10142000014A024900F023B891140008100000207E
:101430000907090E002804DB00F1E02080F8001401
:10144000704700F00F0000F1E02080F8141D704795
:1014500002E008C8121F08C1002AFAD1704770477D
:10146000002001E001C1121F002AFBD170472DE9C5
:10147000F04116460F460446002503E03946B047C2
:10148000641C6D1C20780028F8D12846BDE8F08146
:1014900003490A685206FCD5C2B24A607047000090
:1014A000001001408AB0242210496846FEF7B9FEB8
:1014B000FFF712F8FFF7C4FEFFF70CFDFFF75EFD24
:1014C000FFF780FDFFF7C2FD4FF47A7405E008A036
:1014D000FFF7A6FF2046FEF7FDFEFFF791FD00286F
:1014E000F5D106A0FFF79CFFFEE7000014150008E9
:1014F000C6F4B6AFCAA7B0DC0D0A00004E524632A1
:10150000344C3031C4A3BFE9C6F4B6AFB3C9B9A6F1
:101510000D0A0000746869732069732061206E727F
:101520006600000000000000000000000000000055
:1015300000000000000000000000000000010203A5
:10154000040607080900000000010203040000006F
:10155000701500080000002014000000501400085E
:1015600084150008140000209C040000601400088A
:101570000100000010000000000000000024F40042
:041580000000000067
:040000050800018965
:00000001FF
