:020000040800F2
:10000000000900209D0100086B2000085519000818
:1000100069200008AB080008A524000800000000C3
:100020000000000000000000000000009120000817
:10003000AD080008000000008F2000089320000891
:10004000B7010008B7010008B7010008B7010008B0
:10005000B7010008B7010008B7010008B7010008A0
:10006000B7010008B7010008B7010008B701000890
:10007000B7010008B7010008B7010008B701000880
:10008000B7010008B7010008B7010008B701000870
:10009000B7010008B7010008B7010008B701000860
:1000A000B7010008B7010008B7010008B701000850
:1000B000B7010008B7010008B7010008B701000840
:1000C000B7010008B7010008B7010008B701000830
:1000D000B7010008B7010008B7010008B701000820
:1000E000B7010008B7010008B7010008B701000810
:1000F000B7010008B7010008B7010008B701000800
:10010000B7010008B7010008B7010008B7010008EF
:10011000B7010008B7010008B7010008B7010008DF
:10012000B7010008B7010008B7010008B7010008CF
:10013000B7010008B7010008B7010008B7010008BF
:10014000B7010008B7010008B7010008B7010008AF
:10015000B7010008B7010008B7010008B70100089F
:10016000B7010008B7010008B7010008B70100088F
:10017000B7010008B7010008B7010008000000003F
:10018000B7010008B7010008DFF80CD000F02AFB27
:1001900000480047D93F0008000900200648804772
:1001A00006480047FEE7FEE7FEE7FEE7FEE7FEE75C
:1001B000FEE7FEE7FEE7FEE74121000889010008AF
:1001C0002DE9F05F0546002092469B46884606468C
:1001D000814640241BE0284641464746224600F01F
:1001E0001BFA53465A46C01A914110D3114618467D
:1001F000224600F002FA2D1A67EB01084F4622460C
:100200000120002100F0F9F917EB00094E41201EF2
:10021000A4F10104DFDC484631462A464346BDE8E6
:10022000F09FD2B201E000F8012B491EFBD27047CB
:100230000022F6E710B513460A4604461946FFF7B2
:10024000F0FF204610BD30B504460020034600E014
:100250005B1C934203D2E05CCD5C401BF8D030BD08
:100260002DE9FE4F804681EA0300C00F0C46009046
:1002700021F0004123F00045B8EB0200A94105D26E
:100280004046214690461C460B46024623F000405D
:10029000104347D0270DC7F30A00C3F30A51029059
:1002A000401A019040286BDAC3F3130040F4801B1E
:1002B0000098924620B10023D2EB030A63EB0B0BAC
:1002C00001985946C0F14002504600F096F90646A2
:1002D0000D4650465946019A00F0AEF910EB080061
:1002E0006141002487EA115284EAE7731A4340D03F
:1002F000009A62B3019A012A4FEA075215DC001BEB
:1003000061EB02014FF0004202EA0752CDE90042E0
:10031000001C41F5801132462B4600F0E5F903B090
:10032000BDE8F08F40462146F9E7001B61EB020172
:10033000001C41F5801300185B412018A2F500173E
:1003400047EB030140EAD570B6196D4111E06D0825
:100350004FEA360645EAC0754FEA0752001B61EBCB
:100360000201001C41F5801149084FEA30000019D4
:10037000514132462B4603B0BDE8F04F00F0A5B91D
:100380000098012240000023D0EB020263EBE073EF
:10039000009821464FEAE074B8EB000061EB0401DD
:1003A000E9E783F000435BE781F0004158E72DE97E
:1003B000FE4F81EA030404F0004421F00041009460
:1003C0004FF0000B23F0004350EA01045ED052EAE4
:1003D00003045BD0C3F30A54C1F30A552C44A4F2BE
:1003E000F3340194A0FB0254C1F3130141F48011D2
:1003F000C3F3130343F4801301FB024400FB034ED9
:10040000840A970A44EA815447EA8357A4FB0768A1
:1004100002958D0A05FB07854FEA932C04FB0C54CB
:100420002705029D4FEA065847EA1637B5EB08053F
:100430006EEB070C870E920E47EA811742EA831291
:10044000A7FB0201B6EB0B0164EB00042B0D43EAA2
:100450000C335E1844EB1C50DA465146E7FB0201B0
:10046000C5F313044FEA0B3343EA14534FEA043243
:10047000019C43EA0603A4F10C040294009CCDE91C
:1004800000B400F031F903B0BDE8F08F0020014660
:10049000F9E72DE9F04D81EA030404F0004B21F067
:1004A000004514464FF0000A23F0004150EA0502CF
:1004B00020D054EA01021DD0C5F30A570246C5F305
:1004C0001303C1F31300C1F30A5640F4801543F43B
:1004D0008013A7EB0608101BD64608F2FD3873EB15
:1004E000050002D308F1010801E092185B41B8F160
:1004F000000F03DA00200146BDE8F08D00204FF424
:100500008011064684460EE0171B73EB050705D3E2
:10051000121B63EB050306434CEA010C49084FEA42
:10052000300092185B4150EA0107EDD152EA030016
:1005300012D082EA040083EA0501084305D0101BAB
:10054000AB4106D20122002306E000224FF0004317
:1005500002E06FF0010253101AEB06004CEB085159
:1005600010EB0A0041EB0B01BDE8F04D00F0ADB817
:1005700000F0004230F000400AD0C10D01F560717A
:10058000C0F3160042EA0151C20840071143704708
:1005900000200146704701F0004330B421F00041D3
:1005A00050EA010206D00A0DA2F56072C1F31301F0
:1005B000002A02DC30BC00207047440F44EAC1042A
:1005C000C100E01830BC00EBC25000F047B830B5B5
:1005D0000B46014600202022012409E021FA02F501
:1005E0009D4205D303FA02F5491B04FA02F528449B
:1005F000151EA2F10102F1DC30BD202A04DB203AF5
:1006000000FA02F1002070479140C2F1200320FA65
:1006100003F3194390407047202A04DB203A21FA63
:1006200002F00021704721FA02F3D040C2F120020B
:100630009140084319467047202A06DBCB17203A21
:1006400041FA02F043EAE07306E041FA02F3D040D7
:10065000C2F1200291400843194670470029A8BF03
:100660007047401C490008BF20F00100704710B4DB
:10067000B0FA80FC00FA0CF050EA010404BF10BC90
:10068000704749B1CCF1200421FA04F411FA0CF1BD
:1006900018BF012121430843A3EB0C01CB1D4FEAF6
:1006A00000614FEA102042BF002010BC704700EBF1
:1006B000C35010440029A4BF10BC7047401C49001F
:1006C00008BF20F0010010BC704710B5141E73F174
:1006D000000408DA401C41F1000192185B411A4302
:1006E00001D120F0010010BD2DE9F04D92469B464E
:1006F00011B1B1FA81F202E0B0FA80F220329046F4
:10070000FFF77BFF04460F4640EA0A0041EA0B016F
:1007100053465A46084313D0114653EA010019D0F4
:10072000C8F140025046FFF777FF05460E46504697
:1007300059464246FFF761FF084305D0012004E017
:1007400020463946BDE8F08D0020054346EAE076B4
:100750002C4337430A986305E40AA0EB0800002203
:10076000FD0A44EA47540A3002D500200146E9E771
:10077000010510196941DDE9084500196941BDE825
:10078000F04DA2E7C1F30A52C1F3130140F2FF3367
:1007900041F480119A4202DA00200146704740F28B
:1007A00033439A42A2F2334202DC5242FFF734BF93
:1007B000FFF723BF30B5041E71F1000404DB4FF0D6
:1007C0000044404264EB0101141E73F1000405DB98
:1007D0001C464FF00043524263EB0403994208BFAA
:1007E000904230BD064C074D06E0E06840F0010342
:1007F00094E8070098471034AC42F6D3FFF7C8FCE2
:10080000505B0008705B00082DE9F04D00231A468C
:100810001B1A8A4103DB00200146BDE8F08DC1F3BD
:100820000A52C1F3130141F480154FF0000BD107B8
:1008300002D100186D41521E0027044640F2FF11FC
:10084000384601EB620A3E468046024600204FF4DD
:100850008011FFF7E1FEC2197141BB1846EB0100A0
:10086000B4EB030C75EB000C04D3E41A65EB000544
:1008700017460E46241908F101006D4180463428C0
:10088000E3DDF91946EB0600091BA84103D24FF03E
:10089000FF32134601E0002213461BEB070046EB34
:1008A0000A51BDE8F04DFFF710BFFEE770470000AA
:1008B00070B5044600F0E6F80546601C02D0044816
:1008C0000078044400F0DEF8401BA042FAD370BD6B
:1008D000000000202DE9F84FDFF87CB100224FF036
:1008E00001084FF0030A4FF00F090BF1040E00BF8F
:1008F0000B6808FA02F42340A3426ED14D68022D22
:1009000001D0122D0ED1D50800EB850CDCF820505B
:100910005607F70E09FA07F6B5430E69BE402E4397
:10092000CCF82060066855000F790AFA05FC07F03C
:10093000030726EA0C06AF40374307604E68012ED6
:1009400005D0022E03D0112E01D0122E0ED18668B2
:10095000CF6826EA0C06AF40374387604668A64357
:100960000C79C4F30014944034434460C6688C6826
:1009700026EA0C06AC403443C4604C68E40065D5FC
:10098000364C256845F480452560246822F003052F
:1009900004F480440094324C2E19D6F80848950788
:1009A0002F0F09FA07F5AC432E4DA84201D10025BF
:1009B00024E02D4DA84201D101251FE02B4DA84276
:1009C00001D102251AE02A4DA84201D1032515E0E4
:1009D000284DA84202D1042510E037E0264DA84258
:1009E00001D105250AE0254DA84201D1062505E0E3
:1009F000234DA84201D1072500E00825BD4025432D
:100A0000C6F80858DBF800405D464E689C43F60384
:100A100000D51C432C60DEF8004075464E689C43B0
:100A2000B60300D51C432C600B4D08352C684E686E
:100A30009C43F60200D51C432C60074D0C352C68F6
:100A40004E689C43B60200D51C432C60521C102AF1
:100A5000FFF44EAFBDE8F88F003C0140443802403F
:100A60000030014000000240000402400008024043
:100A7000000C024000100240001402400018024026
:100A8000001C024001488068704700000000002000
:100A900090F83D007047000070B5040004D094F851
:100AA0003D00002510B106E0012070BD84F83C50E7
:100AB000204600F0C1FA242084F83D002068016837
:100AC00021F00101016000F039FC33492268B0FBDC
:100AD000F1F15160314A6368934206D94FF496733D
:100AE00059434FF47A73B1FBF3F12368491C19623F
:100AF000616891420BD84900B0FBF1F2C2F30B02DE
:100B0000042A01D2042019E0B0FBF1F016E0A3683A
:100B10009BB301EBC10202EB0112B0FBF2F242F413
:100B20008042120530D04BB301EBC10202EB011140
:100B3000B0FBF1F040F4804040F400402168C8610F
:100B4000D4E90701084321680860D4E90310084389
:100B500021688860D4E9050108432168C8602068DD
:100B6000016841F0010101602564202084F83D0006
:100B7000256384F83E50002070BD00E006E001EBE4
:100B80004102B0FBF2F2CCE70120D7E701EB4101D3
:100B9000B0FBF1F0D0E7000040420F00A08601005A
:100BA0002DE9FF4F81B099468B4604464FF001086E
:100BB000FFF768FF054694F83D0020287BD11923F4
:100BC00001224D492046009500F0C9FF002872D14E
:100BD00094F83C0001286ED0012084F83C00206885
:100BE0000168C90703D1016841F001010160206873
:100BF000016821F400610160242084F83D00002692
:100C000026643E48E06220272068016841F4807134
:100C100001604B4600224FF001112046009500F084
:100C20009EFF002858D121680BF0FE000861FFF7F5
:100C300029FF2168054648694969C0F3400094F8D6
:100C40003D20C1F380214FF0A00A12E0B9F1000F5E
:100C500004D0FFF717FF411B494501D984F83DA097
:100C6000216848694969C0F3400094F83D20C1F308
:100C70008021084301D1A02AE8D184F83D70206882
:100C80004169C943890717D4016841F400710160C3
:100C9000206841698069192301221749204600957F
:100CA00000F05DFFC0B984F83D7084F83C6000201E
:100CB00005B0BDE8F08F1DE0016841F400710160EE
:100CC00021686FF480604861192301220A49204697
:100CD000009500F044FF08B10320E9E7414603987E
:100CE00008F1010881428FD384F83D7084F83C609C
:100CF0000120DDE70220DBE7020010000000FFFF1B
:100D00002DE9FF4F83B09A46DDE9118793460446EB
:100D1000DDF84090FFF7B6FE054694F83D00202828
:100D200074D11923012272492046009500F017FF63
:100D30000028F5D194F83C00012867D0012084F800
:100D40003C0020680168C90703D1016841F0010136
:100D500001602068016821F400610160222084F8AC
:100D60003D00402084F83E0000262664C4F824900C
:100D7000A4F82A805F48E062608D2085CDE9007587
:100D800053465A462046049900F0F9FD28B1206CDC
:100D900084F83C60042843D076E0208DC8B1012857
:100DA00020D00228206823D0416980690090208DDE
:100DB00003286BD801282AD04F4902283B464FF020
:100DC000000200955BD08846204600F0C8FEE8BBD4
:100DD00040E02068416981690091016841F4007137
:100DE000016076E02068016821F480610160F0E72D
:100DF000016821F4806101602068016841F40061AC
:100E00000160206841698069009062E06EE02A46D6
:100E10003946204600F018FF30B1206C202833D02E
:100E2000012007B0BDE8F08F206847E02068016826
:100E300041F40071016020680169606A421C6262CD
:100E40000170208D401E2085608D00E01CE0401E5A
:100E50006085E9E72068016821F48061016020680D
:100E60000169606A421C62620170208D401E20850B
:100E7000608D401E60853B4600224146009520461D
:100E800000F06DFE0028D1D00320CAE72A4639467B
:100E9000204600F0D9FE0028BFD120680169606AB1
:100EA000421C62620170208D401E2085608D401EB4
:100EB000608520684169C94349070AD40169606AAD
:100EC000421C62620170208D401E2085608D401E94
:100ED0006085208D00287FF46AAF202084F83D00D3
:100EE00084F83E6084F83C6000209AE7022098E78E
:100EF000020010000000FFFF040001002DE9FF4F79
:100F000083B09A46DDE9118793460446DDF84090A8
:100F1000FFF7B8FD064694F83D0020287DD119233F
:100F2000012243492046009600F019FE00287CD19A
:100F300094F83C00012878D0012084F83C00206817
:100F40000168C90703D1016841F00101016020680F
:100F5000016821F400610160212084F83D004020F7
:100F600084F83E0000252564C4F82490A4F82A8063
:100F70003048E062608D2085CDE9007653465A46C0
:100F80002046049900F074FD80B3206C84F83C5036
:100F9000042848D008E032463946204600F085FE55
:100FA00030B1206C042839D0032007B0BDE8F08FA1
:100FB000606A411C6162216800780861208D401ED2
:100FC00080B22085618D491E618521684A69D243BE
:100FD00052070BD468B1606A421C626200780861F3
:100FE000208D401E2085608D401E6085208D00284C
:100FF000D1D132463946204600F08AFD0028D0D1B2
:1010000054F83D0B016841F400710160202004F8A0
:101010001E09E57765770020C7E706E020680168CC
:1010200041F4007101600120BFE70220BDE700002C
:10103000020010000000FFFF00B500680E4987B0F5
:10104000884217D14FF44070009012200190012087
:101050000290032003900420049069460748FFF79C
:1010600039FC0748016841F400110160006800F490
:101070000010059007B000BD00540040000402407D
:10108000403802400248816802781144816070470C
:10109000000000200B4810B5016841F400710160A8
:1010A000016841F480610160016841F48071016070
:1010B000032000F08BF8002000F006F800F024F880
:1010C000002010BD003C024070B50D4D04464FF4A9
:1010D0007A712878B1FBF0F00A490968B1FBF0F0A9
:1010E00000F025FB48B9102C07D200222146501EE3
:1010F00000F04CF800206C6070BD012070BD000055
:10110000000000200C0000201F4808B5016841F4D1
:1011100080410160006800F4804000901A48001F80
:10112000016841F080510160006800F0805000903B
:10113000032000F04BF8002211466FF00B0000F086
:1011400025F8002211466FF00A0000F01FF8002277
:1011500011466FF0090000F019F800221146501FE7
:1011600000F014F800221146101F00F00FF80022C2
:101170001146901E00F00AF80022BDE80840114612
:10118000501E00F003B8000044380240F0B40E4B8B
:101190001B680C46C3F30223C3F10705042D00D9D5
:1011A0000425191D072901D2002300E0DB1E0126BA
:1011B00006FA05F1491E214099409E40761E1640D0
:1011C0003143F0BC00F053BF0CED00E0064900F0E5
:1011D000070208684FF6FF03184040EA0220034A5E
:1011E00010430860704700000CED00E00000FA05B5
:1011F000704700002DE9F0470E46050065D0DFF886
:101200001481D8F80000F7B200F00F00B04207D206
:1012100088F80070D8F8000000F00F00B04254D1F8
:1012200028683D4C810712D5400703D5206840F45B
:10123000E05020602878000703D5206840F4604023
:1012400020602068A96820F0F0000843206028781A
:10125000C0072DD0304968680839012812D002280B
:1012600013D0032811D00968890700292DDA2168D5
:1012700021F0030101432160FFF704FC814641F2A4
:10128000883A0EE009688903EFE709688901ECE70D
:10129000FFF7F8FBA0EB0901514502D90320BDE897
:1012A000F0872068696800F00C00B0EB810FEFD187
:1012B000D8F80010404601F00F01B14207D907707D
:1012C000006800F00F00B04201D00120E7E7287865
:1012D000400705D52068E96820F4E0500843206005
:1012E0002878000706D52068296920F4604040EA84
:1012F000C100206000F042F82168084AC1F30311E0
:10130000515CC840064908600020FFF7DDFE002060
:10131000C5E70000003C024008380240AE4D00081E
:101320000C00002001490120C864704700004742BA
:1013300001480068704700000C000020044805497F
:1013400000680968044AC1F38221515CC8407047B3
:101350000C00002008380240BE4D00080448054932
:1013600000680968044AC1F34231515CC8407047C3
:101370000C00002008380240BE4D0008154810B58A
:10138000006810F00C02144813D04110042A0FD04A
:10139000082A0ED10F4C241F2268236802F03F0256
:1013A0005B0207D52068C0F38810A0FB010106E0AE
:1013B000084610BD2168C1F38811A1FB000100237C
:1013C000FEF7FEFE2168C1F30141491C4900B0FB54
:1013D000F1F010BD083802400024F400054810B5B3
:1013E0000068000605D5FFF703FF02498020891C2D
:1013F000087010BD0C3802402DE9F84F050076D07A
:101400002878DFF8F8B2BE4CC00749D0DBF80010EE
:101410005846C1F38101012908D00068C0F381005A
:1014200002280AD1201D0068400206D520688003EA
:1014300036D568680028E2D032E06868B0F5803FB1
:1014400010D0B0F5A02F206810D020F4803020609C
:10145000206820F4802020606868A0B1FFF712FBAC
:1014600006460CE0206840F48030F4E740F4802029
:101470002060F7E7FFF706FB801B642873D820681D
:101480008003F7D50CE0FFF7FDFA064605E000BF44
:10149000FFF7F8FA801B6428F0D820688003F7D49F
:1014A0002878DFF8608280074FF000093ED5DBF82E
:1014B0000010584611F00C0F09D00068C0F38100ED
:1014C00002280BD18D48001F0068400206D4206816
:1014D000800715D5E868012809D111E0E868B8B19E
:1014E0000120C8F80000FFF7CDFA064605E002E14A
:1014F000FFF7C8FA801B0228C0D820688007F7D5FC
:101500002068296920F0F80040EAC10020600DE061
:10151000C8F80090FFF7B6FA064604E0FFF7B2FA03
:10152000801B02281FD820688007F7D4287800077E
:1015300022D5724E744869696C3671B1012101601F
:10154000FFF7A0FA074604E0FFF79CFAC01B022849
:1015500009D830688007F7D50EE0C0F80090FFF793
:1015600091FA074605E083E0FFF78CFAC01B0228DA
:101570007ED830688007F7D42878400768D5DFF830
:101580007CA100270AF1380ADAF80000C0000BD469
:10159000DAF8001041F08051CAF80010DAF80000C3
:1015A000012700F080500090584E3068C00510D4DC
:1015B000306840F480703060FFF764FA009005E016
:1015C000FFF760FA0099401A022851D83068C00528
:1015D000F6D54A4EA868683601280FD0052830682D
:1015E00010D020F001003060306820F0040030603E
:1015F000A868B8B1FFF746FA00900FE0306840F0F5
:101600000100F4E740F004003060F7E7FFF73AFA32
:101610000099411A41F28830814264D830688007CD
:10162000F4D50EE0FFF72EFA009007E0FFF72AFA54
:101630000099411A41F28830814254D830688007BD
:10164000F4D42FB1DAF8001021F08051CAF800105C
:10165000A869C0B3DBF80010C1F3810102294AD0A8
:101660000228484607D0C8F86000FFF70BFA00E0F0
:1016700039E005463AE04746C8F86000FFF702FA4D
:10168000064604E0FFF7FEF9801B02282BD82068ED
:101690008001F7D4D5E907010843A96A1C4A490823
:1016A00002EB01416A6A41EA8211084395F82C1065
:1016B00040EA01611148001F016001203866FFF710
:1016C000E1F9054605E014E0FFF7DCF9401B0228CC
:1016D00009D820688001F7D50BE000BFFFF7D2F9E9
:1016E000401B022802D90320BDE8F88F2068800142
:1016F000F4D40020F8E70120F6E7000008380240A3
:101700000038024000004742800E4742007000400F
:101710000000FFFF4FF0E0210428086903D020F00B
:1017200004000861704740F00400FAE7704710B504
:10173000401EB0F1807F01D3012010BD4FF0E024A6
:1017400060610F21601700F092FC0020A06107206B
:101750002061002010BD10B5FFF7E8FF10BD70B587
:10176000040004D094F83900002510B106E00120EF
:1017700070BD84F83850204600F022F8242084F808
:1017800039002068C16821F40051C160204600F092
:1017900001FD2068016921F49041016120684169DF
:1017A00021F02A0141612068C16841F40051C16003
:1017B000E563202084F8390084F83A00002070BDE9
:1017C00000B500680E4987B0884217D10D480168FE
:1017D00041F0100101600068694600F010000590BA
:1017E0004FF4C0600090022001900120029003207D
:1017F0000390072004900448FFF76CF807B000BD81
:101800000010014044380240000002402DE9F84336
:10181000044690F839001F4616460D46202850D140
:10182000A5B19EB194F8380001284AD0012084F86F
:1018300038004FF00008C4F83C80212084F83900BB
:10184000FFF720F9A6848146E68426E00120BDE862
:10185000F883E08C401EE084A0684B46B0F5805FC2
:101860004FF000024FF080012046009703D000F0B7
:10187000E7FDE8B90DE000F0E3FDC8B9288821686C
:10188000C0F308004860206908B16D1C05E0AD1C7C
:1018900003E0216815F8010B4860E08C0028D8D1DE
:1018A0004B46002240212046009700F0C9FD08B1B8
:1018B0000320CCE7202084F8390084F83880002009
:1018C000C5E70220C3E70000FEB507461C461546E3
:1018D0000E460B48FFF7DCF801460AA000F0E4FDD5
:1018E0004FF0FF300094CDE90150012000EB47019B
:1018F000034632460248FFF703FA0020FEBD00000F
:101900005C000020666C6167202558200A000000FA
:10191000FEB507461C4615460E460A48FFF7B8F8BE
:10192000014609A000F0C0FD4FF0FF300094CDE962
:1019300001507900012332460248FFF7DFFA002008
:10194000FEBD00005C000020666C61672025582009
:101950000A000000FEE701684A69D24352050CD430
:101960006FF480624A6104210164002140F8301F55
:1019700020224273017301207047002070472DE937
:10198000F84F0446006889460B9D01689846174643
:1019900041F4806101602068016841F48071016058
:1019A00000954FF0011A0022514620460A9B00F094
:1019B000D6F8F0BB216809F0FE0008610AF1010BBE
:1019C0002B46594620460A9A00F0FAF818B1206CC6
:1019D000042812D03AE020684169806900902A46C4
:1019E00020460A9900F061F950B1206C04282DD1ED
:1019F0002068016841F4007101600120BDE8F88FA2
:101A0000FEB2B8F1010F09D02168380A08612A46F0
:101A100020460A9900F049F90028E6D120680661BD
:101A20002A4620460A9900F040F90028DDD12068B6
:101A300000E00BE0016841F4807101600095002234
:101A4000514620460A9B00F08AF808B10320D5E7EA
:101A5000216809F0FF0040F0010008612B4659465B
:101A600020460A9A00F0ACF80028B0D1C6E7000082
:101A70002DE9F843044600680D46DDE90897016842
:101A80009846164641F4807101604B4600224FF0A3
:101A900001112046009700F062F8E8B9216805F0CE
:101AA000FE0008613B464A461849204600F088F887
:101AB00028B1206C04280FD10120BDE8F8832068EC
:101AC0004169806900903A464946204600F0EDF8A9
:101AD00020B1206C042813D00320EEE7F5B2B8F152
:101AE000010F09D02168300A08613A46494620466C
:101AF00000F0DBF80028ECD1206805610020DCE76D
:101B00002068016841F400710160D5E7020001001E
:101B100070B516460D4604461AE02046FFF71BFF37
:101B200008B1012070BD681C12D025B1FEF7AAFFD4
:101B3000801BA8420CD954F8400F40F0200044F814
:101B4000100900202060202161732073032070BDE4
:101B500020684069C0434007DFD4002070BD2DE9F4
:101B6000F0471E4690460D460446C1F30747DDF890
:101B7000209012E0701C10D02EB1FEF783FFA0EB76
:101B80000900B04209D9002044F8300F20216173C8
:101B9000A07320730320BDE8F0872068012F0AD0CE
:101BA000806925EA00000004000C06D000214145B0
:101BB000E0D00020EFE74069F3E70121F7E70000FC
:101BC0002DE9F0479A4691460D46044600264FF00F
:101BD0002008C1F307472AE020684069C043400558
:101BE00012D42068016841F40071016021686FF42B
:101BF0008060486104202064266384F83D8084F876
:101C00003C600120BDE8F087B9F1FF3F0FD0B9F18A
:101C1000000F05D0FEF736FFA0EB0A01494506D9B3
:101C200044F8306F84F80D8026730320EAE72068BB
:101C3000012F07D0D0F8180025EA00000004000C9E
:101C4000E0D0C9E74069F7E72DE9F041002590466B
:101C50000E460446202721E04069C043C0060CD44C
:101C600021686FF0100048612564256384F83D7099
:101C700084F83C500120BDE8F0812EB1FEF702FF50
:101C8000A0EB0800B04209D954F8400F40F0200002
:101C900044F80409677025700320ECE72068416967
:101CA000C9434906D8D40020E5E770B516460D466D
:101CB00004461AE02046FFF74EFE08B1012070BD31
:101CC000681C12D025B1FEF7DDFE801BA8420CD99E
:101CD00054F8400F40F0200044F810090020206024
:101CE000202161732073032070BD20684069C043C8
:101CF0000006DFD4002070BD2DE9FF414FF0FF3515
:101D00002B460A22D0217348FEF74AFF014672A0F3
:101D100000F0CAFB6F48FEF7BBFE014672A000F060
:101D2000C3FB4FF08008012403AE8DF80C800096B1
:101D300023466B22D0216748CDE90145FFF7DEF845
:101D40002B460A22D0216348FEF72AFF014662A0F3
:101D500000F0AAFB4FF4FA70FEF7AAFD5D48FEF70B
:101D600097FE014660A000F09FFB8DF80C400096A6
:101D700001236B22D0215748CDE90145FFF7BEF87A
:101D800018208DF80C00009601231B22D021514809
:101D9000CDE90145FFF7B2F84E48FEF779FE01465E
:101DA00051A000F081FB00278DF80C7000960123F4
:101DB0001C22D0214748CDE90145FFF79FF845484F
:101DC000FEF766FE014648A000F06EFB13208DF87A
:101DD0000C00009601231922D0213E48CDE901458F
:101DE000FFF78CF83B48FEF753FE01463EA000F09B
:101DF0005BFB8DF80C70009601233822D02135480A
:101E0000CDE90145FFF77AF83248FEF741FE014679
:101E100035A000F049FB8DF80C70009601236A2272
:101E2000D0212C48CDE90145FFF768F82948FEF795
:101E30002FFE01462CA000F037FB8DF80C700096A9
:101E400001232322D0212348CDE90145FFF756F88D
:101E50002048FEF71DFE014623A000F025FB8DF86B
:101E60000C80009601233722D0211A48CDE9014584
:101E7000FFF744F8192000F043F81648FEF708FE73
:101E8000014619A000F010FB75208DF80C000246E9
:101E900000960123D1210F48CDE90145FEF730FF1F
:101EA0009DF80C1013A000F0FFFA0A48FEF7F0FDB1
:101EB00001460DA000F0F8FA8DF80C700096012391
:101EC0006C22D0210348CDE90145FFF717F8BDE8A2
:101ED000FF8100005C0000207374617475732069D9
:101EE000732025640A000000666C61672025582075
:101EF0000A0000004944206973202558200A000088
:101F00001FB500218DF80C100121BC2802D38DF8DB
:101F10000C1012E0622801D302200CE02A2801D321
:101F2000032008E0142801D3042004E00A2801D388
:101F3000052000E006208DF80C0003AACDE9002161
:101F40004FF0FF30029001231A22D0210248FEF701
:101F5000D5FF04B010BD00005C000020174800B59C
:101F6000016887B041F080010160016801F08001E3
:101F70000591016841F004010160016801F004016C
:101F80000591016841F001010160016801F0010162
:101F90000591016841F0020101600068694600F0A6
:101FA0000200059001200090054801900220029057
:101FB0000448FEF78FFC07B000BD00003038024037
:101FC00000001110000802400E4810B50C490160D5
:101FD0000D49416000214FF480428160C0E9031245
:101FE00041618161C1610162FEF756FD002805D0A3
:101FF000BDE81040422105A000F055BA10BD000018
:10200000005400405C000020A08601002E2E2F53BB
:1020100072632F6932632E63000000000D4810B513
:102020000B4901604FF4E1314160002181600C22D5
:10203000C160C0E904128161C161FFF790FB002813
:1020400005D0BDE81040422103A000F02CBA10BD1D
:1020500000100140B00000202E2E2F5372632F7508
:10206000736172742E630000FEE7FFF7B7B90907CA
:10207000090E002806DA00F00F0000F1E02080F8D9
:10208000141D704700F1E02080F80014704770477D
:10209000704710B5FEF7F6FFBDE81040FFF75BBBD9
:1020A00030B5254893B00025016841F080510160AA
:1020B000006800F0805011902048016841F4804190
:1020C00001600068022400F480401190012000901B
:1020D000000401908001CDE9064008AA0420A8214F
:1020E00082E813000B906846FFF786F900B1FEE71F
:1020F0000CA90F2081E831004FF4A0500F904FF44D
:102100008050109005210CA8FFF774F800B1FEE78D
:10211000FFF708F9FFF70CF94FF47A71B0FBF1F013
:10212000FFF705FB0420FFF7F5FA00221146501EC9
:10213000FFF72CF813B030BD40380240007000406B
:102140001048016841F4700101600F48016841F0D6
:10215000010101600C4A00210832116002680B4B3A
:102160001A400260031D0A4A1A60026822F48022A3
:10217000026005480C300160024958068039086049
:102180007047000088ED00E000380240FFFFF6FED7
:10219000103000242DE9F04104460068016921F463
:1021A0004052E168114301612168C86849F20C623C
:1021B00090432369A268E5691A4363692B431A4374
:1021C0000243CA602168486920F44072A069104344
:1021D0004861E1696425B1F5004F9748974A216845
:1021E0004FF032083FD0914201D081427CD1FFF7BD
:1021F000B5F800EBC00101EB001061688900B0FB8D
:10220000F1F6FFF7ABF800EBC00101EB00106168DD
:102210008900B0FBF1F0B0FBF5F06FF01801484316
:1022200006EB800108EB0110B0FBF5F000F0F006C2
:10223000FFF794F800EBC00101EB00106168890022
:10224000B0FBF1F0B0FBF5F006EB0016FFF786F8F7
:1022500000EBC00101EB001061688900B0FBF1F7F1
:10226000FFF77CF8D2E0914201D081423DD1FFF7E7
:1022700075F800EBC00101EB001061684900B0FB8C
:10228000F1F0B0FBF5F00601FFF768F800EBC001D4
:1022900001EB001061684900B0FBF1F7FFF75EF851
:1022A00000EBC00101EB001061684900B0FBF1F0E8
:1022B000B0FBF5F06FF01801484307EB800108EB25
:1022C000C100B0FBF5F000F0F80006EB4006FFF7A8
:1022D00045F800EBC00101EB001061684900B0FB5C
:1022E000F1F7FFF73BF83CE055E0FFF727F800EB8C
:1022F000C00101EB001061684900B0FBF1F0B0FBD8
:10230000F5F00601FFF71AF800EBC00101EB001031
:1023100061684900B0FBF1F7FFF710F800EBC0016E
:1023200001EB001061684900B0FBF1F0B0FBF5F083
:102330006FF01801484307EB800108EBC100B0FBC8
:10234000F5F000F0F80006EB4006FEF7F7FF00EBB3
:10235000C00101EB001061684900B0FBF1F7FEF726
:10236000EDFF00EBC00101EB001061684900B0FB1C
:10237000F1F0B0FBF5F06FF01801484307EB800176
:1023800008EBC100B0FBF5F000F007002168304415
:102390008860BDE8F081FEF7D1FF00EBC00101EBE2
:1023A000001061688900B0FBF1F6FEF7C7FF00EB93
:1023B000C00101EB001061688900B0FBF1F0B0FBD7
:1023C000F5F06FF01801484306EB800108EB0110AF
:1023D000B0FBF5F000F0F006FEF7B0FF00EBC00137
:1023E00001EB001061688900B0FBF1F0B0FBF5F083
:1023F00006EB0016FEF7A2FF00EBC00101EB001098
:1024000061688900B0FBF1F7FEF798FF00EBC001AF
:1024100001EB001061688900B0FBF1F0B0FBF5F052
:102420006FF01801484307EB800108EB0110B0FB87
:10243000F5F000F00F00A9E7001401400010014082
:102440002DE9F041984617460E460446069D1DE0CC
:10245000681C1BD02DB1FEF715FBA0EB0800A842AD
:1024600014D92068C16821F4D071C1602068416925
:1024700021F001014161202084F8390084F83A00FC
:10248000002084F838000320BDE8F081206800684F
:1024900036EA000004D00020B842D9D00020F3E78B
:1024A0000120F9E7FEE7FEE70FB4054B10B503A9DD
:1024B000044A029800F0BCFD10BC5DF814FB00005B
:1024C000513F00085400002003B4019841000098D7
:1024D00050EAC12018BF04204A0D18BF40F0010087
:1024E00040F2FF72B2EB515F08BF40F002000128DA
:1024F00008BF052002B0704770B5C1482DED020B32
:102500002DED0E8B82B0119D25F000449FEDBEDBBA
:102510009FEDBFEB84423EDBA4F140511098A1F146
:102520007F6108430FD0BC48844202DC28D1109858
:1025300030B39DED100B02B0BDEC0E8B02B0BDE8C8
:10254000704000F069BC9DED100B53EC1D2B51EC5D
:10255000100BFDF72CFF9DED100B41EC180B53EC0D
:102560001E2B51EC100BFDF722FF53EC182BFDF73F
:1025700077FE41EC100B02B0BDEC0E8B02B070BDCB
:10258000012000F08DFC02B0BDEC0E8B02B0BDE866
:10259000704000F055BCA1489FEDA18B844256DAF3
:1025A0009DED100BB4F1795F0ADA51EC100BFFF7D7
:1025B0008BFF042808BF00F053FC9DED100BDAE7F9
:1025C00053EC102B51EC100BFDF7F1FE41EC190B05
:1025D00095480621B0EE490AF0EE690A784400F009
:1025E0009FFB53EC192B51EC100BFDF7E0FE41EC77
:1025F0001A0B8E48B0EE490AF0EE690A04217844BD
:1026000000F08EFB53EC192B51EC100BFDF7CFFEB5
:1026100053EC182BFDF724FE41EC100B51EC1A0B78
:1026200053EC102BFDF735FFCDE900019DED000BBC
:1026300053EC102B9DED100B51EC100BFDF7B7FE7A
:102640009DED101B53EC112BFDF70AFED2E09DED22
:10265000100B51EC100B01F06FFC53EC182BFDF735
:10266000A3FE9FED730BCDE9000153EC102B9DED04
:10267000000B51EC100BFDF79AFE41EC190B6E4864
:102680000621B0EE490AF0EE690A784400F048FBF2
:1026900053EC192B51EC100BFDF789FE41EC1B0B91
:1026A0006648B0EE490AF0EE690A0421784400F069
:1026B00037FB53EC192B51EC100BFDF778FE53EC64
:1026C000182BFDF7CDFD41EC1C0B51EC190B02F062
:1026D00037FB41EC180B5A489FED5BABA04222DC64
:1026E00053EC1C2B51EC1B0BFDF7D3FECDE9000185
:1026F0009DED000B51EC180B53EC102BFDF757FE22
:1027000053EC182BFDF7ACFD53EC1A2BFDF74FFEE5
:1027100053EC1D2BFDF745FE53EC1E2BFDF744FE3D
:1027200041EC100B5FE08DED008B002000909DEDE3
:10273000000B51EC180B53EC102BFDF791FD9DEDA8
:10274000000B41EC1E0B53EC102B51EC100BFDF762
:102750002EFE53EC192BFDF727FE53EC1E2BFDF735
:1027600098FE41EC190B53EC1C2B51EC1B0BFDF7A5
:1027700090FE41EC1B0B53EC1A2B51EC190BFDF79F
:1027800016FE53EC1D2BFDF70FFE41EC190B53EC1D
:102790001A2B51EC180BFDF70AFE53EC1B2BFDF71F
:1027A00006FE53EC192BFDF7FCFD9DED000B41ECF3
:1027B000180B53EC1A2B51EC100BFDF7F8FD9FEDA5
:1027C000249B53EC192BFDF7EFFD41EC100B51EC62
:1027D000180B53EC102BFDF7E4FD53EC192BFDF710
:1027E000E3FD41EC100B002D3FF7C5AE51EC100B93
:1027F00081F0004141EC100BBDE60000000000003C
:102800000000F03F00000000075C143326A6913C56
:10281000182D4454FB21F93F0000F07F0000E03FF9
:10282000000000000000F03F303400003E340000A3
:10283000000000000000E03F823300009033000001
:102840003333EF3F000000000000000000000040B4
:10285000182D4454FB21E93F70B59B482DED020B28
:102860002DED068B079D25F00044A04218DC97480B
:10287000844202DC0AD1069840B19DED060BBDEC06
:10288000068B02B0BDE8704000F0C6BA002DCCBF88
:102890009FED8F0B9FED900BBDEC068B02B070BDD2
:1028A0008F48A04215DD8F48A042D8BF4FF0FF34BB
:1028B00058DD9DED060B51EC100BFFF705FE0428CB
:1028C00008BF00F0CDFA9DED060BBDEC068B02B003
:1028D00070BD9DED060B51EC100B01F02DFBCDE909
:1028E000060181489FED828BA0423CDD8248A042D8
:1028F0001FDD00249FED82AB9DED060B53EC1A2BE0
:1029000051EC100BFDF7ACFC9DED060B41EC190BE7
:1029100053EC1A2B51EC100BFDF749FD53EC182B1F
:10292000FDF73FFD53EC192BFDF7B3FDCDE9060193
:1029300049E09DED060B012453EC182B51EC100BD4
:10294000FDF78EFC9DED060B41EC190B53EC182B9B
:1029500051EC100BFDF725FD53EC192BFDF799FDFC
:10296000CDE906012FE06848A0421FDD02249FED5B
:10297000689B9DED060B53EC192B51EC100BFDF7EA
:1029800016FD53EC182BFDF76BFC9DED060B41EC8F
:10299000180B53EC192B51EC100BFDF702FD53EC07
:1029A000182BFDF776FDCDE906010CE09DED060B39
:1029B000032453EC102B9FED580B51EC100BFDF73B
:1029C00068FDCDE906019DED060B53EC102B51EC93
:1029D000100BFDF7ECFC41EC180B53EC182BFDF73A
:1029E000E6FC41EC190B4E480621B0EE490AF0EE28
:1029F000690A784400F094F953EC182B51EC100B51
:102A0000FDF7D5FC41EC180B4648B0EE490AF0EE54
:102A1000690A0521784400F083F953EC192B51EC35
:102A2000100BFDF7C4FC41EC100B51EC180B53ECF0
:102A3000102B002C0EDAFDF713FC9DED061B53EC5A
:102A4000112BFDF7B4FC9DED061B53EC112BFDF78C
:102A5000ABFC35E0FDF704FC9DED061B53EC112BA0
:102A6000FDF7A5FC41EC100B2F48784400EBC400A7
:102A700090ED001B51EC100B53EC112BFDF791FC6A
:102A80009DED061B53EC112BFDF78BFC41EC100B5D
:102A90002648784400EBC40090ED001B51EC100B6D
:102AA00053EC112BFDF780FC41EC100B002DA2BF65
:102AB000BDEC068B02B070BD51EC100B81F00041F3
:102AC00041EC100B01E70000000010440000F07F13
:102AD000182D4454FB21F93F182D4454FB21F9BF14
:102AE0000000DC3F0000203E0000F33F000000003B
:102AF000000000000000F03F0000E63F0000000082
:102B000000000000000000400080034000000000C2
:102B1000000000000000F83F000000000000F0BFCF
:102B2000D23000008830000012300000CA2F0000B0
:102B300070B56B4E2DED040B2DED028B82B0DDF8E0
:102B40001CC0DDE905235C422CF000411C4341EA36
:102B5000D474049D22F00040B44205D86C422C434A
:102B600040EAD474B4420BD99DED061B9DED040BD5
:102B700002B0BDEC028B04B0BDE8704000F056B965
:102B8000ACF14054A4F17F641C430BD0022404EA4E
:102B9000AC7444EAD27405439FED538B9FED542BE4
:102BA00007D015E09DED040B51EC100B00F0D7FDA4
:102BB00042E0002C11BF012C9DED040B02B0BDECD6
:102BC000028B04BF04B070BD022C38D0032C3BD064
:102BD0000B439FED491B9FED4A0B0AD0B14218D120
:102BE000B04209D121F0804120F08040079105904A
:102BF0000FE0002A15DA10E0434B7B44002C08BF9D
:102C000093ED000B0DD0012C10D0022C17D0032C0B
:102C10001AD0B0421DD1002A03DAB0EE410AF0EE1C
:102C2000610A02B0BDEC028B04B070BD93ED000BE5
:102C300051EC100B81F0004141EC100BF1E7B0EECC
:102C4000480AF0EE680AECE7B0EE420AF0EE620ADB
:102C5000E7E7401A00153C28C8BF8DED000B19DCD2
:102C6000BCF1000FBEBF10F13C0F9FED290B8DEDA5
:102C7000000B0FDB9DED060B53EC102B9DED040BB1
:102C800051EC100BFDF705FC01F056F900F067FD63
:102C9000CDE90001002C08BF9DED000BC1D0012C37
:102CA00010D0022C9FED1C0B53EC102B9DED000B54
:102CB00051EC100B0DD0FDF774FB53EC182BFDF706
:102CC00070FBB9E7019880F0004001909DED000B8A
:102CD000A7E7FDF766FB53EC182BFDF765FBABE7A9
:102CE0000000F07F00000000182D4454FB21094033
:102CF000182D4454FB2109C0182D4454FB21F9BF61
:102D0000182D4454FB21F93FFA2E0000000000006A
:102D10000000000000000000075C143326A6A13C60
:102D200070B504462DED028B4D1E00EBC500B0EED4
:102D3000408AF0EE608A90ED000B35F0060017D067
:102D400053EC182B51EC100BFDF731FB41EC100B41
:102D50006D1E04EBC50090ED001B51EC100B53EC05
:102D6000112BFDF77DFA41EC100B35F00600E7D191
:102D7000022D36D0042D1CD0062D1CBFBDEC028BBD
:102D800070BD53EC182B51EC100BFDF710FB94EDBC
:102D90000A1B53EC112BFDF763FA53EC182BFDF7CC
:102DA00006FB94ED081B53EC112BFDF759FA41EC8F
:102DB000100B53EC182B51EC100BFDF7F8FA94EDB7
:102DC000061B53EC112BFDF74BFA53EC182BFDF7B8
:102DD000EEFA94ED040B53EC102BFDF741FA41ECA5
:102DE000100B53EC182B51EC100BFDF7E0FA94ED9F
:102DF000021B53EC112BFDF733FA53EC182BFDF7A4
:102E0000D6FA94ED001B53EC112BFDF729FABDEC1B
:102E1000028B41EC100B70BD10B553EC102B51EC34
:102E2000100BFDF71DFA41EC100B10BD10B553EC63
:102E3000112B51EC100BFDF713FA41EC100B10BDE8
:102E40009FED050B10B553EC102B51EC100BFDF75B
:102E500020FB41EC100B10BD000000000000000042
:102E60009FED050B10B553EC102B51EC100BFDF73B
:102E70009EFA41EC100B10BD000000000000001095
:102E800002E008C8121F08C1002AFAD17047704733
:102E9000002001E001C1121F002AFBD17047000091
:102EA0000149086070470000580000202DE9FF5FCD
:102EB00082B00021DDE90430020DDDF840B00343AB
:102EC00018D044F61050A2F2FF3242431514119864
:102ED00001281FD0A5EB0B00401C5FEA000A4FF051
:102EE00000064E4FDFF83891B046504615D5CAF16E
:102EF000000413E0119801244AA3012801D16FEACC
:102F00000B010298119AC0E90031C0E9024206B0F3
:102F1000BDE8F09FCBF10000DFE704460021404A06
:102F2000491842EB0450CDE9001012E0E00707D049
:102F300032463B4640464946FDF739FA80468946C7
:102F400032463B4610461946FDF731FA06460F4613
:102F50006410002CEAD1DDE90401DDE90023BAF1B7
:102F6000000F06DAFDF723FA42464B46FDF71FFA3B
:102F700005E0FDF78EFA42464B46FDF78AFA044615
:102F80000E460022284BFDF715FC03D84FF0FF300A
:102F9000014607E00022254B20463146FDF760F947
:102FA000FDF7F0FB102409E0002C0ADB0A220023C5
:102FB000FDF706F9039B30321A55641E50EA0102F0
:102FC000F2D1641C039AC4F111031444119A012A2A
:102FD00003D0012208430DD10AE0084304D00020A9
:102FE0004FF0110B119072E7A3EB0B056D1E0DE076
:102FF0005B4504DD4FF0000205F1010504E003DA52
:103000004FF00002A5F10105002AECD002981199B9
:10301000C0E90231C0E9004579E700000000144032
:103020000000F03F300000000000F0430000E03FEF
:103030002DE9FF4F95B09B468946064600250FE2D5
:10304000252877D100242746F84A0121059400E07D
:10305000044316F8013F203B01FA03F01042F7D178
:1030600030782A2811D06FF02F033078A0F1300289
:10307000092A16D8059A44F0020402EB820203EBF7
:1030800042021044761C0590EFE759F8042B059294
:10309000002A03DA504244F40054059044F002043C
:1030A000761C30782E2816D116F8010F44F004044F
:1030B0002A280DD06FF02F023078A0F13003092BB1
:1030C00009D807EB870302EB4303C718761CF3E725
:1030D00059F8047B761C30786C280FD006DC4C281D
:1030E00017D068280DD06A2814D104E0742810D0B5
:1030F0007A280FD10DE044F400140AE044F480145F
:1031000001E044F440147278824202D104F5801444
:10311000761C761C307866280BD013DC582877D0C4
:1031200009DC002875D04528F6D04628F4D0472879
:103130001AD19DE118E0632835D0642879D065283C
:1031400012D195E1702873D008DC6728F1D0692886
:103150006FD06E280DD06F2806D1B5E073282CD023
:10316000752875D0782874D05A46179990476D1CE9
:1031700075E1C4F30250022809D003280DD0D9F814
:10318000001004280DD00D6009F1040967E1D9F899
:103190000010EA17C1E90052F6E7D9F800100D80D7
:1031A000F2E70D70F0E719F8041B8DF8001000200D
:1031B0008DF80100EA46012003E059F804AB4FF016
:1031C000FF3061074FF0000102D40DE008F101016A
:1031D0008846B9420FDA8045F8DB1AF80810002952
:1031E000F4D108E008F1010188468142FADB1AF8BF
:1031F00008100029F6D105985B46A0EB0807214688
:103200003846179A00F094FA284400EB080507E0C6
:103210004DE029E10DE01AF8010B5A461799904745
:10322000B8F10108F7D25B4621463846179A13E1F8
:1032300042E00A220092C4F302524FF0000A022A2E
:1032400008D059F804CB032A4FEAEC710AD00DE0FC
:1032500029E02AE009F1070121F00702F2E802C1A2
:10326000914609E00FFA8CFC4FEAEC71042A03D175
:103270004FFA8CFC4FEAEC71002907DA0A4600216C
:10328000DCF1000C61EB02012D2202E0220504D5E5
:103290002B228DF80420012203E0E20701D0202236
:1032A000F7E7904659E00A2102E010220DE01021D4
:1032B0004FF0000A00910BE010224FF0000A44F09A
:1032C00004040827009203E008224FF0000A00924D
:1032D000C4F30252022A05D059F804CB0021032A74
:1032E00008D009E009F1070121F00702F2E802C164
:1032F000914605E01FFA8CFC042A01D10CF0FF0C6A
:103300004FF00008220728D5702806D0009B83F0D4
:10331000100353EA0A0305D00EE040228DF8042082
:10332000012208E05CEA010206D030228DF8042078
:103330008DF8050002229046009B83F0080353EAB3
:103340000A030AD15CEA010201D1620705D53022E5
:103350008DF804204FF001087F1E582804D034A0B7
:1033600003900EA802900DE036A0F9E753466046A0
:10337000009AFCF725FF84460398825C0298401E61
:10338000029002705CEA0100F0D1029806A9081AC6
:1033900000F1200A600702D524F4803400E0012700
:1033A000574502DDA7EB0A0000E0002000EB0A0110
:1033B000009005984144401A0590E00306D45B460E
:1033C0002146179A059800F0B3F90544002706E056
:1033D00001A85A46C05D179990476D1C7F1C474550
:1033E000F6DBE0030CD55B462146179A059800F002
:1033F0009FF9054404E030205A46179990476D1C08
:103400000099481E00900029F5DC08E00298029916
:103410005A460078491C0291179990476D1CBAF1E1
:103420000001AAF1010AF1DC65E1000009280100B0
:10343000303132333435363738396162636465662A
:1034400000000000303132333435363738394142EC
:10345000434445460000000000F058F90544761C3E
:10346000307800287FF4ECAD19B02846BDE8F08F25
:10347000620700D4062709F1070222F0070CFCE8D6
:103480000223E14603F000485FEA080C02D00FF285
:10349000702C0DE05FEA045C02D50FF2682C07E0A7
:1034A0005FEAC47C02D00FF2602C01E0AFF2700C36
:1034B0004FF0FF3823F00043CDF850C065280CD002
:1034C00006DC452809D046281DD047283DD13DE0DF
:1034D000662818D067287ED138E00021112F01DB43
:1034E000112000E0781CCDE9000106A90EA8FFF725
:1034F000DDFCDDE90F010E9A03910021009207F136
:10350000010A04914DE04FF000400097CDE9011011
:1035100006A90EA8FFF7CAFCDDE90F0203920E9B75
:1035200011990022DDF80CA00093049211B9791CC6
:1035300000EB010AB7EB0A0004D4C0F1FF3007F139
:10354000010A0490AAEB0700019044E0012F00DA81
:1035500001270021112F01DD112000E03846CDE9BF
:10356000000106A90EA8FFF7A1FCDDE90F010E9AE4
:103570000391002104910092BA4621070CD40399CB
:10358000514500DA8A46BAF1010F05DD009AAAF129
:103590000101515C302908D0B84202DA10F1040F61
:1035A00006DA0121CDE9011015E0AAF10101E9E7F0
:1035B000002805DC049901440491AAEB000102E013
:1035C000411C514500DD8A460499401A401C019077
:1035D0004FF000400290200704D40198504501DBD1
:1035E000CDF8048000208DF84F0002980DF14F07B0
:1035F000B0F1004F25D02B200E9002984FF002081A
:1036000000280CDA404202902D200E9007E00A219B
:103610000298FCF7DCFF3031029007F8011DB8F189
:103620000001A8F10108F2DC02980028EFD1791E10
:103630000E980870307800F0200040F0450007F840
:10364000020D12A8C01B00F107081498007800B101
:10365000012000EB0A01019801EBE071059841445B
:10366000401A401E0590E00306D45B462146179A97
:10367000059800F05DF805441498007818B15A4692
:10368000179990476D1CE00324D55B462146179A95
:10369000059800F04DF805441CE00498002807DB6D
:1036A000DDE90301884203DD0098405C179901E0E1
:1036B000179930205A469047049805F10105401C9F
:1036C00004900198401E019004D12E205A4617996B
:1036D00090476D1CBAF10001AAF1010ADDDC05E09A
:1036E00017F8010B5A46179990476D1CB8F1000165
:1036F000A8F10108F4DC5B462146179A0598ABE671
:103700002D0000002B000000200000002DE9F041FA
:10371000044600251E461746880404D405E03946B1
:103720002020B0476D1C641EF9D52846BDE8F08105
:103730002DE9F041044600251E469046C80301D5F8
:10374000302700E02027880404D505E041463846AC
:10375000B0476D1C641EF9D52846BDE8F08110B550
:1037600041EC100BFFF778F851EC100B10BD08B5C9
:1037700060B120208DF8000028208DF80100302055
:103780008DF8020038208DF8030004E0A322042104
:103790006846FCF746FD6A46042140F69E2001F08B
:1037A00079FA00F0AFFF08BD3EB5044602208DF85F
:1037B0000000CA208DF80100E3208DF802000920E6
:1037C0008DF803006A460421682001F063FAA32003
:1037D0008DF80000610609D5C0218DF80110C821BF
:1037E0008DF80210C2218DF8031005E08DF801005C
:1037F0008DF802008DF8030014F4C07F09D0C421B5
:103800008DF80410CC218DF80510C6218DF8061016
:1038100005E08DF804008DF805008DF806008DF8A0
:1038200008008DF807008DF809006A460A2140F665
:10383000A72001F02FFAA0074FF0D80503D02020D1
:103840008DF8000001E08DF800506A46012140F635
:10385000B62001F01FFAA00601D5012000E00020EB
:1038600000F08EF814F4C07F1ED0E0050AD5B22017
:103870008DF800008B208DF80100B6208DF8020035
:103880009B2009E0B0208DF8000080208DF8010019
:10389000B4208DF8020090208DF803006A460421C0
:1038A00040F6A22001F0F6F9E1074FF40B6022D0B8
:1038B000F8218DF800106A46012101F0EBF9FA2198
:1038C000072000F069FA072000F034FA012000F028
:1038D00051FA642000F010FB4FF4FA7000F01CFB6A
:1038E000C821254800F0EEF9282000F003FA0A204C
:1038F00000F010FA05E08DF800506A46012101F051
:10390000C9F9A00703D5D9208DF8000001E08DF892
:1039100000506A46012140F23D7001F0BBF960079A
:1039200001D5012000E0002000F048F8E00601D5B4
:10393000012000E00020FFF71AFF104D44F00800BE
:10394000688100F0DFFE0020A873600601D5062024
:10395000A87314F4C07F02D0A87B801DA87314F054
:10396000140F02D0A87B1030A873A00702D0A87B48
:10397000001DA87300203EBD09E3CA02F00000202C
:103980000EB54FF4976310B106A107C901E008A274
:1039900007CA8DE807006A460921184601F07AF93E
:1039A0000EBD0000B8AAB38DB4980D355D000000BF
:1039B000B8AAAAAAB088C3C5C700000008B560B1FC
:1039C000C0208DF80000C2208DF80100C4208DF8C1
:1039D0000200C6208DF8030004E08B220421684613
:1039E000FCF71FFC6A46042140F6982001F052F9CA
:1039F00000F088FE08BD0000C8234FF48062024931
:103A000040F6F63000F060BDC64D00082DE9FF4FCE
:103A100089B01746DDE9165200244D4E884681468E
:103A20002C80A246B07B694600F0FAFD4FF0FF3BC8
:103A300018B158460DB0BDE8F08F708910F0140F22
:103A40003ED0009909BA21F0FF029DF803100A4305
:103A50003A6001999DF8073009BA21F0FF01194336
:103A60007960029B9DF80B401BBA23F0FF032343B0
:103A7000BB60039C121424BA24F0FF0C9DF80F4085
:103A800009144CEA040C1024C7F80CC01B144FEAAC
:103A90002C4712FB02F211FB012113FB03F217FB6F
:103AA00007221144A1F17061B1F1007F04D900F047
:103AB00029FEA5F800A0BCE7298841F4807129807F
:103AC0004206694611D50A19A41D13885BBAA8F8E5
:103AD000003053885BBAA8F80230928852BAA8F82E
:103AE00004202A8842F008022A8010F4C07F11D0F6
:103AF0000A19A41D13885BBAA9F8003053885BBA71
:103B0000A9F80230928852BAA9F804202A8842F013
:103B100070022A80800716D00C44E07800F0C005BF
:103B200000F03F016078C00706D0C80801F0070127
:103B30003268491C02B190476078000703D571686C
:103B400009B1A80988470C9800F010FA002071E725
:103B5000F000002030B5044613A285B007CA8DE8F6
:103B600007004FF0FF35C82C16D8C820B0FBF4F181
:103B7000491E080A8DF80C008DF80D1003AA0221C9
:103B800040F2162001F086F830B96A460C2140F662
:103B9000C12001F07FF810B1284605B030BD0548BE
:103BA00084810020F9E70000FEF2ABC4AAF1DFDF58
:103BB000BBAFDFDFF00000202DE9FF4104463CA051
:103BC00004F00303006802903AA0006803903AA052
:103BD00006683AA0056802A8C15C8DF80010C4F31D
:103BE000C101425C8DF80120C4F38112805C8DF824
:103BF000020003A8C35C8DF80430415C8DF8051009
:103C0000805C8DF806006A46032140F2264001F0F0
:103C100041F84FF0FF37E0BB01AA032140F22A40F0
:103C200001F038F8A8BBCDE9006560070BD59DF819
:103C3000000040F001008DF800009DF8040040F005
:103C400001008DF80400A0060BD59DF8010040F09E
:103C500001008DF801009DF8050040F001008DF88D
:103C60000500E0050BD59DF8020040F001008DF83D
:103C700002009DF8060040F001008DF806006A463B
:103C800003214FF4886001F005F810B901AA03215F
:103C900000E004E040F2314000F0FCFF18B138468B
:103CA00004B0BDE8F081064804810020F8E7000078
:103CB0004CCD6C000CC92C003656760026466600AA
:103CC000F00000204FF47A7290FBF2F008B5484300
:103CD000010E8DF80010010C8DF80110010A8DF80D
:103CE00002108DF803006A4604214FF4AE7000F014
:103CF000D1FF08BD0521B0FBF1F008B5010A8DF830
:103D000000108DF801006A4602214FF4AD7000F0FA
:103D1000C1FF08BD0521B0FBF1F008B5010A8DF81F
:103D200000108DF801006A4602214FF4AC7000F0DB
:103D3000B1FF08BD08B500218DF80010C10702D001
:103D400030218DF80010810705D59DF8001041F055
:103D50000C018DF80010400705D59DF8000040F0DB
:103D600003008DF800006A4601214FF4A47000F0B2
:103D700091FF08BD08B560B1042800D90420401E99
:103D80008DF800006A46012140F24F1000F082FFDA
:103D900008BD0120F3E7000070B504462DED028B4D
:103DA00082B040074FF0FF357ED0B1F5C86F7BD8A9
:103DB00000EE101AB8EE400ADFED460A01A880EEC8
:103DC000208A00F09FFA9DF80400022806D00428FB
:103DD00010D0082835D0102874D13EE09FED3E0A5F
:103DE00028EE000ABCEEC00A10EE100A9FED3B0A56
:103DF00082B20AE09FED3A0A28EE000ABCEEC00A41
:103E000010EE100A9FED370A82B228EE000A6E46C5
:103E1000BCEEC00A10EE100A81B2100A8DF8000044
:103E20008DF80120080A8DF802008DF80310E007D4
:103E300026D0324602214FF4EA7000F02BFF98BBE7
:103E400017E09FED290A28EE000ABCEEC00A10EE2A
:103E5000100A9FED260A82B2D7E79FED250A28EEC9
:103E6000000ABCEEC00A10EE100A9FED220A82B2D0
:103E7000CBE7B21C02214FF4927000F00BFF98B90F
:103E8000A0070DD56A4602214FF4EC7000F002FF46
:103E900050B9B21C02214FF4947000F0FBFE18B927
:103EA000600714D56A4600E00CE002214FF4EE7082
:103EB00000F0F0FE30B9B21C02214FF4967000F011
:103EC000E9FE20B1284602B0BDEC028B70BD002097
:103ED000F9E700000000484300008046000040462B
:103EE000000000460000C04500008045000040453D
:103EF000000000450000C0440521B0FBF1F008B50A
:103F0000010A8DF800108DF801006A4602214FF475
:103F1000EF7000F0BFFE08BD0521B0FBF1F008B561
:103F2000010A8DF800108DF801006A4602214FF455
:103F3000ED7000F0AFFE08BD82B0CDE9000121F0C8
:103F4000004001909DED000B02B051EC100B70474A
:103F500038B504468DF80000022301226946024864
:103F6000FDF754FC204638BDB0000020704700B576
:103F7000024600F00DF80346D01C00F009F843EAB1
:103F8000C003901D00F004F843EA801080B200BD29
:103F900090F90010002902DD4FF00000704702DAAE
:103FA0004FF00400704790F90110002902DD4FF036
:103FB0000100704702DA4FF00500704790F90200E7
:103FC000002802DD4FF00200704702DA4FF00600D1
:103FD00070474FF0070070471FB5FDF75BF8FEF71D
:103FE0005FF8FDF7BBFFFDF7EFFFFEF717F81CA02A
:103FF000FEF75AFAFDF780FE00F038F901461CA0E2
:10400000FEF752FADFF87C80DFF87C90DFF87CA0C6
:104010001C4A1D491D4800F077F8010006D01CA07D
:10402000FEF742FA6420FCF743FCF1E7D8F8000001
:10403000FCF79EFA06460F46D9F80000FCF798FAFE
:1040400004460D46DAF80000FCF792FA8DE8F0001D
:1040500041EC100B12A053EC102BFEF725FAD7E71A
:104060004D505536303530746573740A00000000C9
:10407000444D505F494E545F464C414720256420D3
:104080000A000000500000204C00002048000020E2
:104090007265765F666C61672025640A0000000027
:1040A000252E326620252E326620252E3266200AE5
:1040B000000000002DE9F041124C20F00101002524
:1040C00094F8240010B10020BDE8F081A07A4FF0F0
:1040D000FF3668B10840277C2074884200D03546FE
:1040E00041B1012000F000FE00F00CFB38B1277454
:1040F0003046E9E7207D00B1012000F0F5FD2846BB
:10410000E2E700001000002070B50D462DED0C8B8D
:104110008EB006460CA902A81446F7EE00BACDE907
:1041200000010BAB03AA09A907A8FFF76FFC20B198
:1041300001200EB0BDEC0C8B70BDBDF80800C005B1
:104140007ED59DED030AF8EEC00A9FED450AB0EE5C
:1041500000CA60EE809ADDED040AF8EEE00A69EE2E
:104160008CCA20EE808ADDED050AF8EEE00A60EEEA
:10417000808ADDED060AF8EEE00A20EE809AB8EEBD
:10418000000A28EE00BA2BEE090A0CEEA80A10EE7F
:10419000100AFCF7EDF941EC100BFEF7ADF99FEDBD
:1041A00031AB51EC100B53EC1A2BFCF700F9FCF778
:1041B000F2F92BEE080A28EE8CDA30600DEE680A70
:1041C00030EE2B0A10EE100AFCF7D2F92DEE090A98
:1041D00041EC1B0B0CEE880A10EE100AFCF7C8F934
:1041E00041EC100BB0EE4B1AF0EE6B1AFEF7A0FC90
:1041F00053EC1A2B51EC100BFCF7D9F8FCF7CBF968
:1042000029EEA90A286008EE080A08EEE80A09EE75
:10421000490A10EE100AFCF7ABF928EE280A41EC27
:104220001B0B09EE890A20EE0C0A10EE100AFCF7AF
:104230009FF941EC100BB0EE4B1AF0EE6B1A00E058
:104240000CE0FEF775FC53EC1A2B51EC100BFCF74D
:10425000AEF8FCF7A0F9206000206AE7022068E7CA
:10426000000080306666666666A64C4010B500F0B9
:1042700067F888BB782000F0B1FC10F0FF0F01D088
:10428000012010BD7820FFF715FF10F0FF0F01D0BF
:10429000022010BDC82000F061FC10F0FF0F01D01B
:1042A000032010BDFFF7A8FB10F0FF0F01D0042082
:1042B00010BD1348FFF75BFEFFF77EFC10F0FF0F09
:1042C00001D0052010BD40F27310FFF76DFA10F019
:1042D000FF0F02D0062010BD0FE0C820FFF73AFC08
:1042E00010F0FF0F01D00720F5E7012000F05CFB84
:1042F00010F0FF0F01D00920EDE70020EBE70000F0
:104300003C0000200D494A7A42B1012A08D0022A15
:104310000FD0032A0FD04FF0FF307047022200E089
:1043200004220270C97C11B11106C90D0170002070
:1043300070470822F5E71022F3E700001000002084
:104340002DE9FC414C4C80208DF8000020686B4624
:104350000122817C60680078FDF7DAFA4FF0FF37C0
:10436000002832D16420FCF7A3FA00258DF8005014
:1043700020686B460122817C60680078FDF7C8FAEE
:10438000002870D120686B460622817D6068007825
:10439000FDF79AFA002866D19DF805009DF80310F4
:1043A000C007400F01F0010140EA41019DF8010002
:1043B0004FF0010600F00100014309D0012905D0AA
:1043C000022915D02DA0FEF76FF84CE0E67410E03E
:1043D00020686B460122C17860680078FDF774FAA6
:1043E00040BB9DF8000010F00F0020D0042822D020
:1043F000E574FF2004F80A0F4FF6FF7104F8020C71
:1044000004F8010C6070A180A0712072A67026765D
:104410006576E572A572E56025616561A576E5764C
:10442000A5834FF4FA6000F0FBFA18B907E01D48C5
:10443000FEF73AF817E01CA0FEF736F8C6E70220B0
:1044400000F010FA78B92A2000F052FB58B9322057
:1044500000F084FB38B90020FFF72CFE18B90020CB
:1044600000F034FA10B13846BDE8FC81002000F0BD
:10447000B5FB0020F8E7000010000020556E7375B2
:1044800070706F7274656420736F667477617265A3
:104490002070726F64756374207265762025642EB7
:1044A0000A000000005B000848616C662073656EBE
:1044B0007369746976697479207061727420666FAB
:1044C000756E642E0A0000002DE9FF4FDFF894801E
:1044D000064685B098F8250015460F464FF0FF397F
:1044E000B0BBAFB3002420E0301B102800DD10204B
:1044F00080B283463A1901469246204600F0CAFB34
:1045000030BB6A465946204600F0D2F800BB504600
:104510005A466946FBF797FE20B16FF0010009B0DB
:10452000BDE8F08F04EB0B0084B2B442DCD3280A60
:104530008DF810008DF81150D8F80000444604ABF7
:10454000817ED8F8040002220078FDF7E1F908B175
:104550004846E4E7012084F825000898E08400201C
:10456000DDE70000100000202DE9F84305464FF07C
:10457000FF39282844D80727284C00267DB1012080
:1045800000F084FA20208DF800004FF00108012D82
:1045900017D0052D18D88DF8018005201FE00020C8
:1045A00000F074FA8DF800608DF8017020686B4699
:1045B0000222817C60680078FDF7AAF900BB2675AD
:1045C00029E08DF80160E8E7142D04D802208DF869
:1045D00001000A2003E003208DF80100142000F000
:1045E00087FA9DF801006B4607EB80108DF80100FB
:1045F00020680222817C60680078FDF789F910B19B
:104600004846BDE8F8830820A072267384F8148019
:104610000020FFF74FFD0020F3E70000100000200E
:104620002DE9F843214C0646174694F824008946A4
:104630004FF0FF3890B3A07A80B320686B46022217
:10464000817A60680078FDF73FF938BBBDF800005B
:1046500045BAB54202D2002038701FE06068418838
:10466000B5EB510F11D9216800786B46497C0122C6
:10467000FDF72AF990B99DF80000C00605D500F0B5
:1046800041F86FF00100BDE8F8832068F2B24B46B4
:10469000C17A60680078FDF717F908B14046F2E783
:1046A000B5FBF6F0401E38700020ECE7100000204B
:1046B000F8B516000D464FF0FF371FD0104CA17A09
:1046C000E1B1010A8DF80010C0B28DF80100411966
:1046D00060684289914211D8216800786B46097E52
:1046E0000222FDF715F948B92068EAB23346417D48
:1046F00060680078FDF7E8F8002800D03846F8BD7B
:1047000010000020F8B5564C4FF0FF36A07A002874
:104710007DD000258DF8005020686B460122C17BBA
:1047200060680078FDF7F4F8002870D120686B46C7
:104730000122417960680078FDF7EAF8002866D127
:1047400020686B460122017960680078FDF7E0F887
:1047500000285CD194F82400E0B30C208DF8000010
:1047600020686B460122017960680078FDF7D0F877
:10477000002872D13220FCF79BF8C0208DF8000091
:10478000A07AC00702D0E0208DF8000020686B46B8
:104790000122017960680078FDF7BAF800285CD141
:1047A000607C18B102208DF8000001E08DF8005007
:1047B00020686B460122C17B60680078FDF7A8F88D
:1047C00028BB8DF8005020686B4601224179606853
:1047D00000783EE0FFE704208DF8000020686B467B
:1047E0000122017960680078FDF792F878B9A07C21
:1047F00090B9A07AC0070FD05FF060008DF800007C
:1048000020686B46012201796068007800E024E0AE
:10481000FDF77EF808BB01E04020EFE73220FCF70F
:1048200047F8607C18B101208DF8000001E08DF898
:10483000005020686B460122C17B60680078FDF75C
:1048400067F850B92068064B01224179606810333F
:104850000078FDF75DF8002800D03046F8BD000074
:104860001000002038B5184C4FF0FF35A17A19B36D
:10487000022806D0042806D008280ED010281BD104
:104880000DE0002000E008208DF80000607A9DF81F
:104890000010B0EBD10F04D005E01020F4E7182091
:1048A000F2E7002038BD20686B460122C1796068BC
:1048B0000078FDF72DF808B1284638BD9DF80000B6
:1048C000C0086072EDE7000010000020F8B5354C1C
:1048D0000546A07CA84201D10020F8BD31484FF028
:1048E000FF366B46D0E900104FF0010209790078DD
:1048F00035B3FCF7E9FF70BB9DF800006B4620F074
:1049000020008DF80000206801220179606800789D
:10491000FCF7FEFFF8B90320FBF7CAFF02208DF871
:10492000000094F8220078B382202BE020686B46C8
:104930000122017D60680078FCF7EAFF58B92EE09B
:10494000FCF7C2FF38B9A07AC0079DF8000003D079
:1049500040F0200002E00CE020F020008DF8000084
:1049600020686B460122017960680078FCF7D0FF6F
:1049700008B13046F8BD0320FBF79AFF94F82200F7
:1049800000B180208DF8000094F823000028CDD0DD
:104990009DF8000040F030008DF80000C6E7A574D7
:1049A0009AE700001000002038B51C4C94F8241041
:1049B00081421DD0002500B394F82500D0B100201D
:1049C00000F092F90020FFF781FFE08C00F0C6F8BC
:1049D0008DF8005060686B46012200782321FCF7B7
:1049E00097FF012084F8240000F07EF9FFF78AFE8B
:1049F000002038BD4FF0FF3038BD002000F074F9C2
:104A0000207C8DF8000060686B460122007823212D
:104A1000FCF77EFF84F82450E8E700001000002037
:104A200038B5194C4FF0FF35A17A31B3FA2809D0C7
:104A3000B0F5FA7F08D0B0F57A7F0FD0B0F5FA6FF5
:104A40001BD10DE0002000E008208DF80000207A46
:104A50009DF80010B0EBD10F04D005E01020F4E772
:104A60001820F2E7002038BD20686B4601228179CA
:104A700060680078FCF74CFF08B1284638BD9DF807
:104A80000000C0082072EDE71000002038B5174C78
:104A9000054694F82300A84201D1002038BD0DB18D
:104AA000302000E000208DF80000A07C28B19DF8A7
:104AB000000040F002008DF8000094F8220028B1B8
:104AC0009DF8000040F080008DF8000020686B46E3
:104AD0000122017D60680078FCF71AFF10B14FF0E9
:104AE000FF3038BD84F82350D7E7000010000020C5
:104AF00038B5194C4FF0FF35A17A31B3BC2801D33A
:104B0000012010E0622801D302200CE02A2801D302
:104B1000032008E0142801D3042004E00A2801D36C
:104B2000052000E006208DF80000E07A9DF80010D6
:104B3000884201D1002038BD20686B46012281786F
:104B400060680078FCF7E4FE08B1284638BD9DF89F
:104B50000000E072EEE7000010000020F8B51E4DE6
:104B600004464FF0FF37A87A48B395F8240030BBCD
:104B7000287D4FF47A7648B164B1282C03D8E0B28E
:104B8000FFF7F2FC26E00020FFF7EEFC042C05D234
:104B9000042406E00020FFF7E7FCF9E7B44200D95F
:104BA0003446B6FBF4F0401E8DF8000028686B46D2
:104BB0000122417868680078FCF7AAFE08B13846FF
:104BC000F8BD9DF80000401CB6FBF0F0E8814008FD
:104BD000FFF78EFF0020F8BD10000020F8B5054655
:104BE00010F0700F4FF0000601D0012004E015B165
:104BF0008DF8006002E040208DF80000244C6B46E8
:104C000001222068817C60680078FCF781FE4FF00B
:104C1000FF3760BB9DF8000020F0400020738DF846
:104C20000060680602D404208DF80000A80605D4B0
:104C30009DF8000040F002008DF80000E80605D461
:104C40009DF8000040F001008DF80000280705D411
:104C50009DF8000040F038008DF8000020686B4699
:104C60000122C17C60680078FCF752FE10B1A67288
:104C70003846F8BD25B1082D02D00020FFF706FF09
:104C8000A57226753220FBF713FE0020F8BD000048
:104C900010000020F8B516000D464FF0FF371FD06A
:104CA000104CA17AE1B1010A8DF80010C0B28DF864
:104CB0000100411960684289914211D82168007849
:104CC0006B46097E0222FCF723FE48B92068EAB24F
:104CD0003346417D60680078FCF71AFE002800D05A
:104CE0003846F8BD10000020F8B5144C01462246A5
:104CF00094F82460D2E9000200235D1E56B179B118
:104D0000022111E0C17B10786B460122FCF700FE06
:104D100068B90EE0A67A56B111B1617C61B902E0C2
:104D20008DF80030EEE701218DF80010EAE7284603
:104D3000F8BD9DF8000060740020F8BD1000002050
:104D400000B52DED048B83B041EC190BFBF75CFD36
:104D500041EC180B18EE100A18EE901A8DED008B2E
:104D6000002818BF0120084320F00040C0F17F60F8
:104D700000F1E040C00F14D019EE101A19EE900A9D
:104D80008DED009B002918BF0121084320F0004051
:104D9000C0F17F6000F1E040C00F04BF0120FEF7CA
:104DA0007FF851EC180B03B0BDEC048B00BD000084
:104DB00000000000000001020304060708090000CB
:104DC0000000010203040000700000000024000045
:104DD00000020003000000650054FFEF0000FA80AD
:104DE000000B12820001030C30C30E8C8CE914D529
:104DF000400213710F8E3883F8833000F883258EBC
:104E0000F8833000F883FFFFFFFF0FFEA9D62400D0
:104E100004001A8279A10000003CFFFF000000108E
:104E2000000038836FA2003E03304000000002CA39
:104E3000E3093E8000002000000000000000400068
:104E4000000060000000000C0000000C186E000064
:104E500006920A16C0DFFFFF0256FD8CD377FFE1F2
:104E6000C496E0C5BEAA00000000FFFF0B2B0000A7
:104E70001657000003594000000000001DFA000210
:104E80006C1D000000003FFFDFEB003EB3B6000DDD
:104E9000227800002F3C00000000001942B50000FD
:104EA00039A20000B365D90E9FC91DCF4C34300024
:104EB0000000500000003BB67AE80064000000C823
:104EC000000000000000100000001000FA92100026
:104ED000225E000D229F0001000000320000FF460C
:104EE000000063D400001000000004D6000004CCD1
:104EF000000004CC00000000107200000040000020
:104F0000000000000000000600020005000700008D
:104F10000000006400000000000000000005000523
:104F200000640020000000000000000000000000FD
:104F300040000000030000000032F8980000FF6508
:104F40000000830F0000FF9BFC0000000000000039
:104F50000000000000000000000000000000000051
:104F60000000000000000000000000000000000041
:104F700000000000100040000000000000060000DB
:104F8000B26A000200000001FB830068000000D943
:104F9000FC007CF1FF83000000000065000000645D
:104FA00003E800640028000000250000000016A0AF
:104FB00000000000100000001000002F00000000A2
:104FC00001F40000100000280000FFFF4581FFFFF2
:104FD000FA72000000000000000000440005000517
:104FE000BAC6004778A200000001000000000000DF
:104FF0000600000000140000254D002F706D000019
:1050000005AE000C02D0000000000000000000000F
:10501000000000000000001B000000000000000075
:105020000000000000000064000000080000000014
:105030000000000000000000000000000000000070
:105040000000000000000000000000000000000060
:105050000000000000000000000000000000000050
:105060000000000000000000000000000000000040
:105070000000000000000000000000000000000030
:10508000000000000000001B000000000000000005
:105090000000000E000E00000AC70004000000001F
:1050A0000032FFFFFF9C00000B2B000000020000FD
:1050B000000100000064FFE50000000000000000A7
:1050C00000000000000000000001000000000001DE
:1050D00000000000000000018000000180000001CD
:1050E0008000002426D3000000000000000000061D
:1050F00000100096003C00000000000000000000CE
:105100000000000000000C0A4E68CDCF7709501651
:105110006759C619CE8200000000000000000000A0
:10512000000000000000000000000000000017D791
:105130008400030000000000000000000000C7938E
:105140008F9D1E1B1C1900000000000000000000C5
:10515000000000000000000000000000000002034A
:10516000188500004000000000030000000300005C
:1051700000000000000040000000000000000000EF
:10518000000000000000000000000000000000001F
:10519000000000000000000000000000000000000F
:1051A00000000000000000000000677DDF7E7290BC
:1051B0002E554CF6E68800000000000000000000BC
:1051C000000000000000D8DCB4B8B0D8B9ABF3F8E8
:1051D000FAB3B7BB8E9EAEF132F51BF1B4B8B08016
:1051E00097F1A9DFDFDFAADFDFDFF2AAC5CDC7A90C
:1051F0000CC92C97F1A989264666B28999A92D5523
:105200007DB0B08AA896365676F1BAA3B4B280C003
:10521000B8A89711B28398BAA3F024084410641870
:10522000B2B9B49883F1A329557DBAB5B1A38393DC
:10523000F0002850F5B2B6AA839328547CF1B9A3A4
:10524000829361BAA2DADEDFDB819AB9AEF56068DB
:1052500070F1DABAA2DFD9BAA2FAB9A38292DB312D
:10526000BAA2D9BAA2F8DF85A4D0C1BBAD83C2C5AA
:10527000C7B8A2DFDFDFBAA0DFDFDFD8D8F1B8AA76
:10528000B38DB4980D355DB2B6BAAF8C96198F9FB9
:10529000A70E161EB49AB8AA872C547CBAA4B08A5A
:1052A000B691325676B28494A4C808CDD8B8B4B0BA
:1052B000F19982A82D557D98A80E161EA22C547C1B
:1052C00092A4F02C5078F184A898C4CDFCD80DDBC2
:1052D000A8FC2DF3D9BAA6F8DABAA6DED8BAB2B6C7
:1052E0008696A6D0F3C841DAA6C8F8D8B0B4B8827A
:1052F000A892F52C548898F135D9F418D8F1A2D099
:10530000F8F9A884D9C7DFF8F883C5DADF69DF8345
:10531000C1D8F40114F1A8824EA884F311D182F50A
:10532000D992289788F109F41C1CD884A8F3C0F9F5
:10533000D1D99782F129F40DD8F3F9F9D1D982F4B2
:10534000C203D8DEDF1AD8F1A2FAF9A88498D9C727
:10535000DFF8F8F883C7DADF69DFF883C3D8F40130
:1053600014F198A8822EA884F311D182F5D9925015
:105370009788F109F41CD884A8F3C0F8F9D1D9971B
:1053800082F149F40DD8F3F9F9D1D982F4C403D8E4
:10539000DEDFD8F1AD8898CCA809F9D98292A8F5BA
:1053A0007CF1883ACF944A6E98DB6931DAADF2DE4F
:1053B000F9D88795A8F221D1DAA5F9F417D9F1AE79
:1053C0008ED0C0C3AE82C684C3A88595C8A588F216
:1053D000C0F1F4010EF18E9EA8C63E56F554F18838
:1053E00072F40115F19845856EF58E9E0488F142A0
:1053F000985A8E9E068869F4011CF1981E1108D0F7
:10540000F504F11E970202983625DBF9D985A5F33C
:10541000C1DA85A5F3DFD88595A8F309DAA5FAD80E
:105420008292A8F578F1881A849F26889821DAF468
:105430001DF3D8879F39D1AFD9DFDFFBF9F40CF327
:10544000D8FAD0F8DAF9F9D0DFD9F9D8F40BD8F3D3
:10545000879F39D1AFD9DFDFF41DF3D8FAFCA869F3
:10546000F9F9AFD0DADEFAD9F88F9FA8F1CCF3982A
:10547000DB45D9AFDFD0F8D8F18F9FA8CAF38809F0
:10548000DAAF8FCBF8D8F2AD978D0CD9A5DFF9BA8A
:10549000A6F3FAF412F2D8950DD1D9BAA6F3FADA36
:1054A000A5F2C1BAA6F3DFD8F1BAB2B68696A6D0F5
:1054B000CAF349DAA6CBF8D8B0B4B8D8AD84F2C0F4
:1054C000DFF18FCBC3A8B2B68696C8C1CBC3F3B009
:1054D000B48898A821DB718D9D71859521D9ADF295
:1054E000FAD88597A828D9F408D8F28D29DAF405D6
:1054F000D9F285A4C2F2D8A88D9401D1D9F411F2C1
:10550000D88721D8F40AD8F28498A8C801D1D9F450
:1055100011D8F3A4C8BBAFD0F2DEF8F8F8F8F8F869
:10552000F8F8D8F1B8F6B5B9B08A95A3DE3CA3D99E
:10553000F8D85CA3D9F8D87CA3D9F8D8F8F9D1A5C4
:10554000D9DFDAFAD8B18530F7D9DED8F830ADDA5C
:10555000DED8F2B48C99A32D557DA083DFDFDFB5B3
:1055600091A0F629D9FBD8A0FC29D9FAD8A0D0510E
:10557000D9F8D8FC51D9F9D879D9FBD8A0D0FC7981
:10558000D9FAD8A1F9F9F9F9F9A0DADFDFDFD8A162
:10559000F8F8F8F8F8ACDEF8ADDE8393AC2C547C68
:1055A000F1A8DFDFDFF69D2CDAA0DFD9FADB2DF8DA
:1055B000D8A850DAA0D0DED9D0F8F8F8DB55F8D862
:1055C000A878DAA0D0DFD9D0FAF8F8F8F8DB7DF8BF
:1055D000D89CA88CF530DB38D9D0DEDFA0D0DEDF58
:1055E000D8A848DB58D9DFD0DEA0DFD0DED8A86845
:1055F000DB70D9DFDFA0DFDFD8F1A888902C547CE6
:1056000098A8D05C38D1DAF2AE8CDFF9D8B087A890
:10561000C1C1B188A8C6F9F9DA36D8A8F9DA36D8FE
:10562000A8F9DA36D8A8F9DA36D8A8F9DA36D8F7E8
:105630008D9DADF818DAF2AEDFD8F7ADFA30D9A407
:10564000DEF9D8F2AEDEFAF983A7D9C3C5C7F1886F
:105650009BA77AADF7DEDFA4F8849408A797F30040
:10566000AEF29819A488C6A39488F632DFF2839329
:10567000DB09D9F2AADFD8D8AEF8F9D1DAF3A4DE83
:10568000A7F1889B7AD8F38494AE19F9DAAAF1DFEE
:10569000D8A881C0C3C5C7A39283F628ADDED9F8C8
:1056A000D8A350ADD9F8D8A378ADD9F8D8F8F9D1A6
:1056B000A1DADEC3C5C7D8A18194F818F2B089ACCD
:1056C000C3C5C7F1D8B8B4B09786A8319B0699076F
:1056D000AB9728889BF00C201440B0B4B8F0A88A8F
:1056E0009A285078B79BA829517924705944693871
:1056F000644831F1BBAB88002C547CF0B38BB8A864
:1057000004285078F1B088B49726A85998BBABB359
:105710008B02264666B0B8F08A9CA82951798B295D
:1057200051798A2470598B2058718A4469388B3991
:1057300040688A6448318B30496088F1AC002C5451
:105740007CF08CA804285078F1889726A85998AC4A
:105750008C02264666F0899CA82951792470594408
:105760006938644831A98809205970AB11384069FB
:10577000A8193148608CA83C415C207C00F18798D6
:105780001986A86E767EA999882D557DD8B1B5B9B0
:10579000A3DFDFDFAED0DFAAD0DEF2ABF8F9D9B0FD
:1057A00087C4AAF1DFDFBBAFDFDFB9D8B1F1A397C0
:1057B0008E60DFB084F2C8F8F9D9DED89385F14A5B
:1057C000B183A308B5839A0810B79F10D8F1B0BA77
:1057D000AEB08AC2B2B68E9EF1FBD9F41DD8F9D90B
:1057E0000CF1D8F8F8AD61D9AEFBD8F40CF1D8F8CB
:1057F000F8AD19D9AEFBDFD8F416F1D8F8AD8D614C
:10580000D9F4F4ACF59C9C8DDF2BBAB6AEFAF8F463
:105810000BD8F1AED0F8AD51DAAEFAF8F1D8B9B193
:10582000B6A3839C08B9B1839AB5AAC0FD3083B7EB
:105830009F10B58B93F20202D1ABDADED8F1B080C3
:10584000BAABC0C3B284C1C3D8B1B9F38BA391B60C
:1058500009B4D9ABDEB0879CB9A3DDF1B38B8B8BD8
:105860008B8BB087A3A3A3A3B28BB69BF2A3A3A3F6
:10587000A3A3A3A3A3A3A3F1B087B59AA3F39BA368
:10588000A3DCBAACDFB9A3A3A3A3A3A3A3A3A3A33D
:10589000A3A3A3A3A3A3D8D8D8BBB3B7F1AAF9DA1B
:1058A000FFD9809AAA28B48098A720B79787A866BE
:1058B00088F07951F1902C870CA781976293F07151
:1058C000716085940129517990A5F1284C6C870C61
:1058D00095188578A38390284C6C886CD8F3A282A5
:1058E00000F210A8921980A2F2D926D8F188A84D0A
:1058F000D948D896A83980D93CD89580A839A686A9
:1059000098D92CDA87A72CD8A8899519A980D938D5
:10591000D8A88939A980DA3CD8A82EA83990D90C02
:10592000D8A8953198D90CD8A809D9FFD801DAFFA1
:10593000D89539A9DA26FFD890A80D8999A81080A2
:105940009821DA2ED88999A83180DA2ED8A886969F
:105950003180DA2ED8A8873180DA2ED8A88292F347
:105960004180F1D92ED8A882F31980F1D92ED8829E
:10597000ACF3C0A28022F1A62EA72EA92298A829B6
:10598000DAACDEFFD8A2F22AF1A92E8292A8F23177
:1059900080A696F1D900AC8C9C0C30ACDED0DEFF3A
:1059A000D88C9CACD010ACDE8092A2F24C82A8F1D4
:1059B000CAF235F19688A6D900D8F1FF75191A0CEC
:1059C0006A231B1C1F207274433B4138393A6B6CAD
:1059D000376F06246D6E7000680000047600540175
:1059E000F7FD00018300000000080000000100181E
:1059F00032000500000020410000D242295C0F3E29
:105A00009A99993E3333733F295C0F3E00000000A2
:105A1000555555555555C53F7D6FEB0312D6D4BF2F
:105A20005544880E55C1C93F3B8F68B52882A4BF35
:105A300088B20175E0EF493F09F7FD0DE13D023FF6
:105A40004B2D8A1C273A03C0C88A599CE52A00407E
:105A500059018D1B6C06E6BF82922EB1C5B8B33FCB
:105A60004FBB610567ACDD3F182D4454FB21E93F76
:105A70009BF681D20B73EF3F182D4454FB21F93F65
:105A8000E2652F227F2B7A3C075C143326A6813CEB
:105A9000BDCBF07A8807703C075C143326A6913C96
:105AA000C4EB98999999C9BF711623FEC671BCBF02
:105AB0006D9A74AFF2B0B3BF9AFDDE522DDEADBF6A
:105AC0002F6C6A2C44B4A2BF0D5555555555D53F82
:105AD000FF8300922449C23F6E204CC5CD45B73F9D
